{
  "_format": "hh-sol-artifact-1",
  "contractName": "PhimoNFA",
  "sourceName": "contracts/PhimoNFA.sol",
  "abi": [
    {
      "inputs": [
        {
          "internalType": "string",
          "name": "_name",
          "type": "string"
        },
        {
          "internalType": "string",
          "name": "_symbol",
          "type": "string"
        }
      ],
      "stateMutability": "nonpayable",
      "type": "constructor"
    },
    {
      "anonymous": false,
      "inputs": [
        {
          "indexed": true,
          "internalType": "address",
          "name": "owner",
          "type": "address"
        },
        {
          "indexed": true,
          "internalType": "address",
          "name": "approved",
          "type": "address"
        },
        {
          "indexed": true,
          "internalType": "uint256",
          "name": "tokenId",
          "type": "uint256"
        }
      ],
      "name": "Approval",
      "type": "event"
    },
    {
      "anonymous": false,
      "inputs": [
        {
          "indexed": true,
          "internalType": "address",
          "name": "owner",
          "type": "address"
        },
        {
          "indexed": true,
          "internalType": "address",
          "name": "operator",
          "type": "address"
        },
        {
          "indexed": false,
          "internalType": "bool",
          "name": "approved",
          "type": "bool"
        }
      ],
      "name": "ApprovalForAll",
      "type": "event"
    },
    {
      "anonymous": false,
      "inputs": [
        {
          "indexed": true,
          "internalType": "enum AccessControl.Roles",
          "name": "role",
          "type": "uint8"
        },
        {
          "indexed": true,
          "internalType": "address",
          "name": "toAddress",
          "type": "address"
        },
        {
          "indexed": false,
          "internalType": "address",
          "name": "byAddress",
          "type": "address"
        }
      ],
      "name": "CollectionRoleGranted",
      "type": "event"
    },
    {
      "anonymous": false,
      "inputs": [
        {
          "indexed": true,
          "internalType": "enum AccessControl.Roles",
          "name": "role",
          "type": "uint8"
        },
        {
          "indexed": true,
          "internalType": "address",
          "name": "toAddress",
          "type": "address"
        },
        {
          "indexed": false,
          "internalType": "address",
          "name": "byAddress",
          "type": "address"
        }
      ],
      "name": "CollectionRoleRevoked",
      "type": "event"
    },
    {
      "anonymous": false,
      "inputs": [
        {
          "indexed": true,
          "internalType": "uint256",
          "name": "token",
          "type": "uint256"
        },
        {
          "indexed": true,
          "internalType": "bytes32",
          "name": "commitHash",
          "type": "bytes32"
        },
        {
          "indexed": true,
          "internalType": "address",
          "name": "triggeredBy",
          "type": "address"
        }
      ],
      "name": "NewBuild",
      "type": "event"
    },
    {
      "anonymous": false,
      "inputs": [
        {
          "indexed": true,
          "internalType": "uint256",
          "name": "token",
          "type": "uint256"
        },
        {
          "indexed": true,
          "internalType": "uint256",
          "name": "royalty",
          "type": "uint256"
        },
        {
          "indexed": true,
          "internalType": "address",
          "name": "triggeredBy",
          "type": "address"
        }
      ],
      "name": "NewRoyaltySet",
      "type": "event"
    },
    {
      "anonymous": false,
      "inputs": [
        {
          "indexed": true,
          "internalType": "uint256",
          "name": "token",
          "type": "uint256"
        },
        {
          "indexed": true,
          "internalType": "string",
          "name": "animation",
          "type": "string"
        },
        {
          "indexed": true,
          "internalType": "address",
          "name": "triggeredBy",
          "type": "address"
        }
      ],
      "name": "NewTokenAnimation",
      "type": "event"
    },
    {
      "anonymous": false,
      "inputs": [
        {
          "indexed": true,
          "internalType": "uint256",
          "name": "token",
          "type": "uint256"
        },
        {
          "indexed": true,
          "internalType": "bytes32",
          "name": "description",
          "type": "bytes32"
        },
        {
          "indexed": true,
          "internalType": "address",
          "name": "triggeredBy",
          "type": "address"
        }
      ],
      "name": "NewTokenDescription",
      "type": "event"
    },
    {
      "anonymous": false,
      "inputs": [
        {
          "indexed": true,
          "internalType": "uint256",
          "name": "token",
          "type": "uint256"
        },
        {
          "indexed": true,
          "internalType": "bytes32",
          "name": "ENS",
          "type": "bytes32"
        },
        {
          "indexed": true,
          "internalType": "address",
          "name": "triggeredBy",
          "type": "address"
        }
      ],
      "name": "NewTokenENS",
      "type": "event"
    },
    {
      "anonymous": false,
      "inputs": [
        {
          "indexed": true,
          "internalType": "uint256",
          "name": "token",
          "type": "uint256"
        },
        {
          "indexed": true,
          "internalType": "bytes32",
          "name": "externalURL",
          "type": "bytes32"
        },
        {
          "indexed": true,
          "internalType": "address",
          "name": "triggeredBy",
          "type": "address"
        }
      ],
      "name": "NewTokenExternalURL",
      "type": "event"
    },
    {
      "anonymous": false,
      "inputs": [
        {
          "indexed": true,
          "internalType": "uint256",
          "name": "token",
          "type": "uint256"
        },
        {
          "indexed": true,
          "internalType": "bytes32",
          "name": "image",
          "type": "bytes32"
        },
        {
          "indexed": true,
          "internalType": "address",
          "name": "triggeredBy",
          "type": "address"
        }
      ],
      "name": "NewTokenImage",
      "type": "event"
    },
    {
      "anonymous": false,
      "inputs": [
        {
          "indexed": true,
          "internalType": "uint256",
          "name": "token",
          "type": "uint256"
        },
        {
          "indexed": true,
          "internalType": "bytes32",
          "name": "name",
          "type": "bytes32"
        },
        {
          "indexed": true,
          "internalType": "address",
          "name": "triggeredBy",
          "type": "address"
        }
      ],
      "name": "NewTokenName",
      "type": "event"
    },
    {
      "anonymous": false,
      "inputs": [
        {
          "indexed": true,
          "internalType": "uint256",
          "name": "token",
          "type": "uint256"
        },
        {
          "indexed": true,
          "internalType": "uint256",
          "name": "value",
          "type": "uint256"
        },
        {
          "indexed": true,
          "internalType": "address",
          "name": "triggeredBy",
          "type": "address"
        }
      ],
      "name": "NewTokenValue",
      "type": "event"
    },
    {
      "anonymous": false,
      "inputs": [
        {
          "indexed": true,
          "internalType": "uint256",
          "name": "token",
          "type": "uint256"
        },
        {
          "indexed": true,
          "internalType": "uint256",
          "name": "value",
          "type": "uint256"
        },
        {
          "indexed": true,
          "internalType": "address",
          "name": "triggeredBy",
          "type": "address"
        }
      ],
      "name": "RoyaltySent",
      "type": "event"
    },
    {
      "anonymous": false,
      "inputs": [
        {
          "indexed": true,
          "internalType": "uint256",
          "name": "tokenId",
          "type": "uint256"
        },
        {
          "indexed": true,
          "internalType": "enum AccessControl.Roles",
          "name": "role",
          "type": "uint8"
        },
        {
          "indexed": true,
          "internalType": "address",
          "name": "toAddress",
          "type": "address"
        },
        {
          "indexed": false,
          "internalType": "address",
          "name": "byAddress",
          "type": "address"
        }
      ],
      "name": "TokenRoleGranted",
      "type": "event"
    },
    {
      "anonymous": false,
      "inputs": [
        {
          "indexed": true,
          "internalType": "uint256",
          "name": "tokenId",
          "type": "uint256"
        },
        {
          "indexed": true,
          "internalType": "enum AccessControl.Roles",
          "name": "role",
          "type": "uint8"
        },
        {
          "indexed": true,
          "internalType": "address",
          "name": "toAddress",
          "type": "address"
        },
        {
          "indexed": false,
          "internalType": "address",
          "name": "byAddress",
          "type": "address"
        }
      ],
      "name": "TokenRoleRevoked",
      "type": "event"
    },
    {
      "anonymous": false,
      "inputs": [
        {
          "indexed": true,
          "internalType": "uint256",
          "name": "token",
          "type": "uint256"
        },
        {
          "indexed": true,
          "internalType": "uint256",
          "name": "value",
          "type": "uint256"
        },
        {
          "indexed": true,
          "internalType": "address",
          "name": "triggeredBy",
          "type": "address"
        }
      ],
      "name": "TokenTransfer",
      "type": "event"
    },
    {
      "anonymous": false,
      "inputs": [
        {
          "indexed": true,
          "internalType": "address",
          "name": "from",
          "type": "address"
        },
        {
          "indexed": true,
          "internalType": "address",
          "name": "to",
          "type": "address"
        },
        {
          "indexed": true,
          "internalType": "uint256",
          "name": "tokenId",
          "type": "uint256"
        }
      ],
      "name": "Transfer",
      "type": "event"
    },
    {
      "inputs": [
        {
          "internalType": "uint256",
          "name": "tokenId",
          "type": "uint256"
        }
      ],
      "name": "_getTokenRoyalty",
      "outputs": [
        {
          "internalType": "address",
          "name": "",
          "type": "address"
        },
        {
          "internalType": "uint96",
          "name": "",
          "type": "uint96"
        }
      ],
      "stateMutability": "view",
      "type": "function"
    },
    {
      "inputs": [
        {
          "internalType": "address",
          "name": "to",
          "type": "address"
        },
        {
          "internalType": "uint256",
          "name": "tokenId",
          "type": "uint256"
        }
      ],
      "name": "approve",
      "outputs": [],
      "stateMutability": "nonpayable",
      "type": "function"
    },
    {
      "inputs": [
        {
          "internalType": "address",
          "name": "owner",
          "type": "address"
        }
      ],
      "name": "balanceOf",
      "outputs": [
        {
          "internalType": "uint256",
          "name": "",
          "type": "uint256"
        }
      ],
      "stateMutability": "view",
      "type": "function"
    },
    {
      "inputs": [
        {
          "internalType": "uint256",
          "name": "tokenId",
          "type": "uint256"
        }
      ],
      "name": "burn",
      "outputs": [],
      "stateMutability": "nonpayable",
      "type": "function"
    },
    {
      "inputs": [
        {
          "internalType": "uint256",
          "name": "tokenId",
          "type": "uint256"
        }
      ],
      "name": "getApproved",
      "outputs": [
        {
          "internalType": "address",
          "name": "",
          "type": "address"
        }
      ],
      "stateMutability": "view",
      "type": "function"
    },
    {
      "inputs": [
        {
          "internalType": "enum AccessControl.Roles",
          "name": "role",
          "type": "uint8"
        }
      ],
      "name": "getCollectionRoleMembers",
      "outputs": [
        {
          "internalType": "address[]",
          "name": "",
          "type": "address[]"
        }
      ],
      "stateMutability": "view",
      "type": "function"
    },
    {
      "inputs": [
        {
          "internalType": "uint256",
          "name": "tokenId",
          "type": "uint256"
        },
        {
          "internalType": "enum AccessControl.Roles",
          "name": "role",
          "type": "uint8"
        }
      ],
      "name": "getTokenRoleMembers",
      "outputs": [
        {
          "internalType": "address[]",
          "name": "",
          "type": "address[]"
        }
      ],
      "stateMutability": "view",
      "type": "function"
    },
    {
      "inputs": [
        {
          "internalType": "enum AccessControl.Roles",
          "name": "role",
          "type": "uint8"
        },
        {
          "internalType": "address",
          "name": "account",
          "type": "address"
        }
      ],
      "name": "grantCollectionRole",
      "outputs": [],
      "stateMutability": "nonpayable",
      "type": "function"
    },
    {
      "inputs": [
        {
          "internalType": "uint256",
          "name": "tokenId",
          "type": "uint256"
        },
        {
          "internalType": "enum AccessControl.Roles",
          "name": "role",
          "type": "uint8"
        },
        {
          "internalType": "address",
          "name": "account",
          "type": "address"
        }
      ],
      "name": "grantTokenRole",
      "outputs": [],
      "stateMutability": "nonpayable",
      "type": "function"
    },
    {
      "inputs": [
        {
          "internalType": "enum AccessControl.Roles",
          "name": "role",
          "type": "uint8"
        },
        {
          "internalType": "address",
          "name": "account",
          "type": "address"
        }
      ],
      "name": "hasCollectionRole",
      "outputs": [
        {
          "internalType": "bool",
          "name": "",
          "type": "bool"
        }
      ],
      "stateMutability": "view",
      "type": "function"
    },
    {
      "inputs": [
        {
          "internalType": "uint256",
          "name": "tokenId",
          "type": "uint256"
        },
        {
          "internalType": "enum AccessControl.Roles",
          "name": "role",
          "type": "uint8"
        },
        {
          "internalType": "address",
          "name": "account",
          "type": "address"
        }
      ],
      "name": "hasTokenRole",
      "outputs": [
        {
          "internalType": "bool",
          "name": "",
          "type": "bool"
        }
      ],
      "stateMutability": "view",
      "type": "function"
    },
    {
      "inputs": [
        {
          "internalType": "address",
          "name": "owner",
          "type": "address"
        },
        {
          "internalType": "address",
          "name": "operator",
          "type": "address"
        }
      ],
      "name": "isApprovedForAll",
      "outputs": [
        {
          "internalType": "bool",
          "name": "",
          "type": "bool"
        }
      ],
      "stateMutability": "view",
      "type": "function"
    },
    {
      "inputs": [
        {
          "internalType": "address",
          "name": "to",
          "type": "address"
        },
        {
          "internalType": "bytes32",
          "name": "name",
          "type": "bytes32"
        },
        {
          "internalType": "bytes32",
          "name": "description",
          "type": "bytes32"
        },
        {
          "internalType": "bytes32",
          "name": "image",
          "type": "bytes32"
        },
        {
          "internalType": "bytes32",
          "name": "externalURL",
          "type": "bytes32"
        },
        {
          "internalType": "bytes32",
          "name": "ENS",
          "type": "bytes32"
        },
        {
          "internalType": "bytes32",
          "name": "commitHash",
          "type": "bytes32"
        },
        {
          "internalType": "bytes32",
          "name": "gitRepository",
          "type": "bytes32"
        },
        {
          "components": [
            {
              "internalType": "string",
              "name": "html",
              "type": "string"
            },
            {
              "internalType": "string",
              "name": "css",
              "type": "string"
            },
            {
              "internalType": "string",
              "name": "js",
              "type": "string"
            }
          ],
          "internalType": "struct PhimoNFA.Animation",
          "name": "animation",
          "type": "tuple"
        }
      ],
      "name": "mint",
      "outputs": [
        {
          "internalType": "uint256",
          "name": "",
          "type": "uint256"
        }
      ],
      "stateMutability": "payable",
      "type": "function"
    },
    {
      "inputs": [],
      "name": "name",
      "outputs": [
        {
          "internalType": "string",
          "name": "",
          "type": "string"
        }
      ],
      "stateMutability": "view",
      "type": "function"
    },
    {
      "inputs": [
        {
          "internalType": "uint256",
          "name": "tokenId",
          "type": "uint256"
        }
      ],
      "name": "ownerOf",
      "outputs": [
        {
          "internalType": "address",
          "name": "",
          "type": "address"
        }
      ],
      "stateMutability": "view",
      "type": "function"
    },
    {
      "inputs": [
        {
          "components": [
            {
              "internalType": "string",
              "name": "html",
              "type": "string"
            },
            {
              "internalType": "string",
              "name": "css",
              "type": "string"
            },
            {
              "internalType": "string",
              "name": "js",
              "type": "string"
            }
          ],
          "internalType": "struct PhimoNFA.Animation",
          "name": "animation",
          "type": "tuple"
        }
      ],
      "name": "parseAnimation",
      "outputs": [
        {
          "internalType": "string",
          "name": "",
          "type": "string"
        }
      ],
      "stateMutability": "pure",
      "type": "function"
    },
    {
      "inputs": [
        {
          "internalType": "uint256",
          "name": "tokenId",
          "type": "uint256"
        }
      ],
      "name": "removeTokenValue",
      "outputs": [],
      "stateMutability": "nonpayable",
      "type": "function"
    },
    {
      "inputs": [
        {
          "internalType": "uint256",
          "name": "tokenId",
          "type": "uint256"
        }
      ],
      "name": "resetTokenRoyalty",
      "outputs": [],
      "stateMutability": "nonpayable",
      "type": "function"
    },
    {
      "inputs": [
        {
          "internalType": "enum AccessControl.Roles",
          "name": "role",
          "type": "uint8"
        },
        {
          "internalType": "address",
          "name": "account",
          "type": "address"
        }
      ],
      "name": "revokeCollectionRole",
      "outputs": [],
      "stateMutability": "nonpayable",
      "type": "function"
    },
    {
      "inputs": [
        {
          "internalType": "uint256",
          "name": "tokenId",
          "type": "uint256"
        },
        {
          "internalType": "enum AccessControl.Roles",
          "name": "role",
          "type": "uint8"
        },
        {
          "internalType": "address",
          "name": "account",
          "type": "address"
        }
      ],
      "name": "revokeTokenRole",
      "outputs": [],
      "stateMutability": "nonpayable",
      "type": "function"
    },
    {
      "inputs": [
        {
          "internalType": "uint256",
          "name": "tokenId",
          "type": "uint256"
        },
        {
          "internalType": "uint256",
          "name": "salePrice",
          "type": "uint256"
        }
      ],
      "name": "royaltyInfo",
      "outputs": [
        {
          "internalType": "address",
          "name": "",
          "type": "address"
        },
        {
          "internalType": "uint256",
          "name": "",
          "type": "uint256"
        }
      ],
      "stateMutability": "view",
      "type": "function"
    },
    {
      "inputs": [
        {
          "internalType": "address",
          "name": "from",
          "type": "address"
        },
        {
          "internalType": "address",
          "name": "to",
          "type": "address"
        },
        {
          "internalType": "uint256",
          "name": "tokenId",
          "type": "uint256"
        }
      ],
      "name": "safeTransferFrom",
      "outputs": [],
      "stateMutability": "nonpayable",
      "type": "function"
    },
    {
      "inputs": [
        {
          "internalType": "address",
          "name": "from",
          "type": "address"
        },
        {
          "internalType": "address",
          "name": "to",
          "type": "address"
        },
        {
          "internalType": "uint256",
          "name": "tokenId",
          "type": "uint256"
        },
        {
          "internalType": "bytes",
          "name": "_data",
          "type": "bytes"
        }
      ],
      "name": "safeTransferFrom",
      "outputs": [],
      "stateMutability": "nonpayable",
      "type": "function"
    },
    {
      "inputs": [],
      "name": "selfDestruct",
      "outputs": [],
      "stateMutability": "nonpayable",
      "type": "function"
    },
    {
      "inputs": [
        {
          "internalType": "address",
          "name": "operator",
          "type": "address"
        },
        {
          "internalType": "bool",
          "name": "approved",
          "type": "bool"
        }
      ],
      "name": "setApprovalForAll",
      "outputs": [],
      "stateMutability": "nonpayable",
      "type": "function"
    },
    {
      "inputs": [
        {
          "internalType": "uint256",
          "name": "tokenId",
          "type": "uint256"
        },
        {
          "internalType": "string",
          "name": "html",
          "type": "string"
        },
        {
          "internalType": "string",
          "name": "css",
          "type": "string"
        },
        {
          "internalType": "string",
          "name": "js",
          "type": "string"
        }
      ],
      "name": "setTokenAnimation",
      "outputs": [],
      "stateMutability": "nonpayable",
      "type": "function"
    },
    {
      "inputs": [
        {
          "internalType": "uint256",
          "name": "tokenId",
          "type": "uint256"
        },
        {
          "internalType": "bytes32",
          "name": "_commitHash",
          "type": "bytes32"
        },
        {
          "internalType": "bytes32",
          "name": "_gitRepository",
          "type": "bytes32"
        }
      ],
      "name": "setTokenBuild",
      "outputs": [],
      "stateMutability": "nonpayable",
      "type": "function"
    },
    {
      "inputs": [
        {
          "internalType": "uint256",
          "name": "tokenId",
          "type": "uint256"
        },
        {
          "internalType": "bytes32",
          "name": "_tokenDescription",
          "type": "bytes32"
        }
      ],
      "name": "setTokenDescription",
      "outputs": [],
      "stateMutability": "nonpayable",
      "type": "function"
    },
    {
      "inputs": [
        {
          "internalType": "uint256",
          "name": "tokenId",
          "type": "uint256"
        },
        {
          "internalType": "bytes32",
          "name": "_tokenENS",
          "type": "bytes32"
        }
      ],
      "name": "setTokenENS",
      "outputs": [],
      "stateMutability": "nonpayable",
      "type": "function"
    },
    {
      "inputs": [
        {
          "internalType": "uint256",
          "name": "tokenId",
          "type": "uint256"
        },
        {
          "internalType": "bytes32",
          "name": "_tokenExternalURL",
          "type": "bytes32"
        }
      ],
      "name": "setTokenExternalURL",
      "outputs": [],
      "stateMutability": "nonpayable",
      "type": "function"
    },
    {
      "inputs": [
        {
          "internalType": "uint256",
          "name": "tokenId",
          "type": "uint256"
        },
        {
          "internalType": "bytes32",
          "name": "_tokenImage",
          "type": "bytes32"
        }
      ],
      "name": "setTokenImage",
      "outputs": [],
      "stateMutability": "nonpayable",
      "type": "function"
    },
    {
      "inputs": [
        {
          "internalType": "uint256",
          "name": "tokenId",
          "type": "uint256"
        },
        {
          "internalType": "bytes32",
          "name": "_tokenName",
          "type": "bytes32"
        }
      ],
      "name": "setTokenName",
      "outputs": [],
      "stateMutability": "nonpayable",
      "type": "function"
    },
    {
      "inputs": [
        {
          "internalType": "address",
          "name": "to",
          "type": "address"
        },
        {
          "internalType": "uint256",
          "name": "tokenId",
          "type": "uint256"
        },
        {
          "internalType": "uint96",
          "name": "value",
          "type": "uint96"
        }
      ],
      "name": "setTokenRoyalty",
      "outputs": [],
      "stateMutability": "nonpayable",
      "type": "function"
    },
    {
      "inputs": [
        {
          "internalType": "address",
          "name": "marketContract",
          "type": "address"
        },
        {
          "internalType": "uint256",
          "name": "tokenId",
          "type": "uint256"
        },
        {
          "internalType": "uint256",
          "name": "_tokenValue",
          "type": "uint256"
        }
      ],
      "name": "setTokenValue",
      "outputs": [],
      "stateMutability": "nonpayable",
      "type": "function"
    },
    {
      "inputs": [
        {
          "internalType": "bytes4",
          "name": "interfaceId",
          "type": "bytes4"
        }
      ],
      "name": "supportsInterface",
      "outputs": [
        {
          "internalType": "bool",
          "name": "",
          "type": "bool"
        }
      ],
      "stateMutability": "view",
      "type": "function"
    },
    {
      "inputs": [],
      "name": "symbol",
      "outputs": [
        {
          "internalType": "string",
          "name": "",
          "type": "string"
        }
      ],
      "stateMutability": "view",
      "type": "function"
    },
    {
      "inputs": [
        {
          "internalType": "uint256",
          "name": "tokenId",
          "type": "uint256"
        }
      ],
      "name": "tokenURI",
      "outputs": [
        {
          "internalType": "string",
          "name": "",
          "type": "string"
        }
      ],
      "stateMutability": "view",
      "type": "function"
    },
    {
      "inputs": [
        {
          "internalType": "address",
          "name": "to",
          "type": "address"
        },
        {
          "internalType": "uint256",
          "name": "tokenId",
          "type": "uint256"
        }
      ],
      "name": "transactionNFA",
      "outputs": [],
      "stateMutability": "payable",
      "type": "function"
    },
    {
      "inputs": [
        {
          "internalType": "address",
          "name": "from",
          "type": "address"
        },
        {
          "internalType": "address",
          "name": "to",
          "type": "address"
        },
        {
          "internalType": "uint256",
          "name": "tokenId",
          "type": "uint256"
        }
      ],
      "name": "transferFrom",
      "outputs": [],
      "stateMutability": "nonpayable",
      "type": "function"
    }
  ],
  "bytecode": "0x60806040523480156200001157600080fd5b506040516200448e3803806200448e833981016040819052620000349162000314565b8151829082906200004d906000906020850190620001b7565b50805162000063906001906020840190620001b7565b505050620000796000336200008160201b60201c565b5050620003e7565b60006200009a60086200014c60201b62001b2b1760201c565b6000818152600960205260408120919250620000f59190856001811115620000c657620000c6620003bb565b6001811115620000da57620000da620003bb565b8152602001908152602001600020836200015060201b60201c565b816001600160a01b0316836001811115620001145762000114620003bb565b6040513381527fcf081ed2b728e3115904be00eb8927b2375ff3401839b37f7accfa1bb2bee15c9060200160405180910390a3505050565b5490565b6001600160a01b038116600090815260208390526040902054620001b3576001828101805491820181556000818152602080822090930180546001600160a01b0319166001600160a01b0386169081179091559154918152918490526040909120555b5050565b828054620001c5906200037e565b90600052602060002090601f016020900481019282620001e9576000855562000234565b82601f106200020457805160ff191683800117855562000234565b8280016001018555821562000234579182015b828111156200023457825182559160200191906001019062000217565b506200024292915062000246565b5090565b5b8082111562000242576000815560010162000247565b600082601f8301126200026f57600080fd5b81516001600160401b03808211156200028c576200028c620003d1565b604051601f8301601f19908116603f01168101908282118183101715620002b757620002b7620003d1565b81604052838152602092508683858801011115620002d457600080fd5b600091505b83821015620002f85785820183015181830184015290820190620002d9565b838211156200030a5760008385830101525b9695505050505050565b600080604083850312156200032857600080fd5b82516001600160401b03808211156200034057600080fd5b6200034e868387016200025d565b935060208501519150808211156200036557600080fd5b5062000374858286016200025d565b9150509250929050565b600181811c908216806200039357607f821691505b60208210811415620003b557634e487b7160e01b600052602260045260246000fd5b50919050565b634e487b7160e01b600052602160045260246000fd5b634e487b7160e01b600052604160045260246000fd5b61409780620003f76000396000f3fe6080604052600436106102305760003560e01c8063651a32b91161012e578063a6a79489116100ab578063ceade7b61161006f578063ceade7b6146106d7578063e833bc99146106f7578063e944725014610717578063e985e9c514610737578063f6aa97bc1461078057600080fd5b8063a6a7948914610644578063b42dbe3814610657578063b88d4fde14610677578063c0f871db14610697578063c87b56dd146106b757600080fd5b806393e2aef4116100f257806393e2aef41461059357806395d89b41146105da5780639cb8a26a146105ef578063a22cb46514610604578063a27d0b271461062457600080fd5b8063651a32b9146104f357806370a08231146105135780637e91fd4d146105335780638a616bc0146105535780638c3c0a441461057357600080fd5b80632a55205a116101bc57806342842e0e1161018057806342842e0e1461045357806342966c68146104735780634e08b9ad146104935780635b88cc33146104b35780636352211e146104d357600080fd5b80632a55205a146103865780632d957aad146103c55780632f1e8f0a146103e5578063353b07a414610412578063421c103b1461043257600080fd5b8063095ea7b311610203578063095ea7b3146102e65780630b63de19146103065780630cb0ee98146103265780631821ddb61461034657806323b872dd1461036657600080fd5b806301468deb1461023557806301ffc9a71461025757806306fdde031461028c578063081812fc146102ae575b600080fd5b34801561024157600080fd5b5061025561025036600461373f565b6107a0565b005b34801561026357600080fd5b5061027761027236600461360f565b6107f7565b60405190151581526020015b60405180910390f35b34801561029857600080fd5b506102a1610808565b6040516102839190613ceb565b3480156102ba57600080fd5b506102ce6102c93660046136b5565b61089a565b6040516001600160a01b039091168152602001610283565b3480156102f257600080fd5b50610255610301366004613566565b61092f565b34801561031257600080fd5b506102556103213660046136ce565b610a45565b34801561033257600080fd5b506102556103413660046135c3565b610acf565b34801561035257600080fd5b5061025561036136600461377b565b610b20565b34801561037257600080fd5b506102556103813660046133e0565b610c1a565b34801561039257600080fd5b506103a66103a13660046136ce565b610c4b565b604080516001600160a01b039093168352602083019190915201610283565b3480156103d157600080fd5b506102556103e0366004613664565b610cf7565b3480156103f157600080fd5b5061040561040036600461371c565b610d3a565b6040516102839190613c9e565b34801561041e57600080fd5b5061040561042d366004613649565b610df4565b6104456104403660046134d4565b610ea7565b604051908152602001610283565b34801561045f57600080fd5b5061025561046e3660046133e0565b610fd9565b34801561047f57600080fd5b5061025561048e3660046136b5565b610ff4565b34801561049f57600080fd5b506102a16104ae366004613680565b6110ac565b3480156104bf57600080fd5b506102556104ce3660046136f0565b6110e8565b3480156104df57600080fd5b506102ce6104ee3660046136b5565b6111d1565b3480156104ff57600080fd5b5061025561050e3660046136ce565b611248565b34801561051f57600080fd5b5061044561052e366004613392565b6112d2565b34801561053f57600080fd5b5061025561054e3660046136b5565b611359565b34801561055f57600080fd5b5061025561056e3660046136b5565b6113fc565b34801561057f57600080fd5b5061025561058e366004613664565b611419565b34801561059f57600080fd5b506105b36105ae3660046136b5565b61145c565b604080516001600160a01b0390931683526001600160601b03909116602083015201610283565b3480156105e657600080fd5b506102a16114e3565b3480156105fb57600080fd5b506102556114f2565b34801561061057600080fd5b5061025561061f366004613498565b61152f565b34801561063057600080fd5b5061025561063f36600461373f565b61153e565b610255610652366004613566565b611585565b34801561066357600080fd5b5061027761067236600461373f565b61168e565b34801561068357600080fd5b5061025561069236600461341c565b611706565b3480156106a357600080fd5b506102556106b2366004613590565b61173e565b3480156106c357600080fd5b506102a16106d23660046136b5565b6117e6565b3480156106e357600080fd5b506102556106f23660046136ce565b61191e565b34801561070357600080fd5b506102556107123660046136ce565b6119a8565b34801561072357600080fd5b50610277610732366004613664565b611a32565b34801561074357600080fd5b506102776107523660046133ad565b6001600160a01b03918216600090815260056020908152604080832093909416825291909152205460ff1690565b34801561078c57600080fd5b5061025561079b3660046136ce565b611aa4565b8260006107ae82823361168e565b806107c057506107c08260003361168e565b6107e55760405162461bcd60e51b81526004016107dc90613d9c565b60405180910390fd5b6107f0858585611b2f565b5050505050565b600061080282611be6565b92915050565b60606000805461081790613f1d565b80601f016020809104026020016040519081016040528092919081815260200182805461084390613f1d565b80156108905780601f1061086557610100808354040283529160200191610890565b820191906000526020600020905b81548152906001019060200180831161087357829003601f168201915b5050505050905090565b6000818152600260205260408120546001600160a01b03166109135760405162461bcd60e51b815260206004820152602c60248201527f4552433732313a20617070726f76656420717565727920666f72206e6f6e657860448201526b34b9ba32b73a103a37b5b2b760a11b60648201526084016107dc565b506000908152600460205260409020546001600160a01b031690565b600061093a826111d1565b9050806001600160a01b0316836001600160a01b031614156109a85760405162461bcd60e51b815260206004820152602160248201527f4552433732313a20617070726f76616c20746f2063757272656e74206f776e656044820152603960f91b60648201526084016107dc565b336001600160a01b03821614806109c457506109c48133610752565b610a365760405162461bcd60e51b815260206004820152603860248201527f4552433732313a20617070726f76652063616c6c6572206973206e6f74206f7760448201527f6e6572206e6f7220617070726f76656420666f7220616c6c000000000000000060648201526084016107dc565b610a408383611c0b565b505050565b816001610a5382823361168e565b80610a655750610a658260003361168e565b610a815760405162461bcd60e51b81526004016107dc90613d9c565b610a8a84611c79565b6000848152600d6020526040808220600201859055513391859187917f56beca52163a4878a45573c784654733c089153c249c88d04179cf0486619e0c91a450505050565b610ad882611c79565b610ae3828483611cad565b60405133906001600160601b0383169084907fd2d934b82422fdab267998d02312dcf3c7873b381190b16d9b839440a3be69c690600090a4505050565b836001610b2e82823361168e565b80610b405750610b408260003361168e565b610b5c5760405162461bcd60e51b81526004016107dc90613d9c565b610b6586611c79565b60408051606081018252868152602080820187905281830186905291519091600091610b979188918a91899101613b4d565b60408051601f1981840301815291815260008a8152600d60209081529190208251929350610bcd92600490910191840190613153565b506040513390610bde90839061391d565b604051908190038120908a907fd46984490a4483750157fda9ad55db9c811edd43baa9a92a390c6904cf1839b290600090a45050505050505050565b610c243382611dbb565b610c405760405162461bcd60e51b81526004016107dc90613e27565b610a40838383611e6d565b60008281526007602090815260408083208151808301909252546001600160a01b038116808352600160a01b9091046001600160601b0316928201929092528291610cc05750604080518082019091526006546001600160a01b0381168252600160a01b90046001600160601b031660208201525b602081015160009061271090610cdf906001600160601b031687613ea4565b610ce99190613e90565b915196919550909350505050565b6000610d038133611a32565b80610d145750610d14600033611a32565b610d305760405162461bcd60e51b81526004016107dc90613ddf565b610a40838361201a565b6000828152600a6020908152604080832054600b83528184208185529092528220606092846001811115610d7057610d70613fb3565b6001811115610d8157610d81613fb3565b8152602001908152602001600020600101805480602002602001604051908101604052809291908181526020018280548015610de657602002820191906000526020600020905b81546001600160a01b03168152600190910190602001808311610dc8575b505050505091505092915050565b60606000610e0160085490565b6000818152600960205260408120919250846001811115610e2457610e24613fb3565b6001811115610e3557610e35613fb3565b8152602001908152602001600020600101805480602002602001604051908101604052809291908181526020018280548015610e9a57602002820191906000526020600020905b81546001600160a01b03168152600190910190602001808311610e7c575b5050505050915050919050565b600080610eb48133611a32565b80610ec55750610ec5600033611a32565b610ee15760405162461bcd60e51b81526004016107dc90613ddf565b6000610eec600c5490565b9050610ef88c826120c7565b610f06600c80546001019055565b60408051606081018252855181526020808701519082015285820151918101919091526000610f34826110ac565b6000848152600d602090815260409091208f8155600181018f9055600281018e9055600381018d9055825192935091610f7591600484019190850190613153565b50600781018a905560058101805460ff19169055600060068201819055600882018190556040805180820182528b815260208082018c8152848052600990950190529120905181559051600191909101555090925050509998505050505050505050565b610a4083838360405180602001604052806000815250611706565b80600061100282823361168e565b8061101457506110148260003361168e565b6110305760405162461bcd60e51b81526004016107dc90613d9c565b6110398361221d565b6000838152600d602052604090206003015415610a40576000838152600d602052604081208181556001810182905560028101829055600381018290559061108460048301826131d7565b5060058101805460ff1916905560006006820181905560078201819055600890910155505050565b606060008260200151836000015184604001516040516020016110d193929190613b4d565b60408051601f198184030181529190529392505050565b8260016110f682823361168e565b8061110857506111088260003361168e565b6111245760405162461bcd60e51b81526004016107dc90613d9c565b61112d85611c79565b60408051808201825285815260208082018690526000888152600d9091529182206008810180549293600990920192829061116790613f58565b91905081905581526020019081526020016000206000820151816000015560208201518160010155905050336001600160a01b031684867fed7b28b5ecc974799322d4f5376aea261ed1ccd62185628e95b17b6792ca5f2260405160405180910390a45050505050565b6000818152600260205260408120546001600160a01b0316806108025760405162461bcd60e51b815260206004820152602960248201527f4552433732313a206f776e657220717565727920666f72206e6f6e657869737460448201526832b73a103a37b5b2b760b91b60648201526084016107dc565b81600161125682823361168e565b8061126857506112688260003361168e565b6112845760405162461bcd60e51b81526004016107dc90613d9c565b61128d84611c79565b6000848152600d6020526040808220600301859055513391859187917f8246714d4dae2e5f5ce6eab4ea05fd29b514c1d68ff8c394c9ab5fa62d8f8f6491a450505050565b60006001600160a01b03821661133d5760405162461bcd60e51b815260206004820152602a60248201527f4552433732313a2062616c616e636520717565727920666f7220746865207a65604482015269726f206164647265737360b01b60648201526084016107dc565b506001600160a01b031660009081526003602052604090205490565b80600161136782823361168e565b8061137957506113798260003361168e565b6113955760405162461bcd60e51b81526004016107dc90613d9c565b61139e83611c79565b6000838152600d6020526040812060068101829055600501805460ff191690556113c8908461092f565b604051339060009085907f937ae5ba1a94a43da1581f1203e85b4fa088d704cfe6d5ab2940b775d5a63dd5908390a4505050565b61140581611c79565b600090815260076020526040812055565b50565b60006114258133611a32565b806114365750611436600033611a32565b6114525760405162461bcd60e51b81526004016107dc90613ddf565b610a4083836122cc565b60008181526007602090815260408083208151808301909252546001600160a01b038116808352600160a01b9091046001600160601b03169282019290925282916114d15750604080518082019091526006546001600160a01b0381168252600160a01b90046001600160601b031660208201525b80516020909101519094909350915050565b60606001805461081790613f1d565b60006114fe8133611a32565b8061150f575061150f600033611a32565b61152b5760405162461bcd60e51b81526004016107dc90613ddf565b3380ff5b61153a33838361234b565b5050565b82600061154c82823361168e565b8061155e575061155e8260003361168e565b61157a5760405162461bcd60e51b81526004016107dc90613d9c565b6107f0858585612412565b6000611590826111d1565b90506001600160a01b0381163314156115a857600080fd5b6001600160a01b0381166115bb57600080fd5b6115c482611c79565b6000828152600d602052604090206006810154348111156115e457600080fd5b600582015460ff1615156001146115fa57600080fd5b611604858561092f565b6040516001600160a01b0384169082156108fc029083906000818181858888f1935050505015801561163a573d6000803e3d6000fd5b50611646838686610fd9565b60006006830181905560058301805460ff191690556040513391839187917f3f9b9a84d6cbcffa546a93b9831489d1db2f59675aabc4541bb5eb820e6fd34b91a45050505050565b6000838152600a6020908152604080832054600b83528184208185529092528220828560018111156116c2576116c2613fb3565b60018111156116d3576116d3613fb3565b8152602080820192909252604090810160009081206001600160a01b038716825290925290205415159150509392505050565b6117103383611dbb565b61172c5760405162461bcd60e51b81526004016107dc90613e27565b6117388484848461249a565b50505050565b81600161174c82823361168e565b8061175e575061175e8260003361168e565b61177a5760405162461bcd60e51b81526004016107dc90613d9c565b61178384611c79565b6000848152600d6020526040902060068101849055600501805460ff191660011790556117b0858561092f565b6040513390849086907f937ae5ba1a94a43da1581f1203e85b4fa088d704cfe6d5ab2940b775d5a63dd590600090a45050505050565b60606117f182611c79565b60006117fc836111d1565b6000848152600d60205260408120919250611816826124cd565b9050600061182383612513565b9050600061183085612551565b9050600061183d85612577565b9050600061184a866125b6565b90506000611857876125ee565b9050600061186488612604565b9050600061187189612664565b9050600061187e8a612683565b905060008989898989898989896040516020016118a39998979695949392919061385c565b60408051601f19818403018152828201909152601d82527f646174613a6170706c69636174696f6e2f6a736f6e3b6261736536342c000000602083015291506118eb8261276d565b6040516020016118fc92919061382d565b6040516020818303038152906040529c50505050505050505050505050919050565b81600161192c82823361168e565b8061193e575061193e8260003361168e565b61195a5760405162461bcd60e51b81526004016107dc90613d9c565b61196384611c79565b6000848152600d6020526040808220600701859055513391859187917fd5429125b40703a245779d97ee0ad59c738e48ec9c8f5e072cd8b154ebb2de4091a450505050565b8160016119b682823361168e565b806119c857506119c88260003361168e565b6119e45760405162461bcd60e51b81526004016107dc90613d9c565b6119ed84611c79565b6000848152600d6020526040808220600101859055513391859187917f40150bd12e3ba3890f3bb4f3888daaf57201691e5594f667fcc93577fb87047e91a450505050565b600080611a3e60085490565b6000818152600960205260408120919250856001811115611a6157611a61613fb3565b6001811115611a7257611a72613fb3565b8152602080820192909252604090810160009081206001600160a01b0387168252909252902054151591505092915050565b816001611ab282823361168e565b80611ac45750611ac48260003361168e565b611ae05760405162461bcd60e51b81526004016107dc90613d9c565b611ae984611c79565b6000848152600d6020526040808220859055513391859187917fac2e4cd831527b70dc6f534e3c6267066f1acca554ed1547e952452af950adca91a450505050565b5490565b6000838152600a6020908152604080832054600b835281842081855290925282209091611b8e9190856001811115611b6957611b69613fb3565b6001811115611b7a57611b7a613fb3565b8152602001908152602001600020836128c1565b816001600160a01b0316836001811115611baa57611baa613fb3565b60405133815286907fe52d746e4c78c98c6bfa291b273406905c3e8550b7d911a6bea686368c2dc79d906020015b60405180910390a450505050565b60006001600160e01b0319821663152a902d60e11b1480610802575061080282612a05565b600081815260046020526040902080546001600160a01b0319166001600160a01b0384169081179091558190611c40826111d1565b6001600160a01b03167f8c5be1e5ebec7d5bd14f71427d1e84f3dd0314c0f7b2291e5b200ac8c7c3b92560405160405180910390a45050565b6000818152600260205260409020546001600160a01b03166114165760405162461bcd60e51b81526004016107dc90613d50565b6127106001600160601b0382161115611d1b5760405162461bcd60e51b815260206004820152602a60248201527f455243323938313a20726f79616c7479206665652077696c6c206578636565646044820152692073616c65507269636560b01b60648201526084016107dc565b6001600160a01b038216611d715760405162461bcd60e51b815260206004820152601b60248201527f455243323938313a20496e76616c696420706172616d6574657273000000000060448201526064016107dc565b6040805180820182526001600160a01b0393841681526001600160601b0392831660208083019182526000968752600790529190942093519051909116600160a01b029116179055565b6000818152600260205260408120546001600160a01b0316611def5760405162461bcd60e51b81526004016107dc90613d50565b6000611dfa836111d1565b9050806001600160a01b0316846001600160a01b03161480611e355750836001600160a01b0316611e2a8461089a565b6001600160a01b0316145b80611e6557506001600160a01b0380821660009081526005602090815260408083209388168352929052205460ff165b949350505050565b826001600160a01b0316611e80826111d1565b6001600160a01b031614611ee45760405162461bcd60e51b815260206004820152602560248201527f4552433732313a207472616e736665722066726f6d20696e636f72726563742060448201526437bbb732b960d91b60648201526084016107dc565b6001600160a01b038216611f465760405162461bcd60e51b8152602060048201526024808201527f4552433732313a207472616e7366657220746f20746865207a65726f206164646044820152637265737360e01b60648201526084016107dc565b611f51838383612a55565b611f5c600082611c0b565b6001600160a01b0383166000908152600360205260408120805460019290611f85908490613ec3565b90915550506001600160a01b0382166000908152600360205260408120805460019290611fb3908490613e78565b909155505060008181526002602052604080822080546001600160a01b0319166001600160a01b0386811691821790925591518493918716917fddf252ad1be2c89b69c2b068fc378daa952ba7f163c4a11628f55a4df523b3ef91a4610a40838383612b68565b600061202560085490565b6000818152600960205260408120919250612072919085600181111561204d5761204d613fb3565b600181111561205e5761205e613fb3565b815260200190815260200160002083612bc8565b816001600160a01b031683600181111561208e5761208e613fb3565b6040513381527fcf081ed2b728e3115904be00eb8927b2375ff3401839b37f7accfa1bb2bee15c906020015b60405180910390a3505050565b6001600160a01b03821661211d5760405162461bcd60e51b815260206004820181905260248201527f4552433732313a206d696e7420746f20746865207a65726f206164647265737360448201526064016107dc565b6000818152600260205260409020546001600160a01b0316156121825760405162461bcd60e51b815260206004820152601c60248201527f4552433732313a20746f6b656e20616c7265616479206d696e7465640000000060448201526064016107dc565b61218e60008383612a55565b6001600160a01b03821660009081526003602052604081208054600192906121b7908490613e78565b909155505060008181526002602052604080822080546001600160a01b0319166001600160a01b03861690811790915590518392907fddf252ad1be2c89b69c2b068fc378daa952ba7f163c4a11628f55a4df523b3ef908290a461153a60008383612b68565b6000612228826111d1565b905061223681600084612a55565b612241600083611c0b565b6001600160a01b038116600090815260036020526040812080546001929061226a908490613ec3565b909155505060008281526002602052604080822080546001600160a01b0319169055518391906001600160a01b038416907fddf252ad1be2c89b69c2b068fc378daa952ba7f163c4a11628f55a4df523b3ef908390a461153a81600084612b68565b60006122d760085490565b60008181526009602052604081209192506122ff9190856001811115611b6957611b69613fb3565b816001600160a01b031683600181111561231b5761231b613fb3565b6040513381527faeff57f0f5e4d3d10a37d4a70fde8ed67a95e67b251d5c512c0ea98c380d2f95906020016120ba565b816001600160a01b0316836001600160a01b031614156123ad5760405162461bcd60e51b815260206004820152601960248201527f4552433732313a20617070726f766520746f2063616c6c65720000000000000060448201526064016107dc565b6001600160a01b03838116600081815260056020908152604080832094871680845294825291829020805460ff191686151590811790915591519182527f17307eab39ab6107e8899845ad3d59bd9653f200f220920489ca2b5937696c3191016120ba565b6000838152600a6020908152604080832054600b83528184208185529092528220909161244c919085600181111561204d5761204d613fb3565b816001600160a01b031683600181111561246857612468613fb3565b60405133815286907f0bf5a13b362503fcc74b8b9b1598aba2f3a9af85d05ba7978f7e9f447f22c23990602001611bd8565b6124a5848484611e6d565b6124b184848484612c2b565b6117385760405162461bcd60e51b81526004016107dc90613cfe565b805460405167113730b6b2911d1160c11b6020820152602881019190915261088b60f21b6048820152606090604a015b6040516020818303038152906040529050919050565b60018101546040516e113232b9b1b934b83a34b7b7111d1160891b6020820152602f81019190915261088b60f21b604f8201526060906051016124fd565b6060612567826001600160a01b03166014612d38565b6040516020016124fd9190613b28565b60038101546040516f1132bc3a32b93730b62fbab936111d1160811b6020820152603081019190915261088b60f21b60508201526060906052016124fd565b6002810154604051681134b6b0b3b2911d1160b91b6020820152602981019190915261088b60f21b6049820152606090604b016124fd565b6060816004016040516020016124fd91906139d6565b600581015460609060ff16612636576040518060400160405280600581526020016466616c736560d81b815250612654565b604051806040016040528060048152602001637472756560e01b8152505b6040516020016124fd9190613996565b60606126738260060154612edb565b6040516020016124fd9190613aa7565b6040805160008152602081019091526060908061269f84612fd9565b6040516020016126b092919061382d565b6040516020818303038152906040529050806126cb84613026565b6040516020016126dc92919061382d565b6040516020818303038152906040529050806126f78461309d565b60405160200161270892919061382d565b60405160208183030381529060405290508061272384613113565b60405160200161273492919061382d565b6040516020818303038152906040529050806040516020016127569190613ae5565b604051602081830303815290604052915050919050565b606081516000141561278d57505060408051602081019091526000815290565b600060405180606001604052806040815260200161402260409139905060006003845160026127bc9190613e78565b6127c69190613e90565b6127d1906004613ea4565b67ffffffffffffffff8111156127e9576127e9613ff5565b6040519080825280601f01601f191660200182016040528015612813576020820181803683370190505b509050600182016020820185865187015b8082101561287f576003820191508151603f8160121c168501518453600184019350603f81600c1c168501518453600184019350603f8160061c168501518453600184019350603f8116850151845350600183019250612824565b505060038651066001811461289b57600281146128ae576128b6565b603d6001830353603d60028303536128b6565b603d60018303535b509195945050505050565b6001600160a01b0381166000908152602083905260409020541561153a576001600160a01b03811660009081526020839052604081205461290490600190613ec3565b60018481015491925060009161291a9190613ec3565b9050600084600101828154811061293357612933613fdf565b6000918252602090912001546001860180546001600160a01b03909216925082918590811061296457612964613fdf565b600091825260209091200180546001600160a01b0319166001600160a01b0392909216919091179055612998836001613e78565b6001600160a01b038216600090815260208790526040902055600185018054806129c4576129c4613fc9565b60008281526020808220830160001990810180546001600160a01b03191690559092019092556001600160a01b038616825286905260408120555050505050565b60006001600160e01b031982166380ac58cd60e01b1480612a3657506001600160e01b03198216635b5e139f60e01b145b8061080257506301ffc9a760e01b6001600160e01b0319831614610802565b6001600160a01b03831615801590612a7557506001600160a01b03821615155b15612a8957612a848183613132565b612ac7565b6001600160a01b038316612aa357612a8481600084612412565b6001600160a01b038216612ac7576000818152600a60205260409020805460010190555b6000818152600d60205260408120600601549080612ae58484610c4b565b90925090508015612b60576040516001600160a01b0383169082156108fc029083906000818181858888f19350505050158015612b26573d6000803e3d6000fd5b50856001600160a01b031681857f40ddb618d352ad261434216e52c90ac449fcfb2c8a783a79bf2a19fe98f6377e60405160405180910390a45b505050505050565b6000818152600d60205260408120600681018054929055600501805460ff19169055836001600160a01b031681837f3f9b9a84d6cbcffa546a93b9831489d1db2f59675aabc4541bb5eb820e6fd34b60405160405180910390a450505050565b6001600160a01b03811660009081526020839052604090205461153a576001828101805491820181556000818152602080822090930180546001600160a01b0319166001600160a01b039590951694851790559054928152929052604090912055565b60006001600160a01b0384163b15612d2d57604051630a85bd0160e11b81526001600160a01b0385169063150b7a0290612c6f903390899088908890600401613c61565b602060405180830381600087803b158015612c8957600080fd5b505af1925050508015612cb9575060408051601f3d908101601f19168201909252612cb69181019061362c565b60015b612d13573d808015612ce7576040519150601f19603f3d011682016040523d82523d6000602084013e612cec565b606091505b508051612d0b5760405162461bcd60e51b81526004016107dc90613cfe565b805181602001fd5b6001600160e01b031916630a85bd0160e11b149050611e65565b506001949350505050565b60606000612d47836002613ea4565b612d52906002613e78565b67ffffffffffffffff811115612d6a57612d6a613ff5565b6040519080825280601f01601f191660200182016040528015612d94576020820181803683370190505b509050600360fc1b81600081518110612daf57612daf613fdf565b60200101906001600160f81b031916908160001a905350600f60fb1b81600181518110612dde57612dde613fdf565b60200101906001600160f81b031916908160001a9053506000612e02846002613ea4565b612e0d906001613e78565b90505b6001811115612e85576f181899199a1a9b1b9c1cb0b131b232b360811b85600f1660108110612e4157612e41613fdf565b1a60f81b828281518110612e5757612e57613fdf565b60200101906001600160f81b031916908160001a90535060049490941c93612e7e81613f06565b9050612e10565b508315612ed45760405162461bcd60e51b815260206004820181905260248201527f537472696e67733a20686578206c656e67746820696e73756666696369656e7460448201526064016107dc565b9392505050565b606081612eff5750506040805180820190915260018152600360fc1b602082015290565b8160005b8115612f295780612f1381613f58565b9150612f229050600a83613e90565b9150612f03565b60008167ffffffffffffffff811115612f4457612f44613ff5565b6040519080825280601f01601f191660200182016040528015612f6e576020820181803683370190505b5090505b8415611e6557612f83600183613ec3565b9150612f90600a86613f73565b612f9b906030613e78565b60f81b818381518110612fb057612fb0613fdf565b60200101906001600160f81b031916908160001a905350612fd2600a86613e90565b9450612f72565b60078101546040517f7b2274726169745f74797065223a2022454e53222c202276616c7565223a22006020820152603f81019190915262089f4b60ea1b605f8201526060906062016124fd565b606081600901600083600801548152602001908152602001600020600001546040516020016124fd91907f7b2274726169745f74797065223a2022436f6d6d69742048617368222c20227681526630b63ab2911d1160c91b6020820152602781019190915262089f4b60ea1b6047820152604a0190565b606081600901600083600801548152602001908152602001600020600101546040516020016124fd91907f7b2274726169745f74797065223a20225265706f7369746f7279222c20227661815265363ab2911d1160d11b6020820152602681019190915262089f4b60ea1b604682015260490190565b60606131228260080154612edb565b6040516020016124fd9190613939565b6000828152600a602052604090208054600101905561153a82600083612412565b82805461315f90613f1d565b90600052602060002090601f01602090048101928261318157600085556131c7565b82601f1061319a57805160ff19168380011785556131c7565b828001600101855582156131c7579182015b828111156131c75782518255916020019190600101906131ac565b506131d392915061320d565b5090565b5080546131e390613f1d565b6000825580601f106131f3575050565b601f01602090049060005260206000209081019061141691905b5b808211156131d3576000815560010161320e565b600067ffffffffffffffff8084111561323d5761323d613ff5565b604051601f8501601f19908116603f0116810190828211818310171561326557613265613ff5565b8160405280935085815286868601111561327e57600080fd5b858560208301376000602087830101525050509392505050565b80356001600160a01b03811681146132af57600080fd5b919050565b8035600281106132af57600080fd5b600082601f8301126132d457600080fd5b612ed483833560208501613222565b6000606082840312156132f557600080fd5b6040516060810167ffffffffffffffff828210818311171561331957613319613ff5565b81604052829350843591508082111561333157600080fd5b61333d868387016132c3565b8352602085013591508082111561335357600080fd5b61335f868387016132c3565b6020840152604085013591508082111561337857600080fd5b50613385858286016132c3565b6040830152505092915050565b6000602082840312156133a457600080fd5b612ed482613298565b600080604083850312156133c057600080fd5b6133c983613298565b91506133d760208401613298565b90509250929050565b6000806000606084860312156133f557600080fd5b6133fe84613298565b925061340c60208501613298565b9150604084013590509250925092565b6000806000806080858703121561343257600080fd5b61343b85613298565b935061344960208601613298565b925060408501359150606085013567ffffffffffffffff81111561346c57600080fd5b8501601f8101871361347d57600080fd5b61348c87823560208401613222565b91505092959194509250565b600080604083850312156134ab57600080fd5b6134b483613298565b9150602083013580151581146134c957600080fd5b809150509250929050565b60008060008060008060008060006101208a8c0312156134f357600080fd5b6134fc8a613298565b985060208a0135975060408a0135965060608a0135955060808a0135945060a08a0135935060c08a0135925060e08a013591506101008a013567ffffffffffffffff81111561354a57600080fd5b6135568c828d016132e3565b9150509295985092959850929598565b6000806040838503121561357957600080fd5b61358283613298565b946020939093013593505050565b6000806000606084860312156135a557600080fd5b6135ae84613298565b95602085013595506040909401359392505050565b6000806000606084860312156135d857600080fd5b6135e184613298565b92506020840135915060408401356001600160601b038116811461360457600080fd5b809150509250925092565b60006020828403121561362157600080fd5b8135612ed48161400b565b60006020828403121561363e57600080fd5b8151612ed48161400b565b60006020828403121561365b57600080fd5b612ed4826132b4565b6000806040838503121561367757600080fd5b6133c9836132b4565b60006020828403121561369257600080fd5b813567ffffffffffffffff8111156136a957600080fd5b611e65848285016132e3565b6000602082840312156136c757600080fd5b5035919050565b600080604083850312156136e157600080fd5b50508035926020909101359150565b60008060006060848603121561370557600080fd5b505081359360208301359350604090920135919050565b6000806040838503121561372f57600080fd5b823591506133d7602084016132b4565b60008060006060848603121561375457600080fd5b83359250613764602085016132b4565b915061377260408501613298565b90509250925092565b6000806000806080858703121561379157600080fd5b84359350602085013567ffffffffffffffff808211156137b057600080fd5b6137bc888389016132c3565b945060408701359150808211156137d257600080fd5b6137de888389016132c3565b935060608701359150808211156137f457600080fd5b5061348c878288016132c3565b60008151808452613819816020860160208601613eda565b601f01601f19169290920160200192915050565b6000835161383f818460208801613eda565b835190830190613853818360208801613eda565b01949350505050565b60008a5161386e818460208f01613eda565b8a516138808183860160208f01613eda565b8a519184010190613895818360208e01613eda565b89516138a78183850160208e01613eda565b89519290910101906138bd818360208c01613eda565b87516138cf8183850160208c01613eda565b87519290910101906138e5818360208a01613eda565b85516138f78183850160208a01613eda565b855192909101019061390d818360208801613eda565b019b9a5050505050505050505050565b6000825161392f818460208701613eda565b9190910192915050565b7f7b2274726169745f74797065223a202256657273696f6e222c202276616c7565815262111d1160e91b60208201526000825161397d816023850160208701613eda565b61227d60f01b6023939091019283015250602501919050565b6a1137b72fb9b0b632911d1160a91b815281516000906139bd81600b850160208701613eda565b61088b60f21b600b939091019283015250600d01919050565b701130b734b6b0ba34b7b72fbab936111d1160791b815281546000906011908290600181811c9080831680613a0c57607f831692505b6020808410821415613a2c57634e487b7160e01b86526022600452602486fd5b818015613a405760018114613a5557613a86565b60ff1986168a890152848a0188019650613a86565b60008b81526020902060005b86811015613a7c5781548c82018b0152908501908301613a61565b505087858b010196505b505050505050613a9e8161088b60f21b815260020190565b95945050505050565b68113b30b63ab2911d1160b91b81528151600090613acc816009850160208701613eda565b61088b60f21b6009939091019283015250600b01919050565b6e2261747472696275746573223a205b60881b81528151600090613b1081600f850160208701613eda565b605d60f81b600f939091019283015250601001919050565b681137bbb732b9111d1160b91b81528151600090613acc816009850160208701613eda565b741e10a227a1aa2ca82290343a36b61f1e343a36b61f60591b8152651e3432b0b21f60d11b6015820152661e39ba3cb6329f60c91b601b82015260008451613b9c816022850160208901613eda565b671e17b9ba3cb6329f60c11b602291840191820152661e17b432b0b21f60c91b602a820152651e3137b23c9f60d11b60318201528451613be3816037840160208901613eda565b671e39b1b934b83a1f60c11b603792909101918201528351613c0c81603f840160208801613eda565b613c56613c43613c30603f84860101681e17b9b1b934b83a1f60b91b815260090190565b661e17b137b23c9f60c91b815260070190565b661e17b43a36b61f60c91b815260070190565b979650505050505050565b6001600160a01b0385811682528416602082015260408101839052608060608201819052600090613c9490830184613801565b9695505050505050565b6020808252825182820181905260009190848201906040850190845b81811015613cdf5783516001600160a01b031683529284019291840191600101613cba565b50909695505050505050565b602081526000612ed46020830184613801565b60208082526032908201527f4552433732313a207472616e7366657220746f206e6f6e20455243373231526560408201527131b2b4bb32b91034b6b83632b6b2b73a32b960711b606082015260800190565b6020808252602c908201527f4552433732313a206f70657261746f7220717565727920666f72206e6f6e657860408201526b34b9ba32b73a103a37b5b2b760a11b606082015260800190565b60208082526023908201527f416363657373436f6e74726f6c3a206d757374206861766520746f6b656e20726040820152626f6c6560e81b606082015260800190565b60208082526028908201527f416363657373436f6e74726f6c3a206d757374206861766520636f6c6c656374604082015267696f6e20726f6c6560c01b606082015260800190565b60208082526031908201527f4552433732313a207472616e736665722063616c6c6572206973206e6f74206f6040820152701ddb995c881b9bdc88185c1c1c9bdd9959607a1b606082015260800190565b60008219821115613e8b57613e8b613f87565b500190565b600082613e9f57613e9f613f9d565b500490565b6000816000190483118215151615613ebe57613ebe613f87565b500290565b600082821015613ed557613ed5613f87565b500390565b60005b83811015613ef5578181015183820152602001613edd565b838111156117385750506000910152565b600081613f1557613f15613f87565b506000190190565b600181811c90821680613f3157607f821691505b60208210811415613f5257634e487b7160e01b600052602260045260246000fd5b50919050565b6000600019821415613f6c57613f6c613f87565b5060010190565b600082613f8257613f82613f9d565b500690565b634e487b7160e01b600052601160045260246000fd5b634e487b7160e01b600052601260045260246000fd5b634e487b7160e01b600052602160045260246000fd5b634e487b7160e01b600052603160045260246000fd5b634e487b7160e01b600052603260045260246000fd5b634e487b7160e01b600052604160045260246000fd5b6001600160e01b03198116811461141657600080fdfe4142434445464748494a4b4c4d4e4f505152535455565758595a6162636465666768696a6b6c6d6e6f707172737475767778797a303132333435363738392b2fa26469706673582212208fa185698eed3165736d8243d29468119c3920b9bbb16fc203d6f13de6f8887c64736f6c63430008070033",
  "linkReferences": {},
  "deployedLinkReferences": {}
}