{
  "_format": "hh-sol-artifact-1",
  "contractName": "PhimoNFA",
  "sourceName": "contracts/PhimoNFA.sol",
  "abi": [
    {
      "inputs": [
        {
          "internalType": "string",
          "name": "_name",
          "type": "string"
        },
        {
          "internalType": "string",
          "name": "_symbol",
          "type": "string"
        }
      ],
      "stateMutability": "nonpayable",
      "type": "constructor"
    },
    {
      "anonymous": false,
      "inputs": [
        {
          "indexed": true,
          "internalType": "address",
          "name": "owner",
          "type": "address"
        },
        {
          "indexed": true,
          "internalType": "address",
          "name": "approved",
          "type": "address"
        },
        {
          "indexed": true,
          "internalType": "uint256",
          "name": "tokenId",
          "type": "uint256"
        }
      ],
      "name": "Approval",
      "type": "event"
    },
    {
      "anonymous": false,
      "inputs": [
        {
          "indexed": true,
          "internalType": "address",
          "name": "owner",
          "type": "address"
        },
        {
          "indexed": true,
          "internalType": "address",
          "name": "operator",
          "type": "address"
        },
        {
          "indexed": false,
          "internalType": "bool",
          "name": "approved",
          "type": "bool"
        }
      ],
      "name": "ApprovalForAll",
      "type": "event"
    },
    {
      "anonymous": false,
      "inputs": [
        {
          "indexed": true,
          "internalType": "enum AccessControl.Roles",
          "name": "role",
          "type": "uint8"
        },
        {
          "indexed": true,
          "internalType": "address",
          "name": "toAddress",
          "type": "address"
        },
        {
          "indexed": false,
          "internalType": "address",
          "name": "byAddress",
          "type": "address"
        }
      ],
      "name": "CollectionRoleGranted",
      "type": "event"
    },
    {
      "anonymous": false,
      "inputs": [
        {
          "indexed": true,
          "internalType": "enum AccessControl.Roles",
          "name": "role",
          "type": "uint8"
        },
        {
          "indexed": true,
          "internalType": "address",
          "name": "toAddress",
          "type": "address"
        },
        {
          "indexed": false,
          "internalType": "address",
          "name": "byAddress",
          "type": "address"
        }
      ],
      "name": "CollectionRoleRevoked",
      "type": "event"
    },
    {
      "anonymous": false,
      "inputs": [
        {
          "indexed": true,
          "internalType": "uint256",
          "name": "token",
          "type": "uint256"
        },
        {
          "indexed": true,
          "internalType": "string",
          "name": "commitHash",
          "type": "string"
        },
        {
          "indexed": true,
          "internalType": "address",
          "name": "triggeredBy",
          "type": "address"
        }
      ],
      "name": "NewBuild",
      "type": "event"
    },
    {
      "anonymous": false,
      "inputs": [
        {
          "indexed": true,
          "internalType": "uint256",
          "name": "token",
          "type": "uint256"
        },
        {
          "indexed": true,
          "internalType": "uint256",
          "name": "royalty",
          "type": "uint256"
        },
        {
          "indexed": true,
          "internalType": "address",
          "name": "triggeredBy",
          "type": "address"
        }
      ],
      "name": "NewRoyaltySet",
      "type": "event"
    },
    {
      "anonymous": false,
      "inputs": [
        {
          "indexed": true,
          "internalType": "uint256",
          "name": "token",
          "type": "uint256"
        },
        {
          "indexed": true,
          "internalType": "string",
          "name": "animation",
          "type": "string"
        },
        {
          "indexed": true,
          "internalType": "address",
          "name": "triggeredBy",
          "type": "address"
        }
      ],
      "name": "NewTokenAnimation",
      "type": "event"
    },
    {
      "anonymous": false,
      "inputs": [
        {
          "indexed": true,
          "internalType": "uint256",
          "name": "token",
          "type": "uint256"
        },
        {
          "indexed": true,
          "internalType": "string",
          "name": "description",
          "type": "string"
        },
        {
          "indexed": true,
          "internalType": "address",
          "name": "triggeredBy",
          "type": "address"
        }
      ],
      "name": "NewTokenDescription",
      "type": "event"
    },
    {
      "anonymous": false,
      "inputs": [
        {
          "indexed": true,
          "internalType": "uint256",
          "name": "token",
          "type": "uint256"
        },
        {
          "indexed": true,
          "internalType": "string",
          "name": "ENS",
          "type": "string"
        },
        {
          "indexed": true,
          "internalType": "address",
          "name": "triggeredBy",
          "type": "address"
        }
      ],
      "name": "NewTokenENS",
      "type": "event"
    },
    {
      "anonymous": false,
      "inputs": [
        {
          "indexed": true,
          "internalType": "uint256",
          "name": "token",
          "type": "uint256"
        },
        {
          "indexed": true,
          "internalType": "string",
          "name": "externalURL",
          "type": "string"
        },
        {
          "indexed": true,
          "internalType": "address",
          "name": "triggeredBy",
          "type": "address"
        }
      ],
      "name": "NewTokenExternalURL",
      "type": "event"
    },
    {
      "anonymous": false,
      "inputs": [
        {
          "indexed": true,
          "internalType": "uint256",
          "name": "token",
          "type": "uint256"
        },
        {
          "indexed": true,
          "internalType": "string",
          "name": "image",
          "type": "string"
        },
        {
          "indexed": true,
          "internalType": "address",
          "name": "triggeredBy",
          "type": "address"
        }
      ],
      "name": "NewTokenImage",
      "type": "event"
    },
    {
      "anonymous": false,
      "inputs": [
        {
          "indexed": true,
          "internalType": "uint256",
          "name": "token",
          "type": "uint256"
        },
        {
          "indexed": true,
          "internalType": "string",
          "name": "name",
          "type": "string"
        },
        {
          "indexed": true,
          "internalType": "address",
          "name": "triggeredBy",
          "type": "address"
        }
      ],
      "name": "NewTokenName",
      "type": "event"
    },
    {
      "anonymous": false,
      "inputs": [
        {
          "indexed": true,
          "internalType": "uint256",
          "name": "token",
          "type": "uint256"
        },
        {
          "indexed": true,
          "internalType": "uint256",
          "name": "value",
          "type": "uint256"
        },
        {
          "indexed": true,
          "internalType": "address",
          "name": "triggeredBy",
          "type": "address"
        }
      ],
      "name": "NewTokenValue",
      "type": "event"
    },
    {
      "anonymous": false,
      "inputs": [
        {
          "indexed": true,
          "internalType": "uint256",
          "name": "token",
          "type": "uint256"
        },
        {
          "indexed": true,
          "internalType": "uint256",
          "name": "value",
          "type": "uint256"
        },
        {
          "indexed": true,
          "internalType": "address",
          "name": "triggeredBy",
          "type": "address"
        }
      ],
      "name": "RoyaltySent",
      "type": "event"
    },
    {
      "anonymous": false,
      "inputs": [
        {
          "indexed": true,
          "internalType": "uint256",
          "name": "tokenId",
          "type": "uint256"
        },
        {
          "indexed": true,
          "internalType": "enum AccessControl.Roles",
          "name": "role",
          "type": "uint8"
        },
        {
          "indexed": true,
          "internalType": "address",
          "name": "toAddress",
          "type": "address"
        },
        {
          "indexed": false,
          "internalType": "address",
          "name": "byAddress",
          "type": "address"
        }
      ],
      "name": "TokenRoleGranted",
      "type": "event"
    },
    {
      "anonymous": false,
      "inputs": [
        {
          "indexed": true,
          "internalType": "uint256",
          "name": "tokenId",
          "type": "uint256"
        },
        {
          "indexed": true,
          "internalType": "enum AccessControl.Roles",
          "name": "role",
          "type": "uint8"
        },
        {
          "indexed": true,
          "internalType": "address",
          "name": "toAddress",
          "type": "address"
        },
        {
          "indexed": false,
          "internalType": "address",
          "name": "byAddress",
          "type": "address"
        }
      ],
      "name": "TokenRoleRevoked",
      "type": "event"
    },
    {
      "anonymous": false,
      "inputs": [
        {
          "indexed": true,
          "internalType": "uint256",
          "name": "token",
          "type": "uint256"
        },
        {
          "indexed": true,
          "internalType": "uint256",
          "name": "value",
          "type": "uint256"
        },
        {
          "indexed": true,
          "internalType": "address",
          "name": "triggeredBy",
          "type": "address"
        }
      ],
      "name": "TokenTransfer",
      "type": "event"
    },
    {
      "anonymous": false,
      "inputs": [
        {
          "indexed": true,
          "internalType": "address",
          "name": "from",
          "type": "address"
        },
        {
          "indexed": true,
          "internalType": "address",
          "name": "to",
          "type": "address"
        },
        {
          "indexed": true,
          "internalType": "uint256",
          "name": "tokenId",
          "type": "uint256"
        }
      ],
      "name": "Transfer",
      "type": "event"
    },
    {
      "inputs": [
        {
          "internalType": "uint256",
          "name": "tokenId",
          "type": "uint256"
        }
      ],
      "name": "_getTokenRoyalty",
      "outputs": [
        {
          "internalType": "address",
          "name": "",
          "type": "address"
        },
        {
          "internalType": "uint96",
          "name": "",
          "type": "uint96"
        }
      ],
      "stateMutability": "view",
      "type": "function"
    },
    {
      "inputs": [
        {
          "internalType": "address",
          "name": "to",
          "type": "address"
        },
        {
          "internalType": "uint256",
          "name": "tokenId",
          "type": "uint256"
        }
      ],
      "name": "approve",
      "outputs": [],
      "stateMutability": "nonpayable",
      "type": "function"
    },
    {
      "inputs": [
        {
          "internalType": "address",
          "name": "owner",
          "type": "address"
        }
      ],
      "name": "balanceOf",
      "outputs": [
        {
          "internalType": "uint256",
          "name": "",
          "type": "uint256"
        }
      ],
      "stateMutability": "view",
      "type": "function"
    },
    {
      "inputs": [
        {
          "internalType": "uint256",
          "name": "tokenId",
          "type": "uint256"
        }
      ],
      "name": "burn",
      "outputs": [],
      "stateMutability": "nonpayable",
      "type": "function"
    },
    {
      "inputs": [
        {
          "internalType": "uint256",
          "name": "tokenId",
          "type": "uint256"
        }
      ],
      "name": "getApproved",
      "outputs": [
        {
          "internalType": "address",
          "name": "",
          "type": "address"
        }
      ],
      "stateMutability": "view",
      "type": "function"
    },
    {
      "inputs": [
        {
          "internalType": "enum AccessControl.Roles",
          "name": "role",
          "type": "uint8"
        }
      ],
      "name": "getCollectionRoleMembers",
      "outputs": [
        {
          "internalType": "address[]",
          "name": "",
          "type": "address[]"
        }
      ],
      "stateMutability": "view",
      "type": "function"
    },
    {
      "inputs": [
        {
          "internalType": "uint256",
          "name": "tokenId",
          "type": "uint256"
        },
        {
          "internalType": "enum AccessControl.Roles",
          "name": "role",
          "type": "uint8"
        }
      ],
      "name": "getTokenRoleMembers",
      "outputs": [
        {
          "internalType": "address[]",
          "name": "",
          "type": "address[]"
        }
      ],
      "stateMutability": "view",
      "type": "function"
    },
    {
      "inputs": [
        {
          "internalType": "enum AccessControl.Roles",
          "name": "role",
          "type": "uint8"
        },
        {
          "internalType": "address",
          "name": "account",
          "type": "address"
        }
      ],
      "name": "grantCollectionRole",
      "outputs": [],
      "stateMutability": "nonpayable",
      "type": "function"
    },
    {
      "inputs": [
        {
          "internalType": "uint256",
          "name": "tokenId",
          "type": "uint256"
        },
        {
          "internalType": "enum AccessControl.Roles",
          "name": "role",
          "type": "uint8"
        },
        {
          "internalType": "address",
          "name": "account",
          "type": "address"
        }
      ],
      "name": "grantTokenRole",
      "outputs": [],
      "stateMutability": "nonpayable",
      "type": "function"
    },
    {
      "inputs": [
        {
          "internalType": "enum AccessControl.Roles",
          "name": "role",
          "type": "uint8"
        },
        {
          "internalType": "address",
          "name": "account",
          "type": "address"
        }
      ],
      "name": "hasCollectionRole",
      "outputs": [
        {
          "internalType": "bool",
          "name": "",
          "type": "bool"
        }
      ],
      "stateMutability": "view",
      "type": "function"
    },
    {
      "inputs": [
        {
          "internalType": "uint256",
          "name": "tokenId",
          "type": "uint256"
        },
        {
          "internalType": "enum AccessControl.Roles",
          "name": "role",
          "type": "uint8"
        },
        {
          "internalType": "address",
          "name": "account",
          "type": "address"
        }
      ],
      "name": "hasTokenRole",
      "outputs": [
        {
          "internalType": "bool",
          "name": "",
          "type": "bool"
        }
      ],
      "stateMutability": "view",
      "type": "function"
    },
    {
      "inputs": [
        {
          "internalType": "address",
          "name": "owner",
          "type": "address"
        },
        {
          "internalType": "address",
          "name": "operator",
          "type": "address"
        }
      ],
      "name": "isApprovedForAll",
      "outputs": [
        {
          "internalType": "bool",
          "name": "",
          "type": "bool"
        }
      ],
      "stateMutability": "view",
      "type": "function"
    },
    {
      "inputs": [
        {
          "internalType": "address",
          "name": "to",
          "type": "address"
        },
        {
          "internalType": "string",
          "name": "name",
          "type": "string"
        },
        {
          "internalType": "string",
          "name": "description",
          "type": "string"
        },
        {
          "internalType": "string",
          "name": "image",
          "type": "string"
        },
        {
          "internalType": "string",
          "name": "externalURL",
          "type": "string"
        },
        {
          "internalType": "string",
          "name": "ENS",
          "type": "string"
        },
        {
          "internalType": "string",
          "name": "commitHash",
          "type": "string"
        },
        {
          "internalType": "string",
          "name": "gitRepository",
          "type": "string"
        },
        {
          "components": [
            {
              "internalType": "string",
              "name": "html",
              "type": "string"
            },
            {
              "internalType": "string",
              "name": "css",
              "type": "string"
            },
            {
              "internalType": "string",
              "name": "js",
              "type": "string"
            }
          ],
          "internalType": "struct PhimoNFA.Animation",
          "name": "animation",
          "type": "tuple"
        }
      ],
      "name": "mint",
      "outputs": [
        {
          "internalType": "uint256",
          "name": "",
          "type": "uint256"
        }
      ],
      "stateMutability": "payable",
      "type": "function"
    },
    {
      "inputs": [],
      "name": "name",
      "outputs": [
        {
          "internalType": "string",
          "name": "",
          "type": "string"
        }
      ],
      "stateMutability": "view",
      "type": "function"
    },
    {
      "inputs": [
        {
          "internalType": "uint256",
          "name": "tokenId",
          "type": "uint256"
        }
      ],
      "name": "ownerOf",
      "outputs": [
        {
          "internalType": "address",
          "name": "",
          "type": "address"
        }
      ],
      "stateMutability": "view",
      "type": "function"
    },
    {
      "inputs": [
        {
          "components": [
            {
              "internalType": "string",
              "name": "html",
              "type": "string"
            },
            {
              "internalType": "string",
              "name": "css",
              "type": "string"
            },
            {
              "internalType": "string",
              "name": "js",
              "type": "string"
            }
          ],
          "internalType": "struct PhimoNFA.Animation",
          "name": "animation",
          "type": "tuple"
        }
      ],
      "name": "parseAnimation",
      "outputs": [
        {
          "internalType": "string",
          "name": "",
          "type": "string"
        }
      ],
      "stateMutability": "pure",
      "type": "function"
    },
    {
      "inputs": [
        {
          "internalType": "uint256",
          "name": "tokenId",
          "type": "uint256"
        }
      ],
      "name": "removeTokenValue",
      "outputs": [],
      "stateMutability": "nonpayable",
      "type": "function"
    },
    {
      "inputs": [
        {
          "internalType": "uint256",
          "name": "tokenId",
          "type": "uint256"
        }
      ],
      "name": "resetTokenRoyalty",
      "outputs": [],
      "stateMutability": "nonpayable",
      "type": "function"
    },
    {
      "inputs": [
        {
          "internalType": "enum AccessControl.Roles",
          "name": "role",
          "type": "uint8"
        },
        {
          "internalType": "address",
          "name": "account",
          "type": "address"
        }
      ],
      "name": "revokeCollectionRole",
      "outputs": [],
      "stateMutability": "nonpayable",
      "type": "function"
    },
    {
      "inputs": [
        {
          "internalType": "uint256",
          "name": "tokenId",
          "type": "uint256"
        },
        {
          "internalType": "enum AccessControl.Roles",
          "name": "role",
          "type": "uint8"
        },
        {
          "internalType": "address",
          "name": "account",
          "type": "address"
        }
      ],
      "name": "revokeTokenRole",
      "outputs": [],
      "stateMutability": "nonpayable",
      "type": "function"
    },
    {
      "inputs": [
        {
          "internalType": "uint256",
          "name": "tokenId",
          "type": "uint256"
        },
        {
          "internalType": "uint256",
          "name": "salePrice",
          "type": "uint256"
        }
      ],
      "name": "royaltyInfo",
      "outputs": [
        {
          "internalType": "address",
          "name": "",
          "type": "address"
        },
        {
          "internalType": "uint256",
          "name": "",
          "type": "uint256"
        }
      ],
      "stateMutability": "view",
      "type": "function"
    },
    {
      "inputs": [
        {
          "internalType": "address",
          "name": "from",
          "type": "address"
        },
        {
          "internalType": "address",
          "name": "to",
          "type": "address"
        },
        {
          "internalType": "uint256",
          "name": "tokenId",
          "type": "uint256"
        }
      ],
      "name": "safeTransferFrom",
      "outputs": [],
      "stateMutability": "nonpayable",
      "type": "function"
    },
    {
      "inputs": [
        {
          "internalType": "address",
          "name": "from",
          "type": "address"
        },
        {
          "internalType": "address",
          "name": "to",
          "type": "address"
        },
        {
          "internalType": "uint256",
          "name": "tokenId",
          "type": "uint256"
        },
        {
          "internalType": "bytes",
          "name": "_data",
          "type": "bytes"
        }
      ],
      "name": "safeTransferFrom",
      "outputs": [],
      "stateMutability": "nonpayable",
      "type": "function"
    },
    {
      "inputs": [],
      "name": "selfDestruct",
      "outputs": [],
      "stateMutability": "nonpayable",
      "type": "function"
    },
    {
      "inputs": [
        {
          "internalType": "address",
          "name": "operator",
          "type": "address"
        },
        {
          "internalType": "bool",
          "name": "approved",
          "type": "bool"
        }
      ],
      "name": "setApprovalForAll",
      "outputs": [],
      "stateMutability": "nonpayable",
      "type": "function"
    },
    {
      "inputs": [
        {
          "internalType": "uint256",
          "name": "tokenId",
          "type": "uint256"
        },
        {
          "internalType": "string",
          "name": "html",
          "type": "string"
        },
        {
          "internalType": "string",
          "name": "css",
          "type": "string"
        },
        {
          "internalType": "string",
          "name": "js",
          "type": "string"
        }
      ],
      "name": "setTokenAnimation",
      "outputs": [],
      "stateMutability": "nonpayable",
      "type": "function"
    },
    {
      "inputs": [
        {
          "internalType": "uint256",
          "name": "tokenId",
          "type": "uint256"
        },
        {
          "internalType": "string",
          "name": "_commitHash",
          "type": "string"
        },
        {
          "internalType": "string",
          "name": "_gitRepository",
          "type": "string"
        }
      ],
      "name": "setTokenBuild",
      "outputs": [],
      "stateMutability": "nonpayable",
      "type": "function"
    },
    {
      "inputs": [
        {
          "internalType": "uint256",
          "name": "tokenId",
          "type": "uint256"
        },
        {
          "internalType": "string",
          "name": "_tokenDescription",
          "type": "string"
        }
      ],
      "name": "setTokenDescription",
      "outputs": [],
      "stateMutability": "nonpayable",
      "type": "function"
    },
    {
      "inputs": [
        {
          "internalType": "uint256",
          "name": "tokenId",
          "type": "uint256"
        },
        {
          "internalType": "string",
          "name": "_tokenENS",
          "type": "string"
        }
      ],
      "name": "setTokenENS",
      "outputs": [],
      "stateMutability": "nonpayable",
      "type": "function"
    },
    {
      "inputs": [
        {
          "internalType": "uint256",
          "name": "tokenId",
          "type": "uint256"
        },
        {
          "internalType": "string",
          "name": "_tokenExternalURL",
          "type": "string"
        }
      ],
      "name": "setTokenExternalURL",
      "outputs": [],
      "stateMutability": "nonpayable",
      "type": "function"
    },
    {
      "inputs": [
        {
          "internalType": "uint256",
          "name": "tokenId",
          "type": "uint256"
        },
        {
          "internalType": "string",
          "name": "_tokenImage",
          "type": "string"
        }
      ],
      "name": "setTokenImage",
      "outputs": [],
      "stateMutability": "nonpayable",
      "type": "function"
    },
    {
      "inputs": [
        {
          "internalType": "uint256",
          "name": "tokenId",
          "type": "uint256"
        },
        {
          "internalType": "string",
          "name": "_tokenName",
          "type": "string"
        }
      ],
      "name": "setTokenName",
      "outputs": [],
      "stateMutability": "nonpayable",
      "type": "function"
    },
    {
      "inputs": [
        {
          "internalType": "address",
          "name": "to",
          "type": "address"
        },
        {
          "internalType": "uint256",
          "name": "tokenId",
          "type": "uint256"
        },
        {
          "internalType": "uint96",
          "name": "value",
          "type": "uint96"
        }
      ],
      "name": "setTokenRoyalty",
      "outputs": [],
      "stateMutability": "nonpayable",
      "type": "function"
    },
    {
      "inputs": [
        {
          "internalType": "address",
          "name": "marketContract",
          "type": "address"
        },
        {
          "internalType": "uint256",
          "name": "tokenId",
          "type": "uint256"
        },
        {
          "internalType": "uint256",
          "name": "_tokenValue",
          "type": "uint256"
        }
      ],
      "name": "setTokenValue",
      "outputs": [],
      "stateMutability": "nonpayable",
      "type": "function"
    },
    {
      "inputs": [
        {
          "internalType": "bytes4",
          "name": "interfaceId",
          "type": "bytes4"
        }
      ],
      "name": "supportsInterface",
      "outputs": [
        {
          "internalType": "bool",
          "name": "",
          "type": "bool"
        }
      ],
      "stateMutability": "view",
      "type": "function"
    },
    {
      "inputs": [],
      "name": "symbol",
      "outputs": [
        {
          "internalType": "string",
          "name": "",
          "type": "string"
        }
      ],
      "stateMutability": "view",
      "type": "function"
    },
    {
      "inputs": [
        {
          "internalType": "uint256",
          "name": "index",
          "type": "uint256"
        }
      ],
      "name": "tokenByIndex",
      "outputs": [
        {
          "internalType": "uint256",
          "name": "",
          "type": "uint256"
        }
      ],
      "stateMutability": "view",
      "type": "function"
    },
    {
      "inputs": [
        {
          "internalType": "address",
          "name": "owner",
          "type": "address"
        },
        {
          "internalType": "uint256",
          "name": "index",
          "type": "uint256"
        }
      ],
      "name": "tokenOfOwnerByIndex",
      "outputs": [
        {
          "internalType": "uint256",
          "name": "",
          "type": "uint256"
        }
      ],
      "stateMutability": "view",
      "type": "function"
    },
    {
      "inputs": [
        {
          "internalType": "uint256",
          "name": "tokenId",
          "type": "uint256"
        }
      ],
      "name": "tokenURI",
      "outputs": [
        {
          "internalType": "string",
          "name": "",
          "type": "string"
        }
      ],
      "stateMutability": "view",
      "type": "function"
    },
    {
      "inputs": [],
      "name": "totalSupply",
      "outputs": [
        {
          "internalType": "uint256",
          "name": "",
          "type": "uint256"
        }
      ],
      "stateMutability": "view",
      "type": "function"
    },
    {
      "inputs": [
        {
          "internalType": "address",
          "name": "to",
          "type": "address"
        },
        {
          "internalType": "uint256",
          "name": "tokenId",
          "type": "uint256"
        }
      ],
      "name": "transactionNFA",
      "outputs": [],
      "stateMutability": "payable",
      "type": "function"
    },
    {
      "inputs": [
        {
          "internalType": "address",
          "name": "from",
          "type": "address"
        },
        {
          "internalType": "address",
          "name": "to",
          "type": "address"
        },
        {
          "internalType": "uint256",
          "name": "tokenId",
          "type": "uint256"
        }
      ],
      "name": "transferFrom",
      "outputs": [],
      "stateMutability": "nonpayable",
      "type": "function"
    }
  ],
  "bytecode": "0x60806040523480156200001157600080fd5b5060405162004bbe38038062004bbe833981016040819052620000349162000314565b8151829082906200004d906000906020850190620001b7565b50805162000063906001906020840190620001b7565b505050620000796000336200008160201b60201c565b5050620003e7565b60006200009a600c6200014c60201b62001e691760201c565b6000818152600d60205260408120919250620000f59190856001811115620000c657620000c6620003bb565b6001811115620000da57620000da620003bb565b8152602001908152602001600020836200015060201b60201c565b816001600160a01b0316836001811115620001145762000114620003bb565b6040513381527fcf081ed2b728e3115904be00eb8927b2375ff3401839b37f7accfa1bb2bee15c9060200160405180910390a3505050565b5490565b6001600160a01b038116600090815260208390526040902054620001b3576001828101805491820181556000818152602080822090930180546001600160a01b0319166001600160a01b0386169081179091559154918152918490526040909120555b5050565b828054620001c5906200037e565b90600052602060002090601f016020900481019282620001e9576000855562000234565b82601f106200020457805160ff191683800117855562000234565b8280016001018555821562000234579182015b828111156200023457825182559160200191906001019062000217565b506200024292915062000246565b5090565b5b8082111562000242576000815560010162000247565b600082601f8301126200026f57600080fd5b81516001600160401b03808211156200028c576200028c620003d1565b604051601f8301601f19908116603f01168101908282118183101715620002b757620002b7620003d1565b81604052838152602092508683858801011115620002d457600080fd5b600091505b83821015620002f85785820183015181830184015290820190620002d9565b838211156200030a5760008385830101525b9695505050505050565b600080604083850312156200032857600080fd5b82516001600160401b03808211156200034057600080fd5b6200034e868387016200025d565b935060208501519150808211156200036557600080fd5b5062000374858286016200025d565b9150509250929050565b600181811c908216806200039357607f821691505b60208210811415620003b557634e487b7160e01b600052602260045260246000fd5b50919050565b634e487b7160e01b600052602160045260246000fd5b634e487b7160e01b600052604160045260246000fd5b6147c780620003f76000396000f3fe6080604052600436106102515760003560e01c806364140ec011610139578063a22cb465116100b6578063c0f871db1161007a578063c0f871db14610729578063c87b56dd14610749578063cdb0e89e14610769578063e944725014610789578063e985e9c5146107a9578063f9315177146107f257600080fd5b8063a22cb46514610696578063a27d0b27146106b6578063a6a79489146106d6578063b42dbe38146106e9578063b88d4fde1461070957600080fd5b80638c3c0a44116100fd5780638c3c0a44146105f257806393e2aef41461061257806395d89b41146106595780639b5036151461066e5780639cb8a26a1461068157600080fd5b806364140ec01461055257806370a082311461057257806378278cca146105925780637e91fd4d146105b25780638a616bc0146105d257600080fd5b80632a55205a116101d25780633806f152116101965780633806f1521461049257806342842e0e146104b257806342966c68146104d25780634e08b9ad146104f25780634f6ccce7146105125780636352211e1461053257600080fd5b80632a55205a146103c65780632d957aad146104055780632f1e8f0a146104255780632f745c5914610452578063353b07a41461047257600080fd5b80630cb0ee98116102195780630cb0ee981461032757806318160ddd146103475780631821ddb61461036657806323b872dd14610386578063246a908b146103a657600080fd5b806301468deb1461025657806301ffc9a71461027857806306fdde03146102ad578063081812fc146102cf578063095ea7b314610307575b600080fd5b34801561026257600080fd5b50610276610271366004613c0f565b610812565b005b34801561028457600080fd5b50610298610293366004613b2d565b610869565b60405190151581526020015b60405180910390f35b3480156102b957600080fd5b506102c261087a565b6040516102a4919061441b565b3480156102db57600080fd5b506102ef6102ea366004613bd3565b61090c565b6040516001600160a01b0390911681526020016102a4565b34801561031357600080fd5b50610276610322366004613a84565b6109a1565b34801561033357600080fd5b50610276610342366004613ae1565b610ab7565b34801561035357600080fd5b506008545b6040519081526020016102a4565b34801561037257600080fd5b50610276610381366004613cff565b610b08565b34801561039257600080fd5b506102766103a136600461383f565b610c02565b3480156103b257600080fd5b506102766103c1366004613c4b565b610c33565b3480156103d257600080fd5b506103e66103e1366004613d85565b610ce6565b604080516001600160a01b0390931683526020830191909152016102a4565b34801561041157600080fd5b50610276610420366004613b82565b610d92565b34801561043157600080fd5b50610445610440366004613bec565b610dd5565b6040516102a491906143ce565b34801561045e57600080fd5b5061035861046d366004613a84565b610e8f565b34801561047e57600080fd5b5061044561048d366004613b67565b610f25565b34801561049e57600080fd5b506102766104ad366004613c92565b610fd8565b3480156104be57600080fd5b506102766104cd36600461383f565b6110e7565b3480156104de57600080fd5b506102766104ed366004613bd3565b611102565b3480156104fe57600080fd5b506102c261050d366004613b9e565b6111ed565b34801561051e57600080fd5b5061035861052d366004613bd3565b611229565b34801561053e57600080fd5b506102ef61054d366004613bd3565b6112bc565b34801561055e57600080fd5b5061027661056d366004613c4b565b611333565b34801561057e57600080fd5b5061035861058d3660046137f1565b6113e6565b34801561059e57600080fd5b506102766105ad366004613c4b565b61146d565b3480156105be57600080fd5b506102766105cd366004613bd3565b611520565b3480156105de57600080fd5b506102766105ed366004613bd3565b6115c3565b3480156105fe57600080fd5b5061027661060d366004613b82565b6115e0565b34801561061e57600080fd5b5061063261062d366004613bd3565b611623565b604080516001600160a01b0390931683526001600160601b039091166020830152016102a4565b34801561066557600080fd5b506102c26116aa565b61035861067c366004613933565b6116b9565b34801561068d57600080fd5b5061027661186b565b3480156106a257600080fd5b506102766106b13660046138f7565b6118a8565b3480156106c257600080fd5b506102766106d1366004613c0f565b6118b7565b6102766106e4366004613a84565b6118fe565b3480156106f557600080fd5b50610298610704366004613c0f565b611a07565b34801561071557600080fd5b5061027661072436600461387b565b611a7f565b34801561073557600080fd5b50610276610744366004613aae565b611ab7565b34801561075557600080fd5b506102c2610764366004613bd3565b611b5f565b34801561077557600080fd5b50610276610784366004613c4b565b611c97565b34801561079557600080fd5b506102986107a4366004613b82565b611d44565b3480156107b557600080fd5b506102986107c436600461380c565b6001600160a01b03918216600090815260056020908152604080832093909416825291909152205460ff1690565b3480156107fe57600080fd5b5061027661080d366004613c4b565b611db6565b826000610820828233611a07565b80610832575061083282600033611a07565b6108575760405162461bcd60e51b815260040161084e906144cc565b60405180910390fd5b610862858585611e6d565b5050505050565b600061087482611f24565b92915050565b6060600080546108899061464d565b80601f01602080910402602001604051908101604052809291908181526020018280546108b59061464d565b80156109025780601f106108d757610100808354040283529160200191610902565b820191906000526020600020905b8154815290600101906020018083116108e557829003601f168201915b5050505050905090565b6000818152600260205260408120546001600160a01b03166109855760405162461bcd60e51b815260206004820152602c60248201527f4552433732313a20617070726f76656420717565727920666f72206e6f6e657860448201526b34b9ba32b73a103a37b5b2b760a11b606482015260840161084e565b506000908152600460205260409020546001600160a01b031690565b60006109ac826112bc565b9050806001600160a01b0316836001600160a01b03161415610a1a5760405162461bcd60e51b815260206004820152602160248201527f4552433732313a20617070726f76616c20746f2063757272656e74206f776e656044820152603960f91b606482015260840161084e565b336001600160a01b0382161480610a365750610a3681336107c4565b610aa85760405162461bcd60e51b815260206004820152603860248201527f4552433732313a20617070726f76652063616c6c6572206973206e6f74206f7760448201527f6e6572206e6f7220617070726f76656420666f7220616c6c0000000000000000606482015260840161084e565b610ab28383611f49565b505050565b610ac082611fb7565b610acb828483611feb565b60405133906001600160601b0383169084907fd2d934b82422fdab267998d02312dcf3c7873b381190b16d9b839440a3be69c690600090a4505050565b836001610b16828233611a07565b80610b285750610b2882600033611a07565b610b445760405162461bcd60e51b815260040161084e906144cc565b610b4d86611fb7565b60408051606081018252868152602080820187905281830186905291519091600091610b7f9188918a9189910161427d565b60408051601f1981840301815291815260008a8152601160209081529190208251929350610bb5926004909101918401906135b2565b506040513390610bc6908390613e9c565b604051908190038120908a907fd46984490a4483750157fda9ad55db9c811edd43baa9a92a390c6904cf1839b290600090a45050505050505050565b610c0c33826120f9565b610c285760405162461bcd60e51b815260040161084e90614557565b610ab28383836121ab565b816001610c41828233611a07565b80610c535750610c5382600033611a07565b610c6f5760405162461bcd60e51b815260040161084e906144cc565b610c7884611fb7565b60008481526011602090815260409091208451610c9d926001909201918601906135b2565b506040513390610cae908590613e9c565b6040519081900381209086907fd771eaa1c1382b0a9867125fcd921fdeddd211538b5381353a877abfbe3b50a490600090a450505050565b6000828152600b602090815260408083208151808301909252546001600160a01b038116808352600160a01b9091046001600160601b0316928201929092528291610d5b575060408051808201909152600a546001600160a01b0381168252600160a01b90046001600160601b031660208201525b602081015160009061271090610d7a906001600160601b0316876145d4565b610d8491906145c0565b915196919550909350505050565b6000610d9e8133611d44565b80610daf5750610daf600033611d44565b610dcb5760405162461bcd60e51b815260040161084e9061450f565b610ab28383612358565b6000828152600e6020908152604080832054600f83528184208185529092528220606092846001811115610e0b57610e0b6146e3565b6001811115610e1c57610e1c6146e3565b8152602001908152602001600020600101805480602002602001604051908101604052809291908181526020018280548015610e8157602002820191906000526020600020905b81546001600160a01b03168152600190910190602001808311610e63575b505050505091505092915050565b6000610e9a836113e6565b8210610efc5760405162461bcd60e51b815260206004820152602b60248201527f455243373231456e756d657261626c653a206f776e657220696e646578206f7560448201526a74206f6620626f756e647360a81b606482015260840161084e565b506001600160a01b03919091166000908152600660209081526040808320938352929052205490565b60606000610f32600c5490565b6000818152600d60205260408120919250846001811115610f5557610f556146e3565b6001811115610f6657610f666146e3565b8152602001908152602001600020600101805480602002602001604051908101604052809291908181526020018280548015610fcb57602002820191906000526020600020905b81546001600160a01b03168152600190910190602001808311610fad575b5050505050915050919050565b826001610fe6828233611a07565b80610ff85750610ff882600033611a07565b6110145760405162461bcd60e51b815260040161084e906144cc565b61101d85611fb7565b6040805180820182528581526020808201869052600088815260119091529182206008810180549293600990920192829061105790614688565b91829055508152602080820192909252604001600020825180519192611082928492909101906135b2565b50602082810151805161109b92600185019201906135b2565b50506040513391506110ae908690613e9c565b6040519081900381209087907f73b929bf4db6be678cdbc6d41a5fe0a2cbb84ca95572062c4a978d8bd80a41b190600090a45050505050565b610ab283838360405180602001604052806000815250611a7f565b806000611110828233611a07565b80611122575061112282600033611a07565b61113e5760405162461bcd60e51b815260040161084e906144cc565b61114783612405565b600083815260116020526040902060030180546111639061464d565b159050610ab2576000838152601160205260408120906111838282613636565b611191600183016000613636565b61119f600283016000613636565b6111ad600383016000613636565b6111bb600483016000613636565b60058201805460ff191690556000600683018190556111de906007840190613636565b60088201600090555050505050565b606060008260200151836000015184604001516040516020016112129392919061427d565b60408051601f198184030181529190529392505050565b600061123460085490565b82106112975760405162461bcd60e51b815260206004820152602c60248201527f455243373231456e756d657261626c653a20676c6f62616c20696e646578206f60448201526b7574206f6620626f756e647360a01b606482015260840161084e565b600882815481106112aa576112aa61470f565b90600052602060002001549050919050565b6000818152600260205260408120546001600160a01b0316806108745760405162461bcd60e51b815260206004820152602960248201527f4552433732313a206f776e657220717565727920666f72206e6f6e657869737460448201526832b73a103a37b5b2b760b91b606482015260840161084e565b816001611341828233611a07565b80611353575061135382600033611a07565b61136f5760405162461bcd60e51b815260040161084e906144cc565b61137884611fb7565b6000848152601160209081526040909120845161139d926002909201918601906135b2565b5060405133906113ae908590613e9c565b6040519081900381209086907f80f081796a13b5a4269815447e37462c5739a69ea7f1460301b595e0c4003d8390600090a450505050565b60006001600160a01b0382166114515760405162461bcd60e51b815260206004820152602a60248201527f4552433732313a2062616c616e636520717565727920666f7220746865207a65604482015269726f206164647265737360b01b606482015260840161084e565b506001600160a01b031660009081526003602052604090205490565b81600161147b828233611a07565b8061148d575061148d82600033611a07565b6114a95760405162461bcd60e51b815260040161084e906144cc565b6114b284611fb7565b600084815260116020908152604090912084516114d7926007909201918601906135b2565b5060405133906114e8908590613e9c565b6040519081900381209086907f91ce7fcd4462481791c3fe849f7049373c5b43ef44aed48e7f1ecce781586e1590600090a450505050565b80600161152e828233611a07565b80611540575061154082600033611a07565b61155c5760405162461bcd60e51b815260040161084e906144cc565b61156583611fb7565b600083815260116020526040812060068101829055600501805460ff1916905561158f90846109a1565b604051339060009085907f937ae5ba1a94a43da1581f1203e85b4fa088d704cfe6d5ab2940b775d5a63dd5908390a4505050565b6115cc81611fb7565b6000908152600b6020526040812055565b50565b60006115ec8133611d44565b806115fd57506115fd600033611d44565b6116195760405162461bcd60e51b815260040161084e9061450f565b610ab283836124b4565b6000818152600b602090815260408083208151808301909252546001600160a01b038116808352600160a01b9091046001600160601b0316928201929092528291611698575060408051808201909152600a546001600160a01b0381168252600160a01b90046001600160601b031660208201525b80516020909101519094909350915050565b6060600180546108899061464d565b6000806116c68133611d44565b806116d757506116d7600033611d44565b6116f35760405162461bcd60e51b815260040161084e9061450f565b60006116fe60105490565b905061170a8c82612533565b611718601080546001019055565b60408051606081018252855181526020808701519082015285820151918101919091526000611746826111ed565b905060006011600085815260200190815260200160002090508d8160000190805190602001906117779291906135b2565b508c8160010190805190602001906117909291906135b2565b508b516117a690600283019060208f01906135b2565b508a516117bc90600383019060208e01906135b2565b5081516117d290600483019060208501906135b2565b5089516117e890600783019060208d01906135b2565b5060058101805460ff19169055600060068201819055600882018190556040805180820182528b815260208082018c90528380526009850181529190922082518051919261183b928492909101906135b2565b50602082810151805161185492600185019201906135b2565b509496505050505050509998505050505050505050565b60006118778133611d44565b806118885750611888600033611d44565b6118a45760405162461bcd60e51b815260040161084e9061450f565b3380ff5b6118b3338383612689565b5050565b8260006118c5828233611a07565b806118d757506118d782600033611a07565b6118f35760405162461bcd60e51b815260040161084e906144cc565b610862858585612750565b6000611909826112bc565b90506001600160a01b03811633141561192157600080fd5b6001600160a01b03811661193457600080fd5b61193d82611fb7565b600082815260116020526040902060068101543481111561195d57600080fd5b600582015460ff16151560011461197357600080fd5b61197d85856109a1565b6040516001600160a01b0384169082156108fc029083906000818181858888f193505050501580156119b3573d6000803e3d6000fd5b506119bf8386866110e7565b60006006830181905560058301805460ff191690556040513391839187917f3f9b9a84d6cbcffa546a93b9831489d1db2f59675aabc4541bb5eb820e6fd34b91a45050505050565b6000838152600e6020908152604080832054600f8352818420818552909252822082856001811115611a3b57611a3b6146e3565b6001811115611a4c57611a4c6146e3565b8152602080820192909252604090810160009081206001600160a01b038716825290925290205415159150509392505050565b611a8933836120f9565b611aa55760405162461bcd60e51b815260040161084e90614557565b611ab1848484846127d8565b50505050565b816001611ac5828233611a07565b80611ad75750611ad782600033611a07565b611af35760405162461bcd60e51b815260040161084e906144cc565b611afc84611fb7565b600084815260116020526040902060068101849055600501805460ff19166001179055611b2985856109a1565b6040513390849086907f937ae5ba1a94a43da1581f1203e85b4fa088d704cfe6d5ab2940b775d5a63dd590600090a45050505050565b6060611b6a82611fb7565b6000611b75836112bc565b6000848152601160205260408120919250611b8f8261280b565b90506000611b9c83612835565b90506000611ba98561284b565b90506000611bb685612871565b90506000611bc386612887565b90506000611bd08761289d565b90506000611bdd886128b3565b90506000611bea89612913565b90506000611bf78a612932565b90506000898989898989898989604051602001611c1c999897969594939291906140a3565b60408051601f19818403018152828201909152601d82527f646174613a6170706c69636174696f6e2f6a736f6e3b6261736536342c00000060208301529150611c6482612a1c565b604051602001611c75929190613e6d565b6040516020818303038152906040529c50505050505050505050505050919050565b816001611ca5828233611a07565b80611cb75750611cb782600033611a07565b611cd35760405162461bcd60e51b815260040161084e906144cc565b611cdc84611fb7565b60008481526011602090815260409091208451611cfb928601906135b2565b506040513390611d0c908590613e9c565b6040519081900381209086907ffbbfca16a2770c7ca6e7063ab1a7eea5fe441ffef818325db51752066a6b128a90600090a450505050565b600080611d50600c5490565b6000818152600d60205260408120919250856001811115611d7357611d736146e3565b6001811115611d8457611d846146e3565b8152602080820192909252604090810160009081206001600160a01b0387168252909252902054151591505092915050565b816001611dc4828233611a07565b80611dd65750611dd682600033611a07565b611df25760405162461bcd60e51b815260040161084e906144cc565b611dfb84611fb7565b60008481526011602090815260409091208451611e20926003909201918601906135b2565b506040513390611e31908590613e9c565b6040519081900381209086907fedbf1209b3baa7c1b5c43052ce5c511e243b3241d9f67733141d14f1da88cba190600090a450505050565b5490565b6000838152600e6020908152604080832054600f835281842081855290925282209091611ecc9190856001811115611ea757611ea76146e3565b6001811115611eb857611eb86146e3565b815260200190815260200160002083612b70565b816001600160a01b0316836001811115611ee857611ee86146e3565b60405133815286907fe52d746e4c78c98c6bfa291b273406905c3e8550b7d911a6bea686368c2dc79d906020015b60405180910390a450505050565b60006001600160e01b0319821663152a902d60e11b1480610874575061087482612cb4565b600081815260046020526040902080546001600160a01b0319166001600160a01b0384169081179091558190611f7e826112bc565b6001600160a01b03167f8c5be1e5ebec7d5bd14f71427d1e84f3dd0314c0f7b2291e5b200ac8c7c3b92560405160405180910390a45050565b6000818152600260205260409020546001600160a01b03166115dd5760405162461bcd60e51b815260040161084e90614480565b6127106001600160601b03821611156120595760405162461bcd60e51b815260206004820152602a60248201527f455243323938313a20726f79616c7479206665652077696c6c206578636565646044820152692073616c65507269636560b01b606482015260840161084e565b6001600160a01b0382166120af5760405162461bcd60e51b815260206004820152601b60248201527f455243323938313a20496e76616c696420706172616d65746572730000000000604482015260640161084e565b6040805180820182526001600160a01b0393841681526001600160601b0392831660208083019182526000968752600b90529190942093519051909116600160a01b029116179055565b6000818152600260205260408120546001600160a01b031661212d5760405162461bcd60e51b815260040161084e90614480565b6000612138836112bc565b9050806001600160a01b0316846001600160a01b031614806121735750836001600160a01b03166121688461090c565b6001600160a01b0316145b806121a357506001600160a01b0380821660009081526005602090815260408083209388168352929052205460ff165b949350505050565b826001600160a01b03166121be826112bc565b6001600160a01b0316146122225760405162461bcd60e51b815260206004820152602560248201527f4552433732313a207472616e736665722066726f6d20696e636f72726563742060448201526437bbb732b960d91b606482015260840161084e565b6001600160a01b0382166122845760405162461bcd60e51b8152602060048201526024808201527f4552433732313a207472616e7366657220746f20746865207a65726f206164646044820152637265737360e01b606482015260840161084e565b61228f838383612cd9565b61229a600082611f49565b6001600160a01b03831660009081526003602052604081208054600192906122c39084906145f3565b90915550506001600160a01b03821660009081526003602052604081208054600192906122f19084906145a8565b909155505060008181526002602052604080822080546001600160a01b0319166001600160a01b0386811691821790925591518493918716917fddf252ad1be2c89b69c2b068fc378daa952ba7f163c4a11628f55a4df523b3ef91a4610ab2838383612df7565b6000612363600c5490565b6000818152600d602052604081209192506123b0919085600181111561238b5761238b6146e3565b600181111561239c5761239c6146e3565b815260200190815260200160002083612e57565b816001600160a01b03168360018111156123cc576123cc6146e3565b6040513381527fcf081ed2b728e3115904be00eb8927b2375ff3401839b37f7accfa1bb2bee15c906020015b60405180910390a3505050565b6000612410826112bc565b905061241e81600084612cd9565b612429600083611f49565b6001600160a01b03811660009081526003602052604081208054600192906124529084906145f3565b909155505060008281526002602052604080822080546001600160a01b0319169055518391906001600160a01b038416907fddf252ad1be2c89b69c2b068fc378daa952ba7f163c4a11628f55a4df523b3ef908390a46118b381600084612df7565b60006124bf600c5490565b6000818152600d602052604081209192506124e79190856001811115611ea757611ea76146e3565b816001600160a01b0316836001811115612503576125036146e3565b6040513381527faeff57f0f5e4d3d10a37d4a70fde8ed67a95e67b251d5c512c0ea98c380d2f95906020016123f8565b6001600160a01b0382166125895760405162461bcd60e51b815260206004820181905260248201527f4552433732313a206d696e7420746f20746865207a65726f2061646472657373604482015260640161084e565b6000818152600260205260409020546001600160a01b0316156125ee5760405162461bcd60e51b815260206004820152601c60248201527f4552433732313a20746f6b656e20616c7265616479206d696e74656400000000604482015260640161084e565b6125fa60008383612cd9565b6001600160a01b03821660009081526003602052604081208054600192906126239084906145a8565b909155505060008181526002602052604080822080546001600160a01b0319166001600160a01b03861690811790915590518392907fddf252ad1be2c89b69c2b068fc378daa952ba7f163c4a11628f55a4df523b3ef908290a46118b360008383612df7565b816001600160a01b0316836001600160a01b031614156126eb5760405162461bcd60e51b815260206004820152601960248201527f4552433732313a20617070726f766520746f2063616c6c657200000000000000604482015260640161084e565b6001600160a01b03838116600081815260056020908152604080832094871680845294825291829020805460ff191686151590811790915591519182527f17307eab39ab6107e8899845ad3d59bd9653f200f220920489ca2b5937696c3191016123f8565b6000838152600e6020908152604080832054600f83528184208185529092528220909161278a919085600181111561238b5761238b6146e3565b816001600160a01b03168360018111156127a6576127a66146e3565b60405133815286907f0bf5a13b362503fcc74b8b9b1598aba2f3a9af85d05ba7978f7e9f447f22c23990602001611f16565b6127e38484846121ab565b6127ef84848484612eba565b611ab15760405162461bcd60e51b815260040161084e9061442e565b60405160609061281f90839060200161402a565b6040516020818303038152906040529050919050565b60608160010160405160200161281f9190613eef565b6060612861826001600160a01b03166014612fc7565b60405160200161281f91906141e4565b60608160030160405160200161281f9190613eb8565b60608160020160405160200161281f9190614047565b60608160040160405160200161281f9190613fb0565b600581015460609060ff166128e5576040518060400160405280600581526020016466616c736560d81b815250612903565b604051806040016040528060048152602001637472756560e01b8152505b60405160200161281f9190613f70565b6060612922826006015461316a565b60405160200161281f9190614065565b6040805160008152602081019091526060908061294e84613268565b60405160200161295f929190613e6d565b60405160208183030381529060405290508061297a8461327e565b60405160200161298b929190613e6d565b6040516020818303038152906040529050806129a6846132ac565b6040516020016129b7929190613e6d565b6040516020818303038152906040529050806129d2846132da565b6040516020016129e3929190613e6d565b604051602081830303815290604052905080604051602001612a0591906141a1565b604051602081830303815290604052915050919050565b6060815160001415612a3c57505060408051602081019091526000815290565b60006040518060600160405280604081526020016147526040913990506000600384516002612a6b91906145a8565b612a7591906145c0565b612a809060046145d4565b67ffffffffffffffff811115612a9857612a98614725565b6040519080825280601f01601f191660200182016040528015612ac2576020820181803683370190505b509050600182016020820185865187015b80821015612b2e576003820191508151603f8160121c168501518453600184019350603f81600c1c168501518453600184019350603f8160061c168501518453600184019350603f8116850151845350600183019250612ad3565b5050600386510660018114612b4a5760028114612b5d57612b65565b603d6001830353603d6002830353612b65565b603d60018303535b509195945050505050565b6001600160a01b038116600090815260208390526040902054156118b3576001600160a01b038116600090815260208390526040812054612bb3906001906145f3565b600184810154919250600091612bc991906145f3565b90506000846001018281548110612be257612be261470f565b6000918252602090912001546001860180546001600160a01b039092169250829185908110612c1357612c1361470f565b600091825260209091200180546001600160a01b0319166001600160a01b0392909216919091179055612c478360016145a8565b6001600160a01b03821660009081526020879052604090205560018501805480612c7357612c736146f9565b60008281526020808220830160001990810180546001600160a01b03191690559092019092556001600160a01b038616825286905260408120555050505050565b60006001600160e01b0319821663780e9d6360e01b14806108745750610874826132f9565b6001600160a01b03831615801590612cf957506001600160a01b03821615155b15612d0d57612d088183613349565b612d4b565b6001600160a01b038316612d2757612d0881600084612750565b6001600160a01b038216612d4b576000818152600e60205260409020805460010190555b6000818152601160205260408120600601549080612d698484610ce6565b90925090508015612de4576040516001600160a01b0383169082156108fc029083906000818181858888f19350505050158015612daa573d6000803e3d6000fd5b50856001600160a01b031681857f40ddb618d352ad261434216e52c90ac449fcfb2c8a783a79bf2a19fe98f6377e60405160405180910390a45b612def86868661336a565b505050505050565b6000818152601160205260408120600681018054929055600501805460ff19169055836001600160a01b031681837f3f9b9a84d6cbcffa546a93b9831489d1db2f59675aabc4541bb5eb820e6fd34b60405160405180910390a450505050565b6001600160a01b0381166000908152602083905260409020546118b3576001828101805491820181556000818152602080822090930180546001600160a01b0319166001600160a01b039590951694851790559054928152929052604090912055565b60006001600160a01b0384163b15612fbc57604051630a85bd0160e11b81526001600160a01b0385169063150b7a0290612efe903390899088908890600401614391565b602060405180830381600087803b158015612f1857600080fd5b505af1925050508015612f48575060408051601f3d908101601f19168201909252612f4591810190613b4a565b60015b612fa2573d808015612f76576040519150601f19603f3d011682016040523d82523d6000602084013e612f7b565b606091505b508051612f9a5760405162461bcd60e51b815260040161084e9061442e565b805181602001fd5b6001600160e01b031916630a85bd0160e11b1490506121a3565b506001949350505050565b60606000612fd68360026145d4565b612fe19060026145a8565b67ffffffffffffffff811115612ff957612ff9614725565b6040519080825280601f01601f191660200182016040528015613023576020820181803683370190505b509050600360fc1b8160008151811061303e5761303e61470f565b60200101906001600160f81b031916908160001a905350600f60fb1b8160018151811061306d5761306d61470f565b60200101906001600160f81b031916908160001a90535060006130918460026145d4565b61309c9060016145a8565b90505b6001811115613114576f181899199a1a9b1b9c1cb0b131b232b360811b85600f16601081106130d0576130d061470f565b1a60f81b8282815181106130e6576130e661470f565b60200101906001600160f81b031916908160001a90535060049490941c9361310d81614636565b905061309f565b5083156131635760405162461bcd60e51b815260206004820181905260248201527f537472696e67733a20686578206c656e67746820696e73756666696369656e74604482015260640161084e565b9392505050565b60608161318e5750506040805180820190915260018152600360fc1b602082015290565b8160005b81156131b857806131a281614688565b91506131b19050600a836145c0565b9150613192565b60008167ffffffffffffffff8111156131d3576131d3614725565b6040519080825280601f01601f1916602001820160405280156131fd576020820181803683370190505b5090505b84156121a3576132126001836145f3565b915061321f600a866146a3565b61322a9060306145a8565b60f81b81838151811061323f5761323f61470f565b60200101906001600160f81b031916908160001a905350613261600a866145c0565b9450613201565b60608160070160405160200161281f9190614209565b60608160090160008360080154815260200190815260200160002060000160405160200161281f919061423b565b60608160090160008360080154815260200190815260200160002060010160405160200161281f9190613fd6565b60606132e9826008015461316a565b60405160200161281f9190613f13565b60006001600160e01b031982166380ac58cd60e01b148061332a57506001600160e01b03198216635b5e139f60e01b145b8061087457506301ffc9a760e01b6001600160e01b0319831614610874565b6000828152600e60205260409020805460010190556118b382600083612750565b6001600160a01b0383166133c5576133c081600880546000838152600960205260408120829055600182018355919091527ff3f7a9fe364faab93b216da50a3214154f22a0a2b415b23a84c8169e8b636ee30155565b6133e8565b816001600160a01b0316836001600160a01b0316146133e8576133e88382613422565b6001600160a01b0382166133ff57610ab2816134bf565b826001600160a01b0316826001600160a01b031614610ab257610ab2828261356e565b6000600161342f846113e6565b61343991906145f3565b60008381526007602052604090205490915080821461348c576001600160a01b03841660009081526006602090815260408083208584528252808320548484528184208190558352600790915290208190555b5060009182526007602090815260408084208490556001600160a01b039094168352600681528383209183525290812055565b6008546000906134d1906001906145f3565b600083815260096020526040812054600880549394509092849081106134f9576134f961470f565b90600052602060002001549050806008838154811061351a5761351a61470f565b6000918252602080832090910192909255828152600990915260408082208490558582528120556008805480613552576135526146f9565b6001900381819060005260206000200160009055905550505050565b6000613579836113e6565b6001600160a01b039093166000908152600660209081526040808320868452825280832085905593825260079052919091209190915550565b8280546135be9061464d565b90600052602060002090601f0160209004810192826135e05760008555613626565b82601f106135f957805160ff1916838001178555613626565b82800160010185558215613626579182015b8281111561362657825182559160200191906001019061360b565b5061363292915061366c565b5090565b5080546136429061464d565b6000825580601f10613652575050565b601f0160209004906000526020600020908101906115dd91905b5b80821115613632576000815560010161366d565b600067ffffffffffffffff8084111561369c5761369c614725565b604051601f8501601f19908116603f011681019082821181831017156136c4576136c4614725565b816040528093508581528686860111156136dd57600080fd5b858560208301376000602087830101525050509392505050565b80356001600160a01b038116811461370e57600080fd5b919050565b80356002811061370e57600080fd5b600082601f83011261373357600080fd5b61316383833560208501613681565b60006060828403121561375457600080fd5b6040516060810167ffffffffffffffff828210818311171561377857613778614725565b81604052829350843591508082111561379057600080fd5b61379c86838701613722565b835260208501359150808211156137b257600080fd5b6137be86838701613722565b602084015260408501359150808211156137d757600080fd5b506137e485828601613722565b6040830152505092915050565b60006020828403121561380357600080fd5b613163826136f7565b6000806040838503121561381f57600080fd5b613828836136f7565b9150613836602084016136f7565b90509250929050565b60008060006060848603121561385457600080fd5b61385d846136f7565b925061386b602085016136f7565b9150604084013590509250925092565b6000806000806080858703121561389157600080fd5b61389a856136f7565b93506138a8602086016136f7565b925060408501359150606085013567ffffffffffffffff8111156138cb57600080fd5b8501601f810187136138dc57600080fd5b6138eb87823560208401613681565b91505092959194509250565b6000806040838503121561390a57600080fd5b613913836136f7565b91506020830135801515811461392857600080fd5b809150509250929050565b60008060008060008060008060006101208a8c03121561395257600080fd5b61395b8a6136f7565b985060208a013567ffffffffffffffff8082111561397857600080fd5b6139848d838e01613722565b995060408c013591508082111561399a57600080fd5b6139a68d838e01613722565b985060608c01359150808211156139bc57600080fd5b6139c88d838e01613722565b975060808c01359150808211156139de57600080fd5b6139ea8d838e01613722565b965060a08c0135915080821115613a0057600080fd5b613a0c8d838e01613722565b955060c08c0135915080821115613a2257600080fd5b613a2e8d838e01613722565b945060e08c0135915080821115613a4457600080fd5b613a508d838e01613722565b93506101008c0135915080821115613a6757600080fd5b50613a748c828d01613742565b9150509295985092959850929598565b60008060408385031215613a9757600080fd5b613aa0836136f7565b946020939093013593505050565b600080600060608486031215613ac357600080fd5b613acc846136f7565b95602085013595506040909401359392505050565b600080600060608486031215613af657600080fd5b613aff846136f7565b92506020840135915060408401356001600160601b0381168114613b2257600080fd5b809150509250925092565b600060208284031215613b3f57600080fd5b81356131638161473b565b600060208284031215613b5c57600080fd5b81516131638161473b565b600060208284031215613b7957600080fd5b61316382613713565b60008060408385031215613b9557600080fd5b61382883613713565b600060208284031215613bb057600080fd5b813567ffffffffffffffff811115613bc757600080fd5b6121a384828501613742565b600060208284031215613be557600080fd5b5035919050565b60008060408385031215613bff57600080fd5b8235915061383660208401613713565b600080600060608486031215613c2457600080fd5b83359250613c3460208501613713565b9150613c42604085016136f7565b90509250925092565b60008060408385031215613c5e57600080fd5b82359150602083013567ffffffffffffffff811115613c7c57600080fd5b613c8885828601613722565b9150509250929050565b600080600060608486031215613ca757600080fd5b83359250602084013567ffffffffffffffff80821115613cc657600080fd5b613cd287838801613722565b93506040860135915080821115613ce857600080fd5b50613cf586828701613722565b9150509250925092565b60008060008060808587031215613d1557600080fd5b84359350602085013567ffffffffffffffff80821115613d3457600080fd5b613d4088838901613722565b94506040870135915080821115613d5657600080fd5b613d6288838901613722565b93506060870135915080821115613d7857600080fd5b506138eb87828801613722565b60008060408385031215613d9857600080fd5b50508035926020909101359150565b60008151808452613dbf81602086016020860161460a565b601f01601f19169290920160200192915050565b8054600090600181811c9080831680613ded57607f831692505b6020808410821415613e0f57634e487b7160e01b600052602260045260246000fd5b818015613e235760018114613e3457613e61565b60ff19861689528489019650613e61565b60008881526020902060005b86811015613e595781548b820152908501908301613e40565b505084890196505b50505050505092915050565b60008351613e7f81846020880161460a565b835190830190613e9381836020880161460a565b01949350505050565b60008251613eae81846020870161460a565b9190910192915050565b6f1132bc3a32b93730b62fbab936111d1160811b81526000613edd6010830184613dd3565b61088b60f21b81526002019392505050565b6e113232b9b1b934b83a34b7b7111d1160891b81526000613edd600f830184613dd3565b7f7b2274726169745f74797065223a202256657273696f6e222c202276616c7565815262111d1160e91b602082015260008251613f5781602385016020870161460a565b61227d60f01b6023939091019283015250602501919050565b6a1137b72fb9b0b632911d1160a91b81528151600090613f9781600b85016020870161460a565b61088b60f21b600b939091019283015250600d01919050565b701130b734b6b0ba34b7b72fbab936111d1160791b81526000613edd6011830184613dd3565b7f7b2274726169745f74797065223a20225265706f7369746f7279222c20227661815265363ab2911d1160d11b602082015260006140176026830184613dd3565b62089f4b60ea1b81526003019392505050565b67113730b6b2911d1160c11b81526000613edd6008830184613dd3565b681134b6b0b3b2911d1160b91b81526000613edd6009830184613dd3565b68113b30b63ab2911d1160b91b8152815160009061408a81600985016020870161460a565b61088b60f21b6009939091019283015250600b01919050565b607b60f81b815260008a516140bf816001850160208f0161460a565b8a516140d48160018487010160208f0161460a565b8a516140eb81600184868901010160208f0161460a565b8a519285019091010190614106816001840160208d0161460a565b885161411b8160018486010160208d0161460a565b8851929091010190614134816001840160208b0161460a565b86516141498160018486010160208b0161460a565b865192909101019061416281600184016020890161460a565b8451614177816001848601016020890161460a565b61418f6001828486010101607d60f81b815260010190565b9e9d5050505050505050505050505050565b6e2261747472696275746573223a205b60881b815281516000906141cc81600f85016020870161460a565b605d60f81b600f939091019283015250601001919050565b681137bbb732b9111d1160b91b8152815160009061408a81600985016020870161460a565b7f7b2274726169745f74797065223a2022454e53222c202276616c7565223a220081526000614017601f830184613dd3565b7f7b2274726169745f74797065223a2022436f6d6d69742048617368222c20227681526630b63ab2911d1160c91b602082015260006140176027830184613dd3565b741e10a227a1aa2ca82290343a36b61f1e343a36b61f60591b8152651e3432b0b21f60d11b6015820152661e39ba3cb6329f60c91b601b820152600084516142cc81602285016020890161460a565b671e17b9ba3cb6329f60c11b602291840191820152661e17b432b0b21f60c91b602a820152651e3137b23c9f60d11b6031820152845161431381603784016020890161460a565b671e39b1b934b83a1f60c11b60379290910191820152835161433c81603f84016020880161460a565b614386614373614360603f84860101681e17b9b1b934b83a1f60b91b815260090190565b661e17b137b23c9f60c91b815260070190565b661e17b43a36b61f60c91b815260070190565b979650505050505050565b6001600160a01b03858116825284166020820152604081018390526080606082018190526000906143c490830184613da7565b9695505050505050565b6020808252825182820181905260009190848201906040850190845b8181101561440f5783516001600160a01b0316835292840192918401916001016143ea565b50909695505050505050565b6020815260006131636020830184613da7565b60208082526032908201527f4552433732313a207472616e7366657220746f206e6f6e20455243373231526560408201527131b2b4bb32b91034b6b83632b6b2b73a32b960711b606082015260800190565b6020808252602c908201527f4552433732313a206f70657261746f7220717565727920666f72206e6f6e657860408201526b34b9ba32b73a103a37b5b2b760a11b606082015260800190565b60208082526023908201527f416363657373436f6e74726f6c3a206d757374206861766520746f6b656e20726040820152626f6c6560e81b606082015260800190565b60208082526028908201527f416363657373436f6e74726f6c3a206d757374206861766520636f6c6c656374604082015267696f6e20726f6c6560c01b606082015260800190565b60208082526031908201527f4552433732313a207472616e736665722063616c6c6572206973206e6f74206f6040820152701ddb995c881b9bdc88185c1c1c9bdd9959607a1b606082015260800190565b600082198211156145bb576145bb6146b7565b500190565b6000826145cf576145cf6146cd565b500490565b60008160001904831182151516156145ee576145ee6146b7565b500290565b600082821015614605576146056146b7565b500390565b60005b8381101561462557818101518382015260200161460d565b83811115611ab15750506000910152565b600081614645576146456146b7565b506000190190565b600181811c9082168061466157607f821691505b6020821081141561468257634e487b7160e01b600052602260045260246000fd5b50919050565b600060001982141561469c5761469c6146b7565b5060010190565b6000826146b2576146b26146cd565b500690565b634e487b7160e01b600052601160045260246000fd5b634e487b7160e01b600052601260045260246000fd5b634e487b7160e01b600052602160045260246000fd5b634e487b7160e01b600052603160045260246000fd5b634e487b7160e01b600052603260045260246000fd5b634e487b7160e01b600052604160045260246000fd5b6001600160e01b0319811681146115dd57600080fdfe4142434445464748494a4b4c4d4e4f505152535455565758595a6162636465666768696a6b6c6d6e6f707172737475767778797a303132333435363738392b2fa2646970667358221220972d50d779b3d508e4ef2883d64b2473f693a8619e41fcfa55e2b17914bceae964736f6c63430008070033",
  "linkReferences": {},
  "deployedLinkReferences": {}
}