{
  "_format": "hh-sol-artifact-1",
  "contractName": "PhimoNFA",
  "sourceName": "contracts/PhimoNFA.sol",
  "abi": [
    {
      "inputs": [
        {
          "internalType": "string",
          "name": "_name",
          "type": "string"
        },
        {
          "internalType": "string",
          "name": "_symbol",
          "type": "string"
        }
      ],
      "stateMutability": "nonpayable",
      "type": "constructor"
    },
    {
      "anonymous": false,
      "inputs": [
        {
          "indexed": true,
          "internalType": "address",
          "name": "owner",
          "type": "address"
        },
        {
          "indexed": true,
          "internalType": "address",
          "name": "approved",
          "type": "address"
        },
        {
          "indexed": true,
          "internalType": "uint256",
          "name": "tokenId",
          "type": "uint256"
        }
      ],
      "name": "Approval",
      "type": "event"
    },
    {
      "anonymous": false,
      "inputs": [
        {
          "indexed": true,
          "internalType": "address",
          "name": "owner",
          "type": "address"
        },
        {
          "indexed": true,
          "internalType": "address",
          "name": "operator",
          "type": "address"
        },
        {
          "indexed": false,
          "internalType": "bool",
          "name": "approved",
          "type": "bool"
        }
      ],
      "name": "ApprovalForAll",
      "type": "event"
    },
    {
      "anonymous": false,
      "inputs": [
        {
          "indexed": true,
          "internalType": "enum AccessControl.Roles",
          "name": "role",
          "type": "uint8"
        },
        {
          "indexed": true,
          "internalType": "address",
          "name": "toAddress",
          "type": "address"
        },
        {
          "indexed": false,
          "internalType": "address",
          "name": "byAddress",
          "type": "address"
        }
      ],
      "name": "CollectionRoleGranted",
      "type": "event"
    },
    {
      "anonymous": false,
      "inputs": [
        {
          "indexed": true,
          "internalType": "enum AccessControl.Roles",
          "name": "role",
          "type": "uint8"
        },
        {
          "indexed": true,
          "internalType": "address",
          "name": "toAddress",
          "type": "address"
        },
        {
          "indexed": false,
          "internalType": "address",
          "name": "byAddress",
          "type": "address"
        }
      ],
      "name": "CollectionRoleRevoked",
      "type": "event"
    },
    {
      "anonymous": false,
      "inputs": [
        {
          "indexed": true,
          "internalType": "uint256",
          "name": "token",
          "type": "uint256"
        },
        {
          "indexed": true,
          "internalType": "string",
          "name": "commitHash",
          "type": "string"
        },
        {
          "indexed": true,
          "internalType": "address",
          "name": "triggeredBy",
          "type": "address"
        }
      ],
      "name": "NewBuild",
      "type": "event"
    },
    {
      "anonymous": false,
      "inputs": [
        {
          "indexed": true,
          "internalType": "uint256",
          "name": "token",
          "type": "uint256"
        },
        {
          "indexed": true,
          "internalType": "uint256",
          "name": "royalty",
          "type": "uint256"
        },
        {
          "indexed": true,
          "internalType": "address",
          "name": "triggeredBy",
          "type": "address"
        }
      ],
      "name": "NewRoyaltySet",
      "type": "event"
    },
    {
      "anonymous": false,
      "inputs": [
        {
          "indexed": true,
          "internalType": "uint256",
          "name": "token",
          "type": "uint256"
        },
        {
          "indexed": true,
          "internalType": "string",
          "name": "animation",
          "type": "string"
        },
        {
          "indexed": true,
          "internalType": "address",
          "name": "triggeredBy",
          "type": "address"
        }
      ],
      "name": "NewTokenAnimation",
      "type": "event"
    },
    {
      "anonymous": false,
      "inputs": [
        {
          "indexed": true,
          "internalType": "uint256",
          "name": "token",
          "type": "uint256"
        },
        {
          "indexed": true,
          "internalType": "string",
          "name": "description",
          "type": "string"
        },
        {
          "indexed": true,
          "internalType": "address",
          "name": "triggeredBy",
          "type": "address"
        }
      ],
      "name": "NewTokenDescription",
      "type": "event"
    },
    {
      "anonymous": false,
      "inputs": [
        {
          "indexed": true,
          "internalType": "uint256",
          "name": "token",
          "type": "uint256"
        },
        {
          "indexed": true,
          "internalType": "string",
          "name": "ENS",
          "type": "string"
        },
        {
          "indexed": true,
          "internalType": "address",
          "name": "triggeredBy",
          "type": "address"
        }
      ],
      "name": "NewTokenENS",
      "type": "event"
    },
    {
      "anonymous": false,
      "inputs": [
        {
          "indexed": true,
          "internalType": "uint256",
          "name": "token",
          "type": "uint256"
        },
        {
          "indexed": true,
          "internalType": "string",
          "name": "externalURL",
          "type": "string"
        },
        {
          "indexed": true,
          "internalType": "address",
          "name": "triggeredBy",
          "type": "address"
        }
      ],
      "name": "NewTokenExternalURL",
      "type": "event"
    },
    {
      "anonymous": false,
      "inputs": [
        {
          "indexed": true,
          "internalType": "uint256",
          "name": "token",
          "type": "uint256"
        },
        {
          "indexed": true,
          "internalType": "string",
          "name": "image",
          "type": "string"
        },
        {
          "indexed": true,
          "internalType": "address",
          "name": "triggeredBy",
          "type": "address"
        }
      ],
      "name": "NewTokenImage",
      "type": "event"
    },
    {
      "anonymous": false,
      "inputs": [
        {
          "indexed": true,
          "internalType": "uint256",
          "name": "token",
          "type": "uint256"
        },
        {
          "indexed": true,
          "internalType": "string",
          "name": "name",
          "type": "string"
        },
        {
          "indexed": true,
          "internalType": "address",
          "name": "triggeredBy",
          "type": "address"
        }
      ],
      "name": "NewTokenName",
      "type": "event"
    },
    {
      "anonymous": false,
      "inputs": [
        {
          "indexed": true,
          "internalType": "uint256",
          "name": "token",
          "type": "uint256"
        },
        {
          "indexed": true,
          "internalType": "uint256",
          "name": "value",
          "type": "uint256"
        },
        {
          "indexed": true,
          "internalType": "address",
          "name": "triggeredBy",
          "type": "address"
        }
      ],
      "name": "NewTokenValue",
      "type": "event"
    },
    {
      "anonymous": false,
      "inputs": [
        {
          "indexed": true,
          "internalType": "uint256",
          "name": "token",
          "type": "uint256"
        },
        {
          "indexed": true,
          "internalType": "uint256",
          "name": "value",
          "type": "uint256"
        },
        {
          "indexed": true,
          "internalType": "address",
          "name": "triggeredBy",
          "type": "address"
        }
      ],
      "name": "RoyaltySent",
      "type": "event"
    },
    {
      "anonymous": false,
      "inputs": [
        {
          "indexed": true,
          "internalType": "uint256",
          "name": "tokenId",
          "type": "uint256"
        },
        {
          "indexed": true,
          "internalType": "enum AccessControl.Roles",
          "name": "role",
          "type": "uint8"
        },
        {
          "indexed": true,
          "internalType": "address",
          "name": "toAddress",
          "type": "address"
        },
        {
          "indexed": false,
          "internalType": "address",
          "name": "byAddress",
          "type": "address"
        }
      ],
      "name": "TokenRoleGranted",
      "type": "event"
    },
    {
      "anonymous": false,
      "inputs": [
        {
          "indexed": true,
          "internalType": "uint256",
          "name": "tokenId",
          "type": "uint256"
        },
        {
          "indexed": true,
          "internalType": "enum AccessControl.Roles",
          "name": "role",
          "type": "uint8"
        },
        {
          "indexed": true,
          "internalType": "address",
          "name": "toAddress",
          "type": "address"
        },
        {
          "indexed": false,
          "internalType": "address",
          "name": "byAddress",
          "type": "address"
        }
      ],
      "name": "TokenRoleRevoked",
      "type": "event"
    },
    {
      "anonymous": false,
      "inputs": [
        {
          "indexed": true,
          "internalType": "uint256",
          "name": "token",
          "type": "uint256"
        },
        {
          "indexed": true,
          "internalType": "uint256",
          "name": "value",
          "type": "uint256"
        },
        {
          "indexed": true,
          "internalType": "address",
          "name": "triggeredBy",
          "type": "address"
        }
      ],
      "name": "TokenTransfer",
      "type": "event"
    },
    {
      "anonymous": false,
      "inputs": [
        {
          "indexed": true,
          "internalType": "address",
          "name": "from",
          "type": "address"
        },
        {
          "indexed": true,
          "internalType": "address",
          "name": "to",
          "type": "address"
        },
        {
          "indexed": true,
          "internalType": "uint256",
          "name": "tokenId",
          "type": "uint256"
        }
      ],
      "name": "Transfer",
      "type": "event"
    },
    {
      "inputs": [
        {
          "internalType": "uint256",
          "name": "tokenId",
          "type": "uint256"
        }
      ],
      "name": "_getTokenRoyalty",
      "outputs": [
        {
          "internalType": "address",
          "name": "",
          "type": "address"
        },
        {
          "internalType": "uint96",
          "name": "",
          "type": "uint96"
        }
      ],
      "stateMutability": "view",
      "type": "function"
    },
    {
      "inputs": [],
      "name": "_main",
      "outputs": [
        {
          "internalType": "string",
          "name": "name",
          "type": "string"
        },
        {
          "internalType": "string",
          "name": "description",
          "type": "string"
        },
        {
          "internalType": "string",
          "name": "image",
          "type": "string"
        },
        {
          "internalType": "string",
          "name": "externalLink",
          "type": "string"
        }
      ],
      "stateMutability": "view",
      "type": "function"
    },
    {
      "inputs": [
        {
          "internalType": "address",
          "name": "to",
          "type": "address"
        },
        {
          "internalType": "uint256",
          "name": "tokenId",
          "type": "uint256"
        }
      ],
      "name": "approve",
      "outputs": [],
      "stateMutability": "nonpayable",
      "type": "function"
    },
    {
      "inputs": [
        {
          "internalType": "address",
          "name": "owner",
          "type": "address"
        }
      ],
      "name": "balanceOf",
      "outputs": [
        {
          "internalType": "uint256",
          "name": "",
          "type": "uint256"
        }
      ],
      "stateMutability": "view",
      "type": "function"
    },
    {
      "inputs": [
        {
          "internalType": "uint256",
          "name": "tokenId",
          "type": "uint256"
        }
      ],
      "name": "burn",
      "outputs": [],
      "stateMutability": "nonpayable",
      "type": "function"
    },
    {
      "inputs": [],
      "name": "contractURI",
      "outputs": [
        {
          "internalType": "string",
          "name": "",
          "type": "string"
        }
      ],
      "stateMutability": "view",
      "type": "function"
    },
    {
      "inputs": [
        {
          "internalType": "uint256",
          "name": "tokenId",
          "type": "uint256"
        }
      ],
      "name": "getApproved",
      "outputs": [
        {
          "internalType": "address",
          "name": "",
          "type": "address"
        }
      ],
      "stateMutability": "view",
      "type": "function"
    },
    {
      "inputs": [
        {
          "internalType": "enum AccessControl.Roles",
          "name": "role",
          "type": "uint8"
        }
      ],
      "name": "getCollectionRoleMembers",
      "outputs": [
        {
          "internalType": "address[]",
          "name": "",
          "type": "address[]"
        }
      ],
      "stateMutability": "view",
      "type": "function"
    },
    {
      "inputs": [
        {
          "internalType": "uint256",
          "name": "tokenId",
          "type": "uint256"
        },
        {
          "internalType": "enum AccessControl.Roles",
          "name": "role",
          "type": "uint8"
        }
      ],
      "name": "getTokenRoleMembers",
      "outputs": [
        {
          "internalType": "address[]",
          "name": "",
          "type": "address[]"
        }
      ],
      "stateMutability": "view",
      "type": "function"
    },
    {
      "inputs": [
        {
          "internalType": "enum AccessControl.Roles",
          "name": "role",
          "type": "uint8"
        },
        {
          "internalType": "address",
          "name": "account",
          "type": "address"
        }
      ],
      "name": "grantCollectionRole",
      "outputs": [],
      "stateMutability": "nonpayable",
      "type": "function"
    },
    {
      "inputs": [
        {
          "internalType": "uint256",
          "name": "tokenId",
          "type": "uint256"
        },
        {
          "internalType": "enum AccessControl.Roles",
          "name": "role",
          "type": "uint8"
        },
        {
          "internalType": "address",
          "name": "account",
          "type": "address"
        }
      ],
      "name": "grantTokenRole",
      "outputs": [],
      "stateMutability": "nonpayable",
      "type": "function"
    },
    {
      "inputs": [
        {
          "internalType": "enum AccessControl.Roles",
          "name": "role",
          "type": "uint8"
        },
        {
          "internalType": "address",
          "name": "account",
          "type": "address"
        }
      ],
      "name": "hasCollectionRole",
      "outputs": [
        {
          "internalType": "bool",
          "name": "",
          "type": "bool"
        }
      ],
      "stateMutability": "view",
      "type": "function"
    },
    {
      "inputs": [
        {
          "internalType": "uint256",
          "name": "tokenId",
          "type": "uint256"
        },
        {
          "internalType": "enum AccessControl.Roles",
          "name": "role",
          "type": "uint8"
        },
        {
          "internalType": "address",
          "name": "account",
          "type": "address"
        }
      ],
      "name": "hasTokenRole",
      "outputs": [
        {
          "internalType": "bool",
          "name": "",
          "type": "bool"
        }
      ],
      "stateMutability": "view",
      "type": "function"
    },
    {
      "inputs": [
        {
          "internalType": "address",
          "name": "owner",
          "type": "address"
        },
        {
          "internalType": "address",
          "name": "operator",
          "type": "address"
        }
      ],
      "name": "isApprovedForAll",
      "outputs": [
        {
          "internalType": "bool",
          "name": "",
          "type": "bool"
        }
      ],
      "stateMutability": "view",
      "type": "function"
    },
    {
      "inputs": [
        {
          "internalType": "address",
          "name": "to",
          "type": "address"
        },
        {
          "internalType": "string",
          "name": "name",
          "type": "string"
        },
        {
          "internalType": "string",
          "name": "description",
          "type": "string"
        },
        {
          "internalType": "string",
          "name": "image",
          "type": "string"
        },
        {
          "internalType": "string",
          "name": "externalURL",
          "type": "string"
        },
        {
          "internalType": "string",
          "name": "ENS",
          "type": "string"
        },
        {
          "internalType": "string",
          "name": "commitHash",
          "type": "string"
        },
        {
          "internalType": "string",
          "name": "gitRepository",
          "type": "string"
        },
        {
          "components": [
            {
              "internalType": "string",
              "name": "html",
              "type": "string"
            },
            {
              "internalType": "string",
              "name": "css",
              "type": "string"
            },
            {
              "internalType": "string",
              "name": "js",
              "type": "string"
            }
          ],
          "internalType": "struct PhimoNFA.Animation",
          "name": "animation",
          "type": "tuple"
        }
      ],
      "name": "mint",
      "outputs": [
        {
          "internalType": "uint256",
          "name": "",
          "type": "uint256"
        }
      ],
      "stateMutability": "payable",
      "type": "function"
    },
    {
      "inputs": [],
      "name": "name",
      "outputs": [
        {
          "internalType": "string",
          "name": "",
          "type": "string"
        }
      ],
      "stateMutability": "view",
      "type": "function"
    },
    {
      "inputs": [
        {
          "internalType": "uint256",
          "name": "tokenId",
          "type": "uint256"
        }
      ],
      "name": "ownerOf",
      "outputs": [
        {
          "internalType": "address",
          "name": "",
          "type": "address"
        }
      ],
      "stateMutability": "view",
      "type": "function"
    },
    {
      "inputs": [
        {
          "components": [
            {
              "internalType": "string",
              "name": "html",
              "type": "string"
            },
            {
              "internalType": "string",
              "name": "css",
              "type": "string"
            },
            {
              "internalType": "string",
              "name": "js",
              "type": "string"
            }
          ],
          "internalType": "struct PhimoNFA.Animation",
          "name": "animation",
          "type": "tuple"
        }
      ],
      "name": "parseAnimation",
      "outputs": [
        {
          "internalType": "string",
          "name": "",
          "type": "string"
        }
      ],
      "stateMutability": "view",
      "type": "function"
    },
    {
      "inputs": [
        {
          "internalType": "uint256",
          "name": "tokenId",
          "type": "uint256"
        }
      ],
      "name": "removeTokenValue",
      "outputs": [],
      "stateMutability": "nonpayable",
      "type": "function"
    },
    {
      "inputs": [
        {
          "internalType": "uint256",
          "name": "tokenId",
          "type": "uint256"
        }
      ],
      "name": "resetTokenRoyalty",
      "outputs": [],
      "stateMutability": "nonpayable",
      "type": "function"
    },
    {
      "inputs": [
        {
          "internalType": "enum AccessControl.Roles",
          "name": "role",
          "type": "uint8"
        },
        {
          "internalType": "address",
          "name": "account",
          "type": "address"
        }
      ],
      "name": "revokeCollectionRole",
      "outputs": [],
      "stateMutability": "nonpayable",
      "type": "function"
    },
    {
      "inputs": [
        {
          "internalType": "uint256",
          "name": "tokenId",
          "type": "uint256"
        },
        {
          "internalType": "enum AccessControl.Roles",
          "name": "role",
          "type": "uint8"
        },
        {
          "internalType": "address",
          "name": "account",
          "type": "address"
        }
      ],
      "name": "revokeTokenRole",
      "outputs": [],
      "stateMutability": "nonpayable",
      "type": "function"
    },
    {
      "inputs": [
        {
          "internalType": "uint256",
          "name": "tokenId",
          "type": "uint256"
        },
        {
          "internalType": "uint256",
          "name": "salePrice",
          "type": "uint256"
        }
      ],
      "name": "royaltyInfo",
      "outputs": [
        {
          "internalType": "address",
          "name": "",
          "type": "address"
        },
        {
          "internalType": "uint256",
          "name": "",
          "type": "uint256"
        }
      ],
      "stateMutability": "view",
      "type": "function"
    },
    {
      "inputs": [
        {
          "internalType": "address",
          "name": "from",
          "type": "address"
        },
        {
          "internalType": "address",
          "name": "to",
          "type": "address"
        },
        {
          "internalType": "uint256",
          "name": "tokenId",
          "type": "uint256"
        }
      ],
      "name": "safeTransferFrom",
      "outputs": [],
      "stateMutability": "nonpayable",
      "type": "function"
    },
    {
      "inputs": [
        {
          "internalType": "address",
          "name": "from",
          "type": "address"
        },
        {
          "internalType": "address",
          "name": "to",
          "type": "address"
        },
        {
          "internalType": "uint256",
          "name": "tokenId",
          "type": "uint256"
        },
        {
          "internalType": "bytes",
          "name": "_data",
          "type": "bytes"
        }
      ],
      "name": "safeTransferFrom",
      "outputs": [],
      "stateMutability": "nonpayable",
      "type": "function"
    },
    {
      "inputs": [],
      "name": "selfDestruct",
      "outputs": [],
      "stateMutability": "nonpayable",
      "type": "function"
    },
    {
      "inputs": [
        {
          "internalType": "address",
          "name": "operator",
          "type": "address"
        },
        {
          "internalType": "bool",
          "name": "approved",
          "type": "bool"
        }
      ],
      "name": "setApprovalForAll",
      "outputs": [],
      "stateMutability": "nonpayable",
      "type": "function"
    },
    {
      "inputs": [
        {
          "internalType": "string",
          "name": "name",
          "type": "string"
        },
        {
          "internalType": "string",
          "name": "description",
          "type": "string"
        },
        {
          "internalType": "string",
          "name": "image",
          "type": "string"
        },
        {
          "internalType": "string",
          "name": "externalLink",
          "type": "string"
        }
      ],
      "name": "setContract",
      "outputs": [],
      "stateMutability": "nonpayable",
      "type": "function"
    },
    {
      "inputs": [
        {
          "internalType": "uint256",
          "name": "tokenId",
          "type": "uint256"
        },
        {
          "internalType": "string",
          "name": "html",
          "type": "string"
        },
        {
          "internalType": "string",
          "name": "css",
          "type": "string"
        },
        {
          "internalType": "string",
          "name": "js",
          "type": "string"
        }
      ],
      "name": "setTokenAnimation",
      "outputs": [],
      "stateMutability": "nonpayable",
      "type": "function"
    },
    {
      "inputs": [
        {
          "internalType": "uint256",
          "name": "tokenId",
          "type": "uint256"
        },
        {
          "internalType": "string",
          "name": "_commitHash",
          "type": "string"
        },
        {
          "internalType": "string",
          "name": "_gitRepository",
          "type": "string"
        }
      ],
      "name": "setTokenBuild",
      "outputs": [],
      "stateMutability": "nonpayable",
      "type": "function"
    },
    {
      "inputs": [
        {
          "internalType": "uint256",
          "name": "tokenId",
          "type": "uint256"
        },
        {
          "internalType": "string",
          "name": "_tokenDescription",
          "type": "string"
        }
      ],
      "name": "setTokenDescription",
      "outputs": [],
      "stateMutability": "nonpayable",
      "type": "function"
    },
    {
      "inputs": [
        {
          "internalType": "uint256",
          "name": "tokenId",
          "type": "uint256"
        },
        {
          "internalType": "string",
          "name": "_tokenENS",
          "type": "string"
        }
      ],
      "name": "setTokenENS",
      "outputs": [],
      "stateMutability": "nonpayable",
      "type": "function"
    },
    {
      "inputs": [
        {
          "internalType": "uint256",
          "name": "tokenId",
          "type": "uint256"
        },
        {
          "internalType": "string",
          "name": "_tokenExternalURL",
          "type": "string"
        }
      ],
      "name": "setTokenExternalURL",
      "outputs": [],
      "stateMutability": "nonpayable",
      "type": "function"
    },
    {
      "inputs": [
        {
          "internalType": "uint256",
          "name": "tokenId",
          "type": "uint256"
        },
        {
          "internalType": "string",
          "name": "_tokenImage",
          "type": "string"
        }
      ],
      "name": "setTokenImage",
      "outputs": [],
      "stateMutability": "nonpayable",
      "type": "function"
    },
    {
      "inputs": [
        {
          "internalType": "uint256",
          "name": "tokenId",
          "type": "uint256"
        },
        {
          "internalType": "string",
          "name": "_tokenName",
          "type": "string"
        }
      ],
      "name": "setTokenName",
      "outputs": [],
      "stateMutability": "nonpayable",
      "type": "function"
    },
    {
      "inputs": [
        {
          "internalType": "address",
          "name": "to",
          "type": "address"
        },
        {
          "internalType": "uint256",
          "name": "tokenId",
          "type": "uint256"
        },
        {
          "internalType": "uint96",
          "name": "value",
          "type": "uint96"
        }
      ],
      "name": "setTokenRoyalty",
      "outputs": [],
      "stateMutability": "nonpayable",
      "type": "function"
    },
    {
      "inputs": [
        {
          "internalType": "address",
          "name": "marketContract",
          "type": "address"
        },
        {
          "internalType": "uint256",
          "name": "tokenId",
          "type": "uint256"
        },
        {
          "internalType": "uint256",
          "name": "_tokenValue",
          "type": "uint256"
        }
      ],
      "name": "setTokenValue",
      "outputs": [],
      "stateMutability": "nonpayable",
      "type": "function"
    },
    {
      "inputs": [
        {
          "internalType": "bytes4",
          "name": "interfaceId",
          "type": "bytes4"
        }
      ],
      "name": "supportsInterface",
      "outputs": [
        {
          "internalType": "bool",
          "name": "",
          "type": "bool"
        }
      ],
      "stateMutability": "view",
      "type": "function"
    },
    {
      "inputs": [],
      "name": "symbol",
      "outputs": [
        {
          "internalType": "string",
          "name": "",
          "type": "string"
        }
      ],
      "stateMutability": "view",
      "type": "function"
    },
    {
      "inputs": [
        {
          "internalType": "uint256",
          "name": "index",
          "type": "uint256"
        }
      ],
      "name": "tokenByIndex",
      "outputs": [
        {
          "internalType": "uint256",
          "name": "",
          "type": "uint256"
        }
      ],
      "stateMutability": "view",
      "type": "function"
    },
    {
      "inputs": [
        {
          "internalType": "address",
          "name": "owner",
          "type": "address"
        },
        {
          "internalType": "uint256",
          "name": "index",
          "type": "uint256"
        }
      ],
      "name": "tokenOfOwnerByIndex",
      "outputs": [
        {
          "internalType": "uint256",
          "name": "",
          "type": "uint256"
        }
      ],
      "stateMutability": "view",
      "type": "function"
    },
    {
      "inputs": [
        {
          "internalType": "uint256",
          "name": "tokenId",
          "type": "uint256"
        }
      ],
      "name": "tokenURI",
      "outputs": [
        {
          "internalType": "string",
          "name": "",
          "type": "string"
        }
      ],
      "stateMutability": "view",
      "type": "function"
    },
    {
      "inputs": [],
      "name": "totalSupply",
      "outputs": [
        {
          "internalType": "uint256",
          "name": "",
          "type": "uint256"
        }
      ],
      "stateMutability": "view",
      "type": "function"
    },
    {
      "inputs": [
        {
          "internalType": "address",
          "name": "to",
          "type": "address"
        },
        {
          "internalType": "uint256",
          "name": "tokenId",
          "type": "uint256"
        }
      ],
      "name": "transactionNFA",
      "outputs": [],
      "stateMutability": "payable",
      "type": "function"
    },
    {
      "inputs": [
        {
          "internalType": "address",
          "name": "from",
          "type": "address"
        },
        {
          "internalType": "address",
          "name": "to",
          "type": "address"
        },
        {
          "internalType": "uint256",
          "name": "tokenId",
          "type": "uint256"
        }
      ],
      "name": "transferFrom",
      "outputs": [],
      "stateMutability": "nonpayable",
      "type": "function"
    }
  ],
  "bytecode": "0x60806040523480156200001157600080fd5b506040516200540838038062005408833981016040819052620000349162000314565b8151829082906200004d906000906020850190620001b7565b50805162000063906001906020840190620001b7565b505050620000796000336200008160201b60201c565b5050620003e7565b60006200009a600c6200014c60201b620025171760201c565b6000818152600d60205260408120919250620000f59190856001811115620000c657620000c6620003bb565b6001811115620000da57620000da620003bb565b8152602001908152602001600020836200015060201b60201c565b816001600160a01b0316836001811115620001145762000114620003bb565b6040513381527fcf081ed2b728e3115904be00eb8927b2375ff3401839b37f7accfa1bb2bee15c9060200160405180910390a3505050565b5490565b6001600160a01b038116600090815260208390526040902054620001b3576001828101805491820181556000818152602080822090930180546001600160a01b0319166001600160a01b0386169081179091559154918152918490526040909120555b5050565b828054620001c5906200037e565b90600052602060002090601f016020900481019282620001e9576000855562000234565b82601f106200020457805160ff191683800117855562000234565b8280016001018555821562000234579182015b828111156200023457825182559160200191906001019062000217565b506200024292915062000246565b5090565b5b8082111562000242576000815560010162000247565b600082601f8301126200026f57600080fd5b81516001600160401b03808211156200028c576200028c620003d1565b604051601f8301601f19908116603f01168101908282118183101715620002b757620002b7620003d1565b81604052838152602092508683858801011115620002d457600080fd5b600091505b83821015620002f85785820183015181830184015290820190620002d9565b838211156200030a5760008385830101525b9695505050505050565b600080604083850312156200032857600080fd5b82516001600160401b03808211156200034057600080fd5b6200034e868387016200025d565b935060208501519150808211156200036557600080fd5b5062000374858286016200025d565b9150509250929050565b600181811c908216806200039357607f821691505b60208210811415620003b557634e487b7160e01b600052602260045260246000fd5b50919050565b634e487b7160e01b600052602160045260246000fd5b634e487b7160e01b600052604160045260246000fd5b61501180620003f76000396000f3fe6080604052600436106102725760003560e01c806370a082311161014f578063a27d0b27116100c1578063c87b56dd1161007a578063c87b56dd146107af578063cdb0e89e146107cf578063e8a3d485146107ef578063e944725014610804578063e985e9c514610824578063f93151771461086d57600080fd5b8063a27d0b27146106fc578063a6a794891461071c578063a7ad21a81461072f578063b42dbe381461074f578063b88d4fde1461076f578063c0f871db1461078f57600080fd5b80638c3c0a44116101135780638c3c0a441461063857806393e2aef41461065857806395d89b411461069f5780639b503615146106b45780639cb8a26a146106c7578063a22cb465146106dc57600080fd5b806370a08231146105935780637469d068146105b357806378278cca146105d85780637e91fd4d146105f85780638a616bc01461061857600080fd5b80632d957aad116101e857806342842e0e116101ac57806342842e0e146104d357806342966c68146104f35780634e08b9ad146105135780634f6ccce7146105335780636352211e1461055357806364140ec01461057357600080fd5b80632d957aad146104265780632f1e8f0a146104465780632f745c5914610473578063353b07a4146104935780633806f152146104b357600080fd5b80630cb0ee981161023a5780630cb0ee981461034857806318160ddd146103685780631821ddb61461038757806323b872dd146103a7578063246a908b146103c75780632a55205a146103e757600080fd5b806301468deb1461027757806301ffc9a71461029957806306fdde03146102ce578063081812fc146102f0578063095ea7b314610328575b600080fd5b34801561028357600080fd5b50610297610292366004614395565b61088d565b005b3480156102a557600080fd5b506102b96102b4366004614212565b6108e4565b60405190151581526020015b60405180910390f35b3480156102da57600080fd5b506102e36108f5565b6040516102c59190614c18565b3480156102fc57600080fd5b5061031061030b366004614359565b610987565b6040516001600160a01b0390911681526020016102c5565b34801561033457600080fd5b50610297610343366004614169565b610a1c565b34801561035457600080fd5b506102976103633660046141c6565b610b32565b34801561037457600080fd5b506008545b6040519081526020016102c5565b34801561039357600080fd5b506102976103a2366004614485565b610b83565b3480156103b357600080fd5b506102976103c2366004613f24565b610cd2565b3480156103d357600080fd5b506102976103e23660046143d1565b610d03565b3480156103f357600080fd5b506104076104023660046144ba565b610db6565b604080516001600160a01b0390931683526020830191909152016102c5565b34801561043257600080fd5b50610297610441366004614267565b610e62565b34801561045257600080fd5b50610466610461366004614372565b610ea5565b6040516102c59190614bcb565b34801561047f57600080fd5b5061037961048e366004614169565b610f5f565b34801561049f57600080fd5b506104666104ae36600461424c565b610ff5565b3480156104bf57600080fd5b506102976104ce366004614418565b6110a8565b3480156104df57600080fd5b506102976104ee366004613f24565b6111b7565b3480156104ff57600080fd5b5061029761050e366004614359565b6111d2565b34801561051f57600080fd5b506102e361052e366004614324565b6112bd565b34801561053f57600080fd5b5061037961054e366004614359565b61133a565b34801561055f57600080fd5b5061031061056e366004614359565b6113cd565b34801561057f57600080fd5b5061029761058e3660046143d1565b611444565b34801561059f57600080fd5b506103796105ae366004613ed6565b6114f7565b3480156105bf57600080fd5b506105c861157e565b6040516102c59493929190614c2b565b3480156105e457600080fd5b506102976105f33660046143d1565b6117ba565b34801561060457600080fd5b50610297610613366004614359565b61186d565b34801561062457600080fd5b50610297610633366004614359565b611910565b34801561064457600080fd5b50610297610653366004614267565b61192d565b34801561066457600080fd5b50610678610673366004614359565b611970565b604080516001600160a01b0390931683526001600160601b039091166020830152016102c5565b3480156106ab57600080fd5b506102e36119f7565b6103796106c2366004614018565b611a06565b3480156106d357600080fd5b50610297611bb8565b3480156106e857600080fd5b506102976106f7366004613fdc565b611bf5565b34801561070857600080fd5b50610297610717366004614395565b611c04565b61029761072a366004614169565b611c4b565b34801561073b57600080fd5b5061029761074a366004614283565b611d54565b34801561075b57600080fd5b506102b961076a366004614395565b612072565b34801561077b57600080fd5b5061029761078a366004613f60565b6120ea565b34801561079b57600080fd5b506102976107aa366004614193565b612122565b3480156107bb57600080fd5b506102e36107ca366004614359565b6121ca565b3480156107db57600080fd5b506102976107ea3660046143d1565b6122dc565b3480156107fb57600080fd5b506102e3612389565b34801561081057600080fd5b506102b961081f366004614267565b6123f2565b34801561083057600080fd5b506102b961083f366004613ef1565b6001600160a01b03918216600090815260056020908152604080832093909416825291909152205460ff1690565b34801561087957600080fd5b506102976108883660046143d1565b612464565b82600061089b828233612072565b806108ad57506108ad82600033612072565b6108d25760405162461bcd60e51b81526004016108c990614d16565b60405180910390fd5b6108dd85858561251b565b5050505050565b60006108ef826125d2565b92915050565b60606000805461090490614e97565b80601f016020809104026020016040519081016040528092919081815260200182805461093090614e97565b801561097d5780601f106109525761010080835404028352916020019161097d565b820191906000526020600020905b81548152906001019060200180831161096057829003601f168201915b5050505050905090565b6000818152600260205260408120546001600160a01b0316610a005760405162461bcd60e51b815260206004820152602c60248201527f4552433732313a20617070726f76656420717565727920666f72206e6f6e657860448201526b34b9ba32b73a103a37b5b2b760a11b60648201526084016108c9565b506000908152600460205260409020546001600160a01b031690565b6000610a27826113cd565b9050806001600160a01b0316836001600160a01b03161415610a955760405162461bcd60e51b815260206004820152602160248201527f4552433732313a20617070726f76616c20746f2063757272656e74206f776e656044820152603960f91b60648201526084016108c9565b336001600160a01b0382161480610ab15750610ab1813361083f565b610b235760405162461bcd60e51b815260206004820152603860248201527f4552433732313a20617070726f76652063616c6c6572206973206e6f74206f7760448201527f6e6572206e6f7220617070726f76656420666f7220616c6c000000000000000060648201526084016108c9565b610b2d83836125f7565b505050565b610b3b82612665565b610b46828483612699565b60405133906001600160601b0383169084907fd2d934b82422fdab267998d02312dcf3c7873b381190b16d9b839440a3be69c690600090a4505050565b836001610b91828233612072565b80610ba35750610ba382600033612072565b610bbf5760405162461bcd60e51b81526004016108c990614d16565b610bc886612665565b60408051606081018252868152602080820187905281830186905291519091600091610bfa9188918a91899101614a7a565b60405160208183030381529060405290506000610c156127a7565b610c3d83604051602001610c2991906145d1565b6040516020818303038152906040526127de565b604051602001610c4e9291906145a2565b60408051601f1981840301815291815260008b8152601560209081529190208251929350610c8492600490910191840190613c97565b506040513390610c959083906145d1565b604051908190038120908b907fd46984490a4483750157fda9ad55db9c811edd43baa9a92a390c6904cf1839b290600090a4505050505050505050565b610cdc3382612932565b610cf85760405162461bcd60e51b81526004016108c990614da1565b610b2d8383836129e4565b816001610d11828233612072565b80610d235750610d2382600033612072565b610d3f5760405162461bcd60e51b81526004016108c990614d16565b610d4884612665565b60008481526015602090815260409091208451610d6d92600190920191860190613c97565b506040513390610d7e9085906145d1565b6040519081900381209086907fd771eaa1c1382b0a9867125fcd921fdeddd211538b5381353a877abfbe3b50a490600090a450505050565b6000828152600b602090815260408083208151808301909252546001600160a01b038116808352600160a01b9091046001600160601b0316928201929092528291610e2b575060408051808201909152600a546001600160a01b0381168252600160a01b90046001600160601b031660208201525b602081015160009061271090610e4a906001600160601b031687614e1e565b610e549190614e0a565b915196919550909350505050565b6000610e6e81336123f2565b80610e7f5750610e7f6000336123f2565b610e9b5760405162461bcd60e51b81526004016108c990614d59565b610b2d8383612b91565b6000828152600e6020908152604080832054600f83528184208185529092528220606092846001811115610edb57610edb614f2d565b6001811115610eec57610eec614f2d565b8152602001908152602001600020600101805480602002602001604051908101604052809291908181526020018280548015610f5157602002820191906000526020600020905b81546001600160a01b03168152600190910190602001808311610f33575b505050505091505092915050565b6000610f6a836114f7565b8210610fcc5760405162461bcd60e51b815260206004820152602b60248201527f455243373231456e756d657261626c653a206f776e657220696e646578206f7560448201526a74206f6620626f756e647360a81b60648201526084016108c9565b506001600160a01b03919091166000908152600660209081526040808320938352929052205490565b60606000611002600c5490565b6000818152600d6020526040812091925084600181111561102557611025614f2d565b600181111561103657611036614f2d565b815260200190815260200160002060010180548060200260200160405190810160405280929190818152602001828054801561109b57602002820191906000526020600020905b81546001600160a01b0316815260019091019060200180831161107d575b5050505050915050919050565b8260016110b6828233612072565b806110c857506110c882600033612072565b6110e45760405162461bcd60e51b81526004016108c990614d16565b6110ed85612665565b6040805180820182528581526020808201869052600088815260159091529182206008810180549293600990920192829061112790614ed2565b9182905550815260208082019290925260400160002082518051919261115292849290910190613c97565b50602082810151805161116b9260018501920190613c97565b505060405133915061117e9086906145d1565b6040519081900381209087907f73b929bf4db6be678cdbc6d41a5fe0a2cbb84ca95572062c4a978d8bd80a41b190600090a45050505050565b610b2d838383604051806020016040528060008152506120ea565b8060006111e0828233612072565b806111f257506111f282600033612072565b61120e5760405162461bcd60e51b81526004016108c990614d16565b61121783612c3e565b6000838152601560205260409020600301805461123390614e97565b159050610b2d576000838152601560205260408120906112538282613d1b565b611261600183016000613d1b565b61126f600283016000613d1b565b61127d600383016000613d1b565b61128b600483016000613d1b565b60058201805460ff191690556000600683018190556112ae906007840190613d1b565b60088201600090555050505050565b606060008260200151836000015184604001516040516020016112e293929190614a7a565b604051602081830303815290604052905060006112fd6127a7565b61131183604051602001610c2991906145d1565b6040516020016113229291906145a2565b60408051601f19818403018152919052949350505050565b600061134560085490565b82106113a85760405162461bcd60e51b815260206004820152602c60248201527f455243373231456e756d657261626c653a20676c6f62616c20696e646578206f60448201526b7574206f6620626f756e647360a01b60648201526084016108c9565b600882815481106113bb576113bb614f59565b90600052602060002001549050919050565b6000818152600260205260408120546001600160a01b0316806108ef5760405162461bcd60e51b815260206004820152602960248201527f4552433732313a206f776e657220717565727920666f72206e6f6e657869737460448201526832b73a103a37b5b2b760b91b60648201526084016108c9565b816001611452828233612072565b80611464575061146482600033612072565b6114805760405162461bcd60e51b81526004016108c990614d16565b61148984612665565b600084815260156020908152604090912084516114ae92600290920191860190613c97565b5060405133906114bf9085906145d1565b6040519081900381209086907f80f081796a13b5a4269815447e37462c5739a69ea7f1460301b595e0c4003d8390600090a450505050565b60006001600160a01b0382166115625760405162461bcd60e51b815260206004820152602a60248201527f4552433732313a2062616c616e636520717565727920666f7220746865207a65604482015269726f206164647265737360b01b60648201526084016108c9565b506001600160a01b031660009081526003602052604090205490565b60118054819061158d90614e97565b80601f01602080910402602001604051908101604052809291908181526020018280546115b990614e97565b80156116065780601f106115db57610100808354040283529160200191611606565b820191906000526020600020905b8154815290600101906020018083116115e957829003601f168201915b50505050509080600101805461161b90614e97565b80601f016020809104026020016040519081016040528092919081815260200182805461164790614e97565b80156116945780601f1061166957610100808354040283529160200191611694565b820191906000526020600020905b81548152906001019060200180831161167757829003601f168201915b5050505050908060020180546116a990614e97565b80601f01602080910402602001604051908101604052809291908181526020018280546116d590614e97565b80156117225780601f106116f757610100808354040283529160200191611722565b820191906000526020600020905b81548152906001019060200180831161170557829003601f168201915b50505050509080600301805461173790614e97565b80601f016020809104026020016040519081016040528092919081815260200182805461176390614e97565b80156117b05780601f10611785576101008083540402835291602001916117b0565b820191906000526020600020905b81548152906001019060200180831161179357829003601f168201915b5050505050905084565b8160016117c8828233612072565b806117da57506117da82600033612072565b6117f65760405162461bcd60e51b81526004016108c990614d16565b6117ff84612665565b6000848152601560209081526040909120845161182492600790920191860190613c97565b5060405133906118359085906145d1565b6040519081900381209086907f91ce7fcd4462481791c3fe849f7049373c5b43ef44aed48e7f1ecce781586e1590600090a450505050565b80600161187b828233612072565b8061188d575061188d82600033612072565b6118a95760405162461bcd60e51b81526004016108c990614d16565b6118b283612665565b600083815260156020526040812060068101829055600501805460ff191690556118dc9084610a1c565b604051339060009085907f937ae5ba1a94a43da1581f1203e85b4fa088d704cfe6d5ab2940b775d5a63dd5908390a4505050565b61191981612665565b6000908152600b6020526040812055565b50565b600061193981336123f2565b8061194a575061194a6000336123f2565b6119665760405162461bcd60e51b81526004016108c990614d59565b610b2d8383612ced565b6000818152600b602090815260408083208151808301909252546001600160a01b038116808352600160a01b9091046001600160601b03169282019290925282916119e5575060408051808201909152600a546001600160a01b0381168252600160a01b90046001600160601b031660208201525b80516020909101519094909350915050565b60606001805461090490614e97565b600080611a1381336123f2565b80611a245750611a246000336123f2565b611a405760405162461bcd60e51b81526004016108c990614d59565b6000611a4b60105490565b9050611a578c82612d6c565b611a65601080546001019055565b60408051606081018252855181526020808701519082015285820151918101919091526000611a93826112bd565b905060006015600085815260200190815260200160002090508d816000019080519060200190611ac4929190613c97565b508c816001019080519060200190611add929190613c97565b508b51611af390600283019060208f0190613c97565b508a51611b0990600383019060208e0190613c97565b508151611b1f9060048301906020850190613c97565b508951611b3590600783019060208d0190613c97565b5060058101805460ff19169055600060068201819055600882018190556040805180820182528b815260208082018c905283805260098501815291909220825180519192611b8892849290910190613c97565b506020828101518051611ba19260018501920190613c97565b509496505050505050509998505050505050505050565b6000611bc481336123f2565b80611bd55750611bd56000336123f2565b611bf15760405162461bcd60e51b81526004016108c990614d59565b3380ff5b611c00338383612ec2565b5050565b826000611c12828233612072565b80611c245750611c2482600033612072565b611c405760405162461bcd60e51b81526004016108c990614d16565b6108dd858585612f89565b6000611c56826113cd565b90506001600160a01b038116331415611c6e57600080fd5b6001600160a01b038116611c8157600080fd5b611c8a82612665565b6000828152601560205260409020600681015434811115611caa57600080fd5b600582015460ff161515600114611cc057600080fd5b611cca8585610a1c565b6040516001600160a01b0384169082156108fc029083906000818181858888f19350505050158015611d00573d6000803e3d6000fd5b50611d0c8386866111b7565b60006006830181905560058301805460ff191690556040513391839187917f3f9b9a84d6cbcffa546a93b9831489d1db2f59675aabc4541bb5eb820e6fd34b91a45050505050565b6000611d6081336123f2565b80611d715750611d716000336123f2565b611d8d5760405162461bcd60e51b81526004016108c990614d59565b60006011604051806080016040529081600082018054611dac90614e97565b80601f0160208091040260200160405190810160405280929190818152602001828054611dd890614e97565b8015611e255780601f10611dfa57610100808354040283529160200191611e25565b820191906000526020600020905b815481529060010190602001808311611e0857829003601f168201915b50505050508152602001600182018054611e3e90614e97565b80601f0160208091040260200160405190810160405280929190818152602001828054611e6a90614e97565b8015611eb75780601f10611e8c57610100808354040283529160200191611eb7565b820191906000526020600020905b815481529060010190602001808311611e9a57829003601f168201915b50505050508152602001600282018054611ed090614e97565b80601f0160208091040260200160405190810160405280929190818152602001828054611efc90614e97565b8015611f495780601f10611f1e57610100808354040283529160200191611f49565b820191906000526020600020905b815481529060010190602001808311611f2c57829003601f168201915b50505050508152602001600382018054611f6290614e97565b80601f0160208091040260200160405190810160405280929190818152602001828054611f8e90614e97565b8015611fdb5780601f10611fb057610100808354040283529160200191611fdb565b820191906000526020600020905b815481529060010190602001808311611fbe57829003601f168201915b5050509190925250505086815260208082018790526040820186905260608201859052875191925082916011916120169183918b0190613c97565b50602082810151805161202f9260018501920190613c97565b506040820151805161204b916002840191602090910190613c97565b5060608201518051612067916003840191602090910190613c97565b505050505050505050565b6000838152600e6020908152604080832054600f83528184208185529092528220828560018111156120a6576120a6614f2d565b60018111156120b7576120b7614f2d565b8152602080820192909252604090810160009081206001600160a01b038716825290925290205415159150509392505050565b6120f43383612932565b6121105760405162461bcd60e51b81526004016108c990614da1565b61211c84848484613011565b50505050565b816001612130828233612072565b80612142575061214282600033612072565b61215e5760405162461bcd60e51b81526004016108c990614d16565b61216784612665565b600084815260156020526040902060068101849055600501805460ff191660011790556121948585610a1c565b6040513390849086907f937ae5ba1a94a43da1581f1203e85b4fa088d704cfe6d5ab2940b775d5a63dd590600090a45050505050565b60606121d582612665565b60006121e0836113cd565b60008481526015602052604081209192506121fa82613044565b905060006122078361306e565b9050600061221485613084565b90506000612221856130aa565b9050600061222e866130c0565b9050600061223b876130d6565b90506000612248886130ec565b905060006122558961314c565b905060006122628a61316b565b90506000898989898989898989604051602001612287999897969594939291906147d8565b60405160208183030381529060405290506122a06127a7565b6122a9826127de565b6040516020016122ba9291906145a2565b6040516020818303038152906040529c50505050505050505050505050919050565b8160016122ea828233612072565b806122fc57506122fc82600033612072565b6123185760405162461bcd60e51b81526004016108c990614d16565b61232184612665565b6000848152601560209081526040909120845161234092860190613c97565b5060405133906123519085906145d1565b6040519081900381209086907ffbbfca16a2770c7ca6e7063ab1a7eea5fe441ffef818325db51752066a6b128a90600090a450505050565b6040516060906000906123aa906011906012906014906013906020016148da565b60405160208183030381529060405290506123c36127a7565b6123cc826127de565b6040516020016123dd9291906145a2565b60405160208183030381529060405291505090565b6000806123fe600c5490565b6000818152600d6020526040812091925085600181111561242157612421614f2d565b600181111561243257612432614f2d565b8152602080820192909252604090810160009081206001600160a01b0387168252909252902054151591505092915050565b816001612472828233612072565b80612484575061248482600033612072565b6124a05760405162461bcd60e51b81526004016108c990614d16565b6124a984612665565b600084815260156020908152604090912084516124ce92600390920191860190613c97565b5060405133906124df9085906145d1565b6040519081900381209086907fedbf1209b3baa7c1b5c43052ce5c511e243b3241d9f67733141d14f1da88cba190600090a450505050565b5490565b6000838152600e6020908152604080832054600f83528184208185529092528220909161257a919085600181111561255557612555614f2d565b600181111561256657612566614f2d565b815260200190815260200160002083613255565b816001600160a01b031683600181111561259657612596614f2d565b60405133815286907fe52d746e4c78c98c6bfa291b273406905c3e8550b7d911a6bea686368c2dc79d906020015b60405180910390a450505050565b60006001600160e01b0319821663152a902d60e11b14806108ef57506108ef82613399565b600081815260046020526040902080546001600160a01b0319166001600160a01b038416908117909155819061262c826113cd565b6001600160a01b03167f8c5be1e5ebec7d5bd14f71427d1e84f3dd0314c0f7b2291e5b200ac8c7c3b92560405160405180910390a45050565b6000818152600260205260409020546001600160a01b031661192a5760405162461bcd60e51b81526004016108c990614cca565b6127106001600160601b03821611156127075760405162461bcd60e51b815260206004820152602a60248201527f455243323938313a20726f79616c7479206665652077696c6c206578636565646044820152692073616c65507269636560b01b60648201526084016108c9565b6001600160a01b03821661275d5760405162461bcd60e51b815260206004820152601b60248201527f455243323938313a20496e76616c696420706172616d6574657273000000000060448201526064016108c9565b6040805180820182526001600160a01b0393841681526001600160601b0392831660208083019182526000968752600b90529190942093519051909116600160a01b029116179055565b60408051808201909152601d81527f646174613a6170706c69636174696f6e2f6a736f6e3b6261736536342c000000602082015290565b60608151600014156127fe57505060408051602081019091526000815290565b6000604051806060016040528060408152602001614f9c604091399050600060038451600261282d9190614df2565b6128379190614e0a565b612842906004614e1e565b67ffffffffffffffff81111561285a5761285a614f6f565b6040519080825280601f01601f191660200182016040528015612884576020820181803683370190505b509050600182016020820185865187015b808210156128f0576003820191508151603f8160121c168501518453600184019350603f81600c1c168501518453600184019350603f8160061c168501518453600184019350603f8116850151845350600183019250612895565b505060038651066001811461290c576002811461291f57612927565b603d6001830353603d6002830353612927565b603d60018303535b509195945050505050565b6000818152600260205260408120546001600160a01b03166129665760405162461bcd60e51b81526004016108c990614cca565b6000612971836113cd565b9050806001600160a01b0316846001600160a01b031614806129ac5750836001600160a01b03166129a184610987565b6001600160a01b0316145b806129dc57506001600160a01b0380821660009081526005602090815260408083209388168352929052205460ff165b949350505050565b826001600160a01b03166129f7826113cd565b6001600160a01b031614612a5b5760405162461bcd60e51b815260206004820152602560248201527f4552433732313a207472616e736665722066726f6d20696e636f72726563742060448201526437bbb732b960d91b60648201526084016108c9565b6001600160a01b038216612abd5760405162461bcd60e51b8152602060048201526024808201527f4552433732313a207472616e7366657220746f20746865207a65726f206164646044820152637265737360e01b60648201526084016108c9565b612ac88383836133be565b612ad36000826125f7565b6001600160a01b0383166000908152600360205260408120805460019290612afc908490614e3d565b90915550506001600160a01b0382166000908152600360205260408120805460019290612b2a908490614df2565b909155505060008181526002602052604080822080546001600160a01b0319166001600160a01b0386811691821790925591518493918716917fddf252ad1be2c89b69c2b068fc378daa952ba7f163c4a11628f55a4df523b3ef91a4610b2d8383836134dc565b6000612b9c600c5490565b6000818152600d60205260408120919250612be99190856001811115612bc457612bc4614f2d565b6001811115612bd557612bd5614f2d565b81526020019081526020016000208361353c565b816001600160a01b0316836001811115612c0557612c05614f2d565b6040513381527fcf081ed2b728e3115904be00eb8927b2375ff3401839b37f7accfa1bb2bee15c906020015b60405180910390a3505050565b6000612c49826113cd565b9050612c57816000846133be565b612c626000836125f7565b6001600160a01b0381166000908152600360205260408120805460019290612c8b908490614e3d565b909155505060008281526002602052604080822080546001600160a01b0319169055518391906001600160a01b038416907fddf252ad1be2c89b69c2b068fc378daa952ba7f163c4a11628f55a4df523b3ef908390a4611c00816000846134dc565b6000612cf8600c5490565b6000818152600d60205260408120919250612d20919085600181111561255557612555614f2d565b816001600160a01b0316836001811115612d3c57612d3c614f2d565b6040513381527faeff57f0f5e4d3d10a37d4a70fde8ed67a95e67b251d5c512c0ea98c380d2f9590602001612c31565b6001600160a01b038216612dc25760405162461bcd60e51b815260206004820181905260248201527f4552433732313a206d696e7420746f20746865207a65726f206164647265737360448201526064016108c9565b6000818152600260205260409020546001600160a01b031615612e275760405162461bcd60e51b815260206004820152601c60248201527f4552433732313a20746f6b656e20616c7265616479206d696e7465640000000060448201526064016108c9565b612e33600083836133be565b6001600160a01b0382166000908152600360205260408120805460019290612e5c908490614df2565b909155505060008181526002602052604080822080546001600160a01b0319166001600160a01b03861690811790915590518392907fddf252ad1be2c89b69c2b068fc378daa952ba7f163c4a11628f55a4df523b3ef908290a4611c00600083836134dc565b816001600160a01b0316836001600160a01b03161415612f245760405162461bcd60e51b815260206004820152601960248201527f4552433732313a20617070726f766520746f2063616c6c65720000000000000060448201526064016108c9565b6001600160a01b03838116600081815260056020908152604080832094871680845294825291829020805460ff191686151590811790915591519182527f17307eab39ab6107e8899845ad3d59bd9653f200f220920489ca2b5937696c319101612c31565b6000838152600e6020908152604080832054600f835281842081855290925282209091612fc39190856001811115612bc457612bc4614f2d565b816001600160a01b0316836001811115612fdf57612fdf614f2d565b60405133815286907f0bf5a13b362503fcc74b8b9b1598aba2f3a9af85d05ba7978f7e9f447f22c239906020016125c4565b61301c8484846129e4565b6130288484848461359f565b61211c5760405162461bcd60e51b81526004016108c990614c78565b60405160609061305890839060200161475f565b6040516020818303038152906040529050919050565b6060816001016040516020016130589190614624565b606061309a826001600160a01b031660146136ac565b60405160200161305891906149e1565b60608160030160405160200161305891906145ed565b606081600201604051602001613058919061477c565b60608160040160405160200161305891906146e5565b600581015460609060ff1661311e576040518060400160405280600581526020016466616c736560d81b81525061313c565b604051806040016040528060048152602001637472756560e01b8152505b60405160200161305891906146a5565b606061315b826006015461384f565b604051602001613058919061479a565b604080516000815260208101909152606090806131878461394d565b6040516020016131989291906145a2565b6040516020818303038152906040529050806131b384613963565b6040516020016131c49291906145a2565b6040516020818303038152906040529050806131df84613991565b6040516020016131f09291906145a2565b60405160208183030381529060405290508061320b846139bf565b60405160200161321c9291906145a2565b60405160208183030381529060405290508060405160200161323e919061499e565b604051602081830303815290604052915050919050565b6001600160a01b03811660009081526020839052604090205415611c00576001600160a01b03811660009081526020839052604081205461329890600190614e3d565b6001848101549192506000916132ae9190614e3d565b905060008460010182815481106132c7576132c7614f59565b6000918252602090912001546001860180546001600160a01b0390921692508291859081106132f8576132f8614f59565b600091825260209091200180546001600160a01b0319166001600160a01b039290921691909117905561332c836001614df2565b6001600160a01b0382166000908152602087905260409020556001850180548061335857613358614f43565b60008281526020808220830160001990810180546001600160a01b03191690559092019092556001600160a01b038616825286905260408120555050505050565b60006001600160e01b0319821663780e9d6360e01b14806108ef57506108ef826139de565b6001600160a01b038316158015906133de57506001600160a01b03821615155b156133f2576133ed8183613a2e565b613430565b6001600160a01b03831661340c576133ed81600084612f89565b6001600160a01b038216613430576000818152600e60205260409020805460010190555b600081815260156020526040812060060154908061344e8484610db6565b909250905080156134c9576040516001600160a01b0383169082156108fc029083906000818181858888f1935050505015801561348f573d6000803e3d6000fd5b50856001600160a01b031681857f40ddb618d352ad261434216e52c90ac449fcfb2c8a783a79bf2a19fe98f6377e60405160405180910390a45b6134d4868686613a4f565b505050505050565b6000818152601560205260408120600681018054929055600501805460ff19169055836001600160a01b031681837f3f9b9a84d6cbcffa546a93b9831489d1db2f59675aabc4541bb5eb820e6fd34b60405160405180910390a450505050565b6001600160a01b038116600090815260208390526040902054611c00576001828101805491820181556000818152602080822090930180546001600160a01b0319166001600160a01b039590951694851790559054928152929052604090912055565b60006001600160a01b0384163b156136a157604051630a85bd0160e11b81526001600160a01b0385169063150b7a02906135e3903390899088908890600401614b8e565b602060405180830381600087803b1580156135fd57600080fd5b505af192505050801561362d575060408051601f3d908101601f1916820190925261362a9181019061422f565b60015b613687573d80801561365b576040519150601f19603f3d011682016040523d82523d6000602084013e613660565b606091505b50805161367f5760405162461bcd60e51b81526004016108c990614c78565b805181602001fd5b6001600160e01b031916630a85bd0160e11b1490506129dc565b506001949350505050565b606060006136bb836002614e1e565b6136c6906002614df2565b67ffffffffffffffff8111156136de576136de614f6f565b6040519080825280601f01601f191660200182016040528015613708576020820181803683370190505b509050600360fc1b8160008151811061372357613723614f59565b60200101906001600160f81b031916908160001a905350600f60fb1b8160018151811061375257613752614f59565b60200101906001600160f81b031916908160001a9053506000613776846002614e1e565b613781906001614df2565b90505b60018111156137f9576f181899199a1a9b1b9c1cb0b131b232b360811b85600f16601081106137b5576137b5614f59565b1a60f81b8282815181106137cb576137cb614f59565b60200101906001600160f81b031916908160001a90535060049490941c936137f281614e80565b9050613784565b5083156138485760405162461bcd60e51b815260206004820181905260248201527f537472696e67733a20686578206c656e67746820696e73756666696369656e7460448201526064016108c9565b9392505050565b6060816138735750506040805180820190915260018152600360fc1b602082015290565b8160005b811561389d578061388781614ed2565b91506138969050600a83614e0a565b9150613877565b60008167ffffffffffffffff8111156138b8576138b8614f6f565b6040519080825280601f01601f1916602001820160405280156138e2576020820181803683370190505b5090505b84156129dc576138f7600183614e3d565b9150613904600a86614eed565b61390f906030614df2565b60f81b81838151811061392457613924614f59565b60200101906001600160f81b031916908160001a905350613946600a86614e0a565b94506138e6565b6060816007016040516020016130589190614a06565b6060816009016000836008015481526020019081526020016000206000016040516020016130589190614a38565b606081600901600083600801548152602001908152602001600020600101604051602001613058919061470b565b60606139ce826008015461384f565b6040516020016130589190614648565b60006001600160e01b031982166380ac58cd60e01b1480613a0f57506001600160e01b03198216635b5e139f60e01b145b806108ef57506301ffc9a760e01b6001600160e01b03198316146108ef565b6000828152600e6020526040902080546001019055611c0082600083612f89565b6001600160a01b038316613aaa57613aa581600880546000838152600960205260408120829055600182018355919091527ff3f7a9fe364faab93b216da50a3214154f22a0a2b415b23a84c8169e8b636ee30155565b613acd565b816001600160a01b0316836001600160a01b031614613acd57613acd8382613b07565b6001600160a01b038216613ae457610b2d81613ba4565b826001600160a01b0316826001600160a01b031614610b2d57610b2d8282613c53565b60006001613b14846114f7565b613b1e9190614e3d565b600083815260076020526040902054909150808214613b71576001600160a01b03841660009081526006602090815260408083208584528252808320548484528184208190558352600790915290208190555b5060009182526007602090815260408084208490556001600160a01b039094168352600681528383209183525290812055565b600854600090613bb690600190614e3d565b60008381526009602052604081205460088054939450909284908110613bde57613bde614f59565b906000526020600020015490508060088381548110613bff57613bff614f59565b6000918252602080832090910192909255828152600990915260408082208490558582528120556008805480613c3757613c37614f43565b6001900381819060005260206000200160009055905550505050565b6000613c5e836114f7565b6001600160a01b039093166000908152600660209081526040808320868452825280832085905593825260079052919091209190915550565b828054613ca390614e97565b90600052602060002090601f016020900481019282613cc55760008555613d0b565b82601f10613cde57805160ff1916838001178555613d0b565b82800160010185558215613d0b579182015b82811115613d0b578251825591602001919060010190613cf0565b50613d17929150613d51565b5090565b508054613d2790614e97565b6000825580601f10613d37575050565b601f01602090049060005260206000209081019061192a91905b5b80821115613d175760008155600101613d52565b600067ffffffffffffffff80841115613d8157613d81614f6f565b604051601f8501601f19908116603f01168101908282118183101715613da957613da9614f6f565b81604052809350858152868686011115613dc257600080fd5b858560208301376000602087830101525050509392505050565b80356001600160a01b0381168114613df357600080fd5b919050565b803560028110613df357600080fd5b600082601f830112613e1857600080fd5b61384883833560208501613d66565b600060608284031215613e3957600080fd5b6040516060810167ffffffffffffffff8282108183111715613e5d57613e5d614f6f565b816040528293508435915080821115613e7557600080fd5b613e8186838701613e07565b83526020850135915080821115613e9757600080fd5b613ea386838701613e07565b60208401526040850135915080821115613ebc57600080fd5b50613ec985828601613e07565b6040830152505092915050565b600060208284031215613ee857600080fd5b61384882613ddc565b60008060408385031215613f0457600080fd5b613f0d83613ddc565b9150613f1b60208401613ddc565b90509250929050565b600080600060608486031215613f3957600080fd5b613f4284613ddc565b9250613f5060208501613ddc565b9150604084013590509250925092565b60008060008060808587031215613f7657600080fd5b613f7f85613ddc565b9350613f8d60208601613ddc565b925060408501359150606085013567ffffffffffffffff811115613fb057600080fd5b8501601f81018713613fc157600080fd5b613fd087823560208401613d66565b91505092959194509250565b60008060408385031215613fef57600080fd5b613ff883613ddc565b91506020830135801515811461400d57600080fd5b809150509250929050565b60008060008060008060008060006101208a8c03121561403757600080fd5b6140408a613ddc565b985060208a013567ffffffffffffffff8082111561405d57600080fd5b6140698d838e01613e07565b995060408c013591508082111561407f57600080fd5b61408b8d838e01613e07565b985060608c01359150808211156140a157600080fd5b6140ad8d838e01613e07565b975060808c01359150808211156140c357600080fd5b6140cf8d838e01613e07565b965060a08c01359150808211156140e557600080fd5b6140f18d838e01613e07565b955060c08c013591508082111561410757600080fd5b6141138d838e01613e07565b945060e08c013591508082111561412957600080fd5b6141358d838e01613e07565b93506101008c013591508082111561414c57600080fd5b506141598c828d01613e27565b9150509295985092959850929598565b6000806040838503121561417c57600080fd5b61418583613ddc565b946020939093013593505050565b6000806000606084860312156141a857600080fd5b6141b184613ddc565b95602085013595506040909401359392505050565b6000806000606084860312156141db57600080fd5b6141e484613ddc565b92506020840135915060408401356001600160601b038116811461420757600080fd5b809150509250925092565b60006020828403121561422457600080fd5b813561384881614f85565b60006020828403121561424157600080fd5b815161384881614f85565b60006020828403121561425e57600080fd5b61384882613df8565b6000806040838503121561427a57600080fd5b613f0d83613df8565b6000806000806080858703121561429957600080fd5b843567ffffffffffffffff808211156142b157600080fd5b6142bd88838901613e07565b955060208701359150808211156142d357600080fd5b6142df88838901613e07565b945060408701359150808211156142f557600080fd5b61430188838901613e07565b9350606087013591508082111561431757600080fd5b50613fd087828801613e07565b60006020828403121561433657600080fd5b813567ffffffffffffffff81111561434d57600080fd5b6129dc84828501613e27565b60006020828403121561436b57600080fd5b5035919050565b6000806040838503121561438557600080fd5b82359150613f1b60208401613df8565b6000806000606084860312156143aa57600080fd5b833592506143ba60208501613df8565b91506143c860408501613ddc565b90509250925092565b600080604083850312156143e457600080fd5b82359150602083013567ffffffffffffffff81111561440257600080fd5b61440e85828601613e07565b9150509250929050565b60008060006060848603121561442d57600080fd5b83359250602084013567ffffffffffffffff8082111561444c57600080fd5b61445887838801613e07565b9350604086013591508082111561446e57600080fd5b5061447b86828701613e07565b9150509250925092565b6000806000806080858703121561449b57600080fd5b84359350602085013567ffffffffffffffff808211156142d357600080fd5b600080604083850312156144cd57600080fd5b50508035926020909101359150565b600081518084526144f4816020860160208601614e54565b601f01601f19169290920160200192915050565b8054600090600181811c908083168061452257607f831692505b602080841082141561454457634e487b7160e01b600052602260045260246000fd5b818015614558576001811461456957614596565b60ff19861689528489019650614596565b60008881526020902060005b8681101561458e5781548b820152908501908301614575565b505084890196505b50505050505092915050565b600083516145b4818460208801614e54565b8351908301906145c8818360208801614e54565b01949350505050565b600082516145e3818460208701614e54565b9190910192915050565b6f1132bc3a32b93730b62fbab936111d1160811b815260006146126010830184614508565b61088b60f21b81526002019392505050565b6e113232b9b1b934b83a34b7b7111d1160891b81526000614612600f830184614508565b7f7b2274726169745f74797065223a202256657273696f6e222c202276616c7565815262111d1160e91b60208201526000825161468c816023850160208701614e54565b61227d60f01b6023939091019283015250602501919050565b6a1137b72fb9b0b632911d1160a91b815281516000906146cc81600b850160208701614e54565b61088b60f21b600b939091019283015250600d01919050565b701130b734b6b0ba34b7b72fbab936111d1160791b815260006146126011830184614508565b7f7b2274726169745f74797065223a20225265706f7369746f7279222c20227661815265363ab2911d1160d11b6020820152600061474c6026830184614508565b62089f4b60ea1b81526003019392505050565b67113730b6b2911d1160c11b815260006146126008830184614508565b681134b6b0b3b2911d1160b91b815260006146126009830184614508565b68113b30b63ab2911d1160b91b815281516000906147bf816009850160208701614e54565b61088b60f21b6009939091019283015250600b01919050565b607b60f81b815260008a516147f4816001850160208f01614e54565b8a516148098160018487010160208f01614e54565b8a5161482081600184868901010160208f01614e54565b8a51928501909101019061483b816001840160208d01614e54565b88516148508160018486010160208d01614e54565b885161486781600184868801010160208d01614e54565b885193909201010190614881816001840160208a01614e54565b85516148968160018486010160208a01614e54565b85516148ad81600184868801010160208a01614e54565b6148c760018284868801010101607d60f81b815260010190565b9f9e505050505050505050505050505050565b607b60f81b815267113730b6b2911d1160c11b600182015260006149016009830187614508565b61088b60f21b8082526e113232b9b1b934b83a34b7b7111d1160891b600283015261492f6011830188614508565b818152701132bc3a32b93730b62fb634b735911d1160791b6002820152915061495b6013830187614508565b908152681134b6b0b3b2911d1160b91b6002820152905061497f600b820185614508565b601160f91b8152607d60f81b6001820152600201979650505050505050565b6e2261747472696275746573223a205b60881b815281516000906149c981600f850160208701614e54565b605d60f81b600f939091019283015250601001919050565b681137bbb732b9111d1160b91b815281516000906147bf816009850160208701614e54565b7f7b2274726169745f74797065223a2022454e53222c202276616c7565223a22008152600061474c601f830184614508565b7f7b2274726169745f74797065223a2022436f6d6d69742048617368222c20227681526630b63ab2911d1160c91b6020820152600061474c6027830184614508565b741e10a227a1aa2ca82290343a36b61f1e343a36b61f60591b8152651e3432b0b21f60d11b6015820152661e39ba3cb6329f60c91b601b82015260008451614ac9816022850160208901614e54565b671e17b9ba3cb6329f60c11b602291840191820152661e17b432b0b21f60c91b602a820152651e3137b23c9f60d11b60318201528451614b10816037840160208901614e54565b671e39b1b934b83a1f60c11b603792909101918201528351614b3981603f840160208801614e54565b614b83614b70614b5d603f84860101681e17b9b1b934b83a1f60b91b815260090190565b661e17b137b23c9f60c91b815260070190565b661e17b43a36b61f60c91b815260070190565b979650505050505050565b6001600160a01b0385811682528416602082015260408101839052608060608201819052600090614bc1908301846144dc565b9695505050505050565b6020808252825182820181905260009190848201906040850190845b81811015614c0c5783516001600160a01b031683529284019291840191600101614be7565b50909695505050505050565b60208152600061384860208301846144dc565b608081526000614c3e60808301876144dc565b8281036020840152614c5081876144dc565b90508281036040840152614c6481866144dc565b90508281036060840152614b8381856144dc565b60208082526032908201527f4552433732313a207472616e7366657220746f206e6f6e20455243373231526560408201527131b2b4bb32b91034b6b83632b6b2b73a32b960711b606082015260800190565b6020808252602c908201527f4552433732313a206f70657261746f7220717565727920666f72206e6f6e657860408201526b34b9ba32b73a103a37b5b2b760a11b606082015260800190565b60208082526023908201527f416363657373436f6e74726f6c3a206d757374206861766520746f6b656e20726040820152626f6c6560e81b606082015260800190565b60208082526028908201527f416363657373436f6e74726f6c3a206d757374206861766520636f6c6c656374604082015267696f6e20726f6c6560c01b606082015260800190565b60208082526031908201527f4552433732313a207472616e736665722063616c6c6572206973206e6f74206f6040820152701ddb995c881b9bdc88185c1c1c9bdd9959607a1b606082015260800190565b60008219821115614e0557614e05614f01565b500190565b600082614e1957614e19614f17565b500490565b6000816000190483118215151615614e3857614e38614f01565b500290565b600082821015614e4f57614e4f614f01565b500390565b60005b83811015614e6f578181015183820152602001614e57565b8381111561211c5750506000910152565b600081614e8f57614e8f614f01565b506000190190565b600181811c90821680614eab57607f821691505b60208210811415614ecc57634e487b7160e01b600052602260045260246000fd5b50919050565b6000600019821415614ee657614ee6614f01565b5060010190565b600082614efc57614efc614f17565b500690565b634e487b7160e01b600052601160045260246000fd5b634e487b7160e01b600052601260045260246000fd5b634e487b7160e01b600052602160045260246000fd5b634e487b7160e01b600052603160045260246000fd5b634e487b7160e01b600052603260045260246000fd5b634e487b7160e01b600052604160045260246000fd5b6001600160e01b03198116811461192a57600080fdfe4142434445464748494a4b4c4d4e4f505152535455565758595a6162636465666768696a6b6c6d6e6f707172737475767778797a303132333435363738392b2fa2646970667358221220d4f6795d7916d1ba7fa058e80639d72da62b00f7c9166fab45f67f6a7b8ae9e364736f6c63430008070033",
  "linkReferences": {},
  "deployedLinkReferences": {}
}