{
  "_format": "hh-sol-artifact-1",
  "contractName": "Marketplace",
  "sourceName": "contracts/MaketPlace.sol",
  "abi": [
    {
      "anonymous": false,
      "inputs": [
        {
          "indexed": true,
          "internalType": "address",
          "name": "previousOwner",
          "type": "address"
        },
        {
          "indexed": true,
          "internalType": "address",
          "name": "newOwner",
          "type": "address"
        }
      ],
      "name": "OwnershipTransferred",
      "type": "event"
    },
    {
      "anonymous": false,
      "inputs": [
        {
          "indexed": false,
          "internalType": "address",
          "name": "account",
          "type": "address"
        }
      ],
      "name": "Paused",
      "type": "event"
    },
    {
      "anonymous": false,
      "inputs": [
        {
          "indexed": false,
          "internalType": "address",
          "name": "account",
          "type": "address"
        }
      ],
      "name": "Unpaused",
      "type": "event"
    },
    {
      "inputs": [],
      "name": "initialize",
      "outputs": [],
      "stateMutability": "nonpayable",
      "type": "function"
    },
    {
      "inputs": [],
      "name": "owner",
      "outputs": [
        {
          "internalType": "address",
          "name": "",
          "type": "address"
        }
      ],
      "stateMutability": "view",
      "type": "function"
    },
    {
      "inputs": [],
      "name": "paused",
      "outputs": [
        {
          "internalType": "bool",
          "name": "",
          "type": "bool"
        }
      ],
      "stateMutability": "view",
      "type": "function"
    },
    {
      "inputs": [],
      "name": "renounceOwnership",
      "outputs": [],
      "stateMutability": "nonpayable",
      "type": "function"
    },
    {
      "inputs": [
        {
          "internalType": "address",
          "name": "nftAddress",
          "type": "address"
        },
        {
          "internalType": "uint256",
          "name": "tokenId",
          "type": "uint256"
        }
      ],
      "name": "transferFrom",
      "outputs": [],
      "stateMutability": "payable",
      "type": "function"
    },
    {
      "inputs": [
        {
          "internalType": "address",
          "name": "newOwner",
          "type": "address"
        }
      ],
      "name": "transferOwnership",
      "outputs": [],
      "stateMutability": "nonpayable",
      "type": "function"
    }
  ],
  "bytecode": "0x608060405234801561001057600080fd5b5061001a3361002c565b6033805460ff60a01b1916905561007e565b603380546001600160a01b038381166001600160a01b0319831681179093556040519116919082907f8be0079c531659141344cd1fd0a4f28419497f9722a3daafe3b4186f6b6457e090600090a35050565b6104558061008d6000396000f3fe6080604052600436106100555760003560e01c806301c6adc31461005a5780635c975abb1461006f578063715018a61461009e5780638129fc1c146100b35780638da5cb5b146100c8578063f2fde38b146100f0575b600080fd5b61006d6100683660046103f5565b610110565b005b34801561007b57600080fd5b50603354600160a01b900460ff1660405190151581526020015b60405180910390f35b3480156100aa57600080fd5b5061006d610179565b3480156100bf57600080fd5b5061006d6101e4565b3480156100d457600080fd5b506033546040516001600160a01b039091168152602001610095565b3480156100fc57600080fd5b5061006d61010b3660046103d3565b6102a1565b60405163a6a7948960e01b81523360048201526024810182905282906001600160a01b0382169063a6a794899034906044016000604051808303818588803b15801561015b57600080fd5b505af115801561016f573d6000803e3d6000fd5b5050505050505050565b6033546001600160a01b031633146101d85760405162461bcd60e51b815260206004820181905260248201527f4f776e61626c653a2063616c6c6572206973206e6f7420746865206f776e657260448201526064015b60405180910390fd5b6101e26000610365565b565b600054610100900460ff16806101f95750303b155b80610207575060005460ff16155b61026a5760405162461bcd60e51b815260206004820152602e60248201527f436f6e747261637420696e7374616e63652068617320616c726561647920626560448201526d195b881a5b9a5d1a585b1a5e995960921b60648201526084016101cf565b600054610100900460ff1615801561028c576000805461ffff19166101011790555b801561029e576000805461ff00191690555b50565b6033546001600160a01b031633146102fb5760405162461bcd60e51b815260206004820181905260248201527f4f776e61626c653a2063616c6c6572206973206e6f7420746865206f776e657260448201526064016101cf565b6001600160a01b0381166103605760405162461bcd60e51b815260206004820152602660248201527f4f776e61626c653a206e6577206f776e657220697320746865207a65726f206160448201526564647265737360d01b60648201526084016101cf565b61029e815b603380546001600160a01b038381166001600160a01b0319831681179093556040519116919082907f8be0079c531659141344cd1fd0a4f28419497f9722a3daafe3b4186f6b6457e090600090a35050565b80356001600160a01b03811681146103ce57600080fd5b919050565b6000602082840312156103e557600080fd5b6103ee826103b7565b9392505050565b6000806040838503121561040857600080fd5b610411836103b7565b94602093909301359350505056fea2646970667358221220036608f628e0656293531d72f89d4643e75b47c486b31e2669f24a617b79403d64736f6c63430008070033",
  "linkReferences": {},
  "deployedLinkReferences": {}
}